{
  "contractName": "ZombieAttack",
  "abi": [
    {
      "anonymous": false,
      "inputs": [
        {
          "indexed": false,
          "internalType": "uint256",
          "name": "zombieId",
          "type": "uint256"
        },
        {
          "indexed": false,
          "internalType": "string",
          "name": "name",
          "type": "string"
        },
        {
          "indexed": false,
          "internalType": "uint256",
          "name": "dna",
          "type": "uint256"
        }
      ],
      "name": "NewZombie",
      "type": "event"
    },
    {
      "anonymous": false,
      "inputs": [
        {
          "indexed": true,
          "internalType": "address",
          "name": "previousOwner",
          "type": "address"
        },
        {
          "indexed": true,
          "internalType": "address",
          "name": "newOwner",
          "type": "address"
        }
      ],
      "name": "OwnershipTransferred",
      "type": "event"
    },
    {
      "inputs": [],
      "name": "attackVictoryProbability",
      "outputs": [
        {
          "internalType": "uint256",
          "name": "",
          "type": "uint256"
        }
      ],
      "stateMutability": "view",
      "type": "function"
    },
    {
      "inputs": [
        {
          "internalType": "string",
          "name": "_name",
          "type": "string"
        }
      ],
      "name": "buyZombie",
      "outputs": [],
      "stateMutability": "payable",
      "type": "function"
    },
    {
      "inputs": [
        {
          "internalType": "uint256",
          "name": "_zombieId",
          "type": "uint256"
        },
        {
          "internalType": "string",
          "name": "_newName",
          "type": "string"
        }
      ],
      "name": "changeName",
      "outputs": [],
      "stateMutability": "nonpayable",
      "type": "function"
    },
    {
      "inputs": [],
      "name": "cooldownTime",
      "outputs": [
        {
          "internalType": "uint256",
          "name": "",
          "type": "uint256"
        }
      ],
      "stateMutability": "view",
      "type": "function"
    },
    {
      "inputs": [
        {
          "internalType": "string",
          "name": "_name",
          "type": "string"
        }
      ],
      "name": "createZombie",
      "outputs": [],
      "stateMutability": "nonpayable",
      "type": "function"
    },
    {
      "inputs": [
        {
          "internalType": "address",
          "name": "_owner",
          "type": "address"
        }
      ],
      "name": "getZombiesByOwner",
      "outputs": [
        {
          "internalType": "uint256[]",
          "name": "",
          "type": "uint256[]"
        }
      ],
      "stateMutability": "view",
      "type": "function"
    },
    {
      "inputs": [
        {
          "internalType": "uint256",
          "name": "_zombieId",
          "type": "uint256"
        }
      ],
      "name": "levelUp",
      "outputs": [],
      "stateMutability": "payable",
      "type": "function"
    },
    {
      "inputs": [],
      "name": "levelUpFee",
      "outputs": [
        {
          "internalType": "uint256",
          "name": "",
          "type": "uint256"
        }
      ],
      "stateMutability": "view",
      "type": "function"
    },
    {
      "inputs": [],
      "name": "owner",
      "outputs": [
        {
          "internalType": "address payable",
          "name": "",
          "type": "address"
        }
      ],
      "stateMutability": "view",
      "type": "function"
    },
    {
      "inputs": [
        {
          "internalType": "uint256",
          "name": "_fee",
          "type": "uint256"
        }
      ],
      "name": "setLevelUpFee",
      "outputs": [],
      "stateMutability": "nonpayable",
      "type": "function"
    },
    {
      "inputs": [
        {
          "internalType": "uint256",
          "name": "_price",
          "type": "uint256"
        }
      ],
      "name": "setZombiePrice",
      "outputs": [],
      "stateMutability": "nonpayable",
      "type": "function"
    },
    {
      "inputs": [
        {
          "internalType": "address payable",
          "name": "newOwner",
          "type": "address"
        }
      ],
      "name": "transferOwnership",
      "outputs": [],
      "stateMutability": "nonpayable",
      "type": "function"
    },
    {
      "inputs": [],
      "name": "zombieCount",
      "outputs": [
        {
          "internalType": "uint256",
          "name": "",
          "type": "uint256"
        }
      ],
      "stateMutability": "view",
      "type": "function"
    },
    {
      "inputs": [
        {
          "internalType": "uint256",
          "name": "",
          "type": "uint256"
        }
      ],
      "name": "zombieFeedTimes",
      "outputs": [
        {
          "internalType": "uint256",
          "name": "",
          "type": "uint256"
        }
      ],
      "stateMutability": "view",
      "type": "function"
    },
    {
      "inputs": [],
      "name": "zombiePrice",
      "outputs": [
        {
          "internalType": "uint256",
          "name": "",
          "type": "uint256"
        }
      ],
      "stateMutability": "view",
      "type": "function"
    },
    {
      "inputs": [
        {
          "internalType": "uint256",
          "name": "",
          "type": "uint256"
        }
      ],
      "name": "zombieToOwner",
      "outputs": [
        {
          "internalType": "address",
          "name": "",
          "type": "address"
        }
      ],
      "stateMutability": "view",
      "type": "function"
    },
    {
      "inputs": [
        {
          "internalType": "uint256",
          "name": "",
          "type": "uint256"
        }
      ],
      "name": "zombies",
      "outputs": [
        {
          "internalType": "string",
          "name": "name",
          "type": "string"
        },
        {
          "internalType": "uint256",
          "name": "dna",
          "type": "uint256"
        },
        {
          "internalType": "uint16",
          "name": "winCount",
          "type": "uint16"
        },
        {
          "internalType": "uint16",
          "name": "lossCount",
          "type": "uint16"
        },
        {
          "internalType": "uint32",
          "name": "level",
          "type": "uint32"
        },
        {
          "internalType": "uint32",
          "name": "readyTime",
          "type": "uint32"
        }
      ],
      "stateMutability": "view",
      "type": "function"
    },
    {
      "inputs": [
        {
          "internalType": "uint256",
          "name": "_attackVictoryProbability",
          "type": "uint256"
        }
      ],
      "name": "setAttackVictoryProbability",
      "outputs": [],
      "stateMutability": "nonpayable",
      "type": "function"
    },
    {
      "inputs": [
        {
          "internalType": "uint256",
          "name": "_zombieId",
          "type": "uint256"
        },
        {
          "internalType": "uint256",
          "name": "_targetId",
          "type": "uint256"
        }
      ],
      "name": "attack",
      "outputs": [
        {
          "internalType": "uint256",
          "name": "",
          "type": "uint256"
        }
      ],
      "stateMutability": "nonpayable",
      "type": "function"
    }
  ],
  "bytecode": "0x60806040526010600155600154600a6200001a91906200021f565b60025562015180600355662386f26fc100006004555f60055566038d7ea4c68000600a555f600b556046600c5534801562000053575f80fd5b50335f806101000a81548173ffffffffffffffffffffffffffffffffffffffff021916908373ffffffffffffffffffffffffffffffffffffffff1602179055506200026f565b7f4e487b71000000000000000000000000000000000000000000000000000000005f52601160045260245ffd5b5f8160011c9050919050565b5f808291508390505b60018511156200012357808604811115620000fb57620000fa62000099565b5b60018516156200010b5780820291505b80810290506200011b85620000c6565b9450620000db565b94509492505050565b5f826200013d57600190506200020f565b816200014c575f90506200020f565b81600181146200016557600281146200017057620001a6565b60019150506200020f565b60ff84111562000185576200018462000099565b5b8360020a9150848211156200019f576200019e62000099565b5b506200020f565b5060208310610133831016604e8410600b8410161715620001e05782820a905083811115620001da57620001d962000099565b5b6200020f565b620001ef8484846001620000d2565b9250905081840481111562000209576200020862000099565b5b81810290505b9392505050565b5f819050919050565b5f6200022b8262000216565b9150620002388362000216565b9250620002677fffffffffffffffffffffffffffffffffffffffffffffffffffffffffffffffff84846200012c565b905092915050565b6128d1806200027d5f395ff3fe608060405260043610610113575f3560e01c8063ad8227781161009f578063ccf670f811610063578063ccf670f81461037c578063d521ef43146103a4578063e1fa7638146103cc578063ef6ad18b14610408578063f2fde38b1461044457610113565b8063ad822778146102bc578063b319c6b7146102e4578063b3f0ddb91461030e578063c39cbef11461032a578063c4114b121461035257610113565b8063594455f9116100e6578063594455f9146101ec57806363721d6b1461021457806383d404d81461023e5780638da5cb5b14610268578063a94d153b1461029257610113565b80630ce90ec2146101175780632052465e146101335780634412e10414610174578063528b7b8f146101b0575b5f80fd5b610131600480360381019061012c9190611794565b61046c565b005b34801561013e575f80fd5b5061015960048036038101906101549190611794565b6105b5565b60405161016b96959493929190611892565b60405180910390f35b34801561017f575f80fd5b5061019a60048036038101906101959190611952565b6106bd565b6040516101a79190611a34565b60405180910390f35b3480156101bb575f80fd5b506101d660048036038101906101d19190611794565b610808565b6040516101e39190611a63565b60405180910390f35b3480156101f7575f80fd5b50610212600480360381019061020d9190611794565b610838565b005b34801561021f575f80fd5b506102286108cf565b6040516102359190611a7c565b60405180910390f35b348015610249575f80fd5b506102526108d5565b60405161025f9190611a7c565b60405180910390f35b348015610273575f80fd5b5061027c6108db565b6040516102899190611ab5565b60405180910390f35b34801561029d575f80fd5b506102a66108fe565b6040516102b39190611a7c565b60405180910390f35b3480156102c7575f80fd5b506102e260048036038101906102dd9190611bfa565b610904565b005b3480156102ef575f80fd5b506102f86109b7565b6040516103059190611a7c565b60405180910390f35b61032860048036038101906103239190611bfa565b6109bd565b005b348015610335575f80fd5b50610350600480360381019061034b9190611c9e565b610ac0565b005b34801561035d575f80fd5b50610366610c18565b6040516103739190611a7c565b60405180910390f35b348015610387575f80fd5b506103a2600480360381019061039d9190611794565b610c1e565b005b3480156103af575f80fd5b506103ca60048036038101906103c59190611794565b610cb5565b005b3480156103d7575f80fd5b506103f260048036038101906103ed9190611cfb565b610d4c565b6040516103ff9190611a7c565b60405180910390f35b348015610413575f80fd5b5061042e60048036038101906104299190611794565b611093565b60405161043b9190611a7c565b60405180910390f35b34801561044f575f80fd5b5061046a60048036038101906104659190611d63565b6110a8565b005b8060075f8281526020019081526020015f205f9054906101000a900473ffffffffffffffffffffffffffffffffffffffff1673ffffffffffffffffffffffffffffffffffffffff163373ffffffffffffffffffffffffffffffffffffffff161461050b576040517f08c379a000000000000000000000000000000000000000000000000000000000815260040161050290611dd8565b60405180910390fd5b600a54341461054f576040517f08c379a000000000000000000000000000000000000000000000000000000000815260040161054690611e40565b60405180910390fd5b6006828154811061056357610562611e5e565b5b905f5260205f209060030201600201600481819054906101000a900463ffffffff168092919061059290611eb8565b91906101000a81548163ffffffff021916908363ffffffff160217905550505050565b600681815481106105c4575f80fd5b905f5260205f2090600302015f91509050805f0180546105e390611f10565b80601f016020809104026020016040519081016040528092919081815260200182805461060f90611f10565b801561065a5780601f106106315761010080835404028352916020019161065a565b820191905f5260205f20905b81548152906001019060200180831161063d57829003601f168201915b505050505090806001015490806002015f9054906101000a900461ffff16908060020160029054906101000a900461ffff16908060020160049054906101000a900463ffffffff16908060020160089054906101000a900463ffffffff16905086565b60605f60085f8473ffffffffffffffffffffffffffffffffffffffff1673ffffffffffffffffffffffffffffffffffffffff1681526020019081526020015f205467ffffffffffffffff81111561071757610716611ad6565b5b6040519080825280602002602001820160405280156107455781602001602082028036833780820191505090505b5090505f805b6006805490508110156107fd578473ffffffffffffffffffffffffffffffffffffffff1660075f8381526020019081526020015f205f9054906101000a900473ffffffffffffffffffffffffffffffffffffffff1673ffffffffffffffffffffffffffffffffffffffff16036107ea57808383815181106107cf576107ce611e5e565b5b60200260200101818152505081806107e690611f40565b9250505b80806107f590611f40565b91505061074b565b508192505050919050565b6007602052805f5260405f205f915054906101000a900473ffffffffffffffffffffffffffffffffffffffff1681565b5f8054906101000a900473ffffffffffffffffffffffffffffffffffffffff1673ffffffffffffffffffffffffffffffffffffffff163373ffffffffffffffffffffffffffffffffffffffff16146108c5576040517f08c379a00000000000000000000000000000000000000000000000000000000081526004016108bc90611fd1565b60405180910390fd5b80600c8190555050565b60055481565b60045481565b5f8054906101000a900473ffffffffffffffffffffffffffffffffffffffff1681565b600c5481565b5f60085f3373ffffffffffffffffffffffffffffffffffffffff1673ffffffffffffffffffffffffffffffffffffffff1681526020019081526020015f205414610983576040517f08c379a000000000000000000000000000000000000000000000000000000000815260040161097a90612039565b60405180910390fd5b5f61098d8261125e565b9050600a8161099c9190612084565b816109a791906120b4565b90506109b3828261129e565b5050565b60035481565b5f60085f3373ffffffffffffffffffffffffffffffffffffffff1673ffffffffffffffffffffffffffffffffffffffff1681526020019081526020015f205411610a3c576040517f08c379a0000000000000000000000000000000000000000000000000000000008152600401610a3390612131565b60405180910390fd5b6004543411610a80576040517f08c379a0000000000000000000000000000000000000000000000000000000008152600401610a7790612199565b60405180910390fd5b5f610a8a8261125e565b90506001600a82610a9b9190612084565b82610aa691906120b4565b610ab091906121b7565b9050610abc828261129e565b5050565b6002838160068281548110610ad857610ad7611e5e565b5b905f5260205f20906003020160020160049054906101000a900463ffffffff1663ffffffff161015610b3f576040517f08c379a0000000000000000000000000000000000000000000000000000000008152600401610b3690612234565b60405180910390fd5b8460075f8281526020019081526020015f205f9054906101000a900473ffffffffffffffffffffffffffffffffffffffff1673ffffffffffffffffffffffffffffffffffffffff163373ffffffffffffffffffffffffffffffffffffffff1614610bde576040517f08c379a0000000000000000000000000000000000000000000000000000000008152600401610bd590611dd8565b60405180910390fd5b848460068881548110610bf457610bf3611e5e565b5b905f5260205f2090600302015f019182610c0f9291906123f9565b50505050505050565b600a5481565b5f8054906101000a900473ffffffffffffffffffffffffffffffffffffffff1673ffffffffffffffffffffffffffffffffffffffff163373ffffffffffffffffffffffffffffffffffffffff1614610cab576040517f08c379a0000000000000000000000000000000000000000000000000000000008152600401610ca290611fd1565b60405180910390fd5b80600a8190555050565b5f8054906101000a900473ffffffffffffffffffffffffffffffffffffffff1673ffffffffffffffffffffffffffffffffffffffff163373ffffffffffffffffffffffffffffffffffffffff1614610d42576040517f08c379a0000000000000000000000000000000000000000000000000000000008152600401610d3990611fd1565b60405180910390fd5b8060048190555050565b5f8260075f8281526020019081526020015f205f9054906101000a900473ffffffffffffffffffffffffffffffffffffffff1673ffffffffffffffffffffffffffffffffffffffff163373ffffffffffffffffffffffffffffffffffffffff1614610dec576040517f08c379a0000000000000000000000000000000000000000000000000000000008152600401610de390611dd8565b60405180910390fd5b60075f8481526020019081526020015f205f9054906101000a900473ffffffffffffffffffffffffffffffffffffffff1673ffffffffffffffffffffffffffffffffffffffff163373ffffffffffffffffffffffffffffffffffffffff1603610e8a576040517f08c379a0000000000000000000000000000000000000000000000000000000008152600401610e8190612510565b60405180910390fd5b5f60068581548110610e9f57610e9e611e5e565b5b905f5260205f2090600302019050610eb6816114c8565b610ef5576040517f08c379a0000000000000000000000000000000000000000000000000000000008152600401610eec90612578565b60405180910390fd5b5f60068581548110610f0a57610f09611e5e565b5b905f5260205f20906003020190505f610f2360646114ee565b9050600c54811161100357826002015f81819054906101000a900461ffff1680929190610f4f90612596565b91906101000a81548161ffff021916908361ffff1602179055505082600201600481819054906101000a900463ffffffff1680929190610f8e90611eb8565b91906101000a81548163ffffffff021916908363ffffffff1602179055505081600201600281819054906101000a900461ffff1680929190610fcf90612596565b91906101000a81548161ffff021916908361ffff16021790555050610ff8878360010154611547565b86945050505061108c565b82600201600281819054906101000a900461ffff168092919061102590612596565b91906101000a81548161ffff021916908361ffff16021790555050816002015f81819054906101000a900461ffff168092919061106190612596565b91906101000a81548161ffff021916908361ffff16021790555050611085836116f7565b8594505050505b5092915050565b6009602052805f5260405f205f915090505481565b5f8054906101000a900473ffffffffffffffffffffffffffffffffffffffff1673ffffffffffffffffffffffffffffffffffffffff163373ffffffffffffffffffffffffffffffffffffffff1614611135576040517f08c379a000000000000000000000000000000000000000000000000000000000815260040161112c90611fd1565b60405180910390fd5b5f73ffffffffffffffffffffffffffffffffffffffff168173ffffffffffffffffffffffffffffffffffffffff16036111a3576040517f08c379a000000000000000000000000000000000000000000000000000000000815260040161119a90611fd1565b60405180910390fd5b8073ffffffffffffffffffffffffffffffffffffffff165f8054906101000a900473ffffffffffffffffffffffffffffffffffffffff1673ffffffffffffffffffffffffffffffffffffffff167f8be0079c531659141344cd1fd0a4f28419497f9722a3daafe3b4186f6b6457e060405160405180910390a3805f806101000a81548173ffffffffffffffffffffffffffffffffffffffff021916908373ffffffffffffffffffffffffffffffffffffffff16021790555050565b5f6002548242604051602001611275929190612619565b604051602081830303815290604052805190602001205f1c6112979190612084565b9050919050565b60066040518060c001604052808481526020018381526020015f61ffff1681526020015f61ffff168152602001600163ffffffff1681526020015f63ffffffff16815250908060018154018082558091505060019003905f5260205f2090600302015f909190919091505f820151815f01908161131b9190612640565b50602082015181600101556040820151816002015f6101000a81548161ffff021916908361ffff16021790555060608201518160020160026101000a81548161ffff021916908361ffff16021790555060808201518160020160046101000a81548163ffffffff021916908363ffffffff16021790555060a08201518160020160086101000a81548163ffffffff021916908363ffffffff16021790555050505f60016006805490506113ce91906120b4565b90503360075f8381526020019081526020015f205f6101000a81548173ffffffffffffffffffffffffffffffffffffffff021916908373ffffffffffffffffffffffffffffffffffffffff16021790555060085f3373ffffffffffffffffffffffffffffffffffffffff1673ffffffffffffffffffffffffffffffffffffffff1681526020019081526020015f205f81548092919061146c90611f40565b919050555060055f81548092919061148390611f40565b91905055507f88f026aacbbecc90c18411df4b1185fd8d9be2470f1962f192bf84a27d0704b78184846040516114bb9392919061270f565b60405180910390a1505050565b5f428260020160089054906101000a900463ffffffff1663ffffffff1611159050919050565b5f600b5f81548092919061150190611f40565b9190505550814233600b5460405160200161151e93929190612790565b604051602081830303815290604052805190602001205f1c6115409190612084565b9050919050565b8160075f8281526020019081526020015f205f9054906101000a900473ffffffffffffffffffffffffffffffffffffffff1673ffffffffffffffffffffffffffffffffffffffff163373ffffffffffffffffffffffffffffffffffffffff16146115e6576040517f08c379a00000000000000000000000000000000000000000000000000000000081526004016115dd90611dd8565b60405180910390fd5b5f600684815481106115fb576115fa611e5e565b5b905f5260205f2090600302019050611612816114c8565b611651576040517f08c379a000000000000000000000000000000000000000000000000000000000815260040161164890612816565b60405180910390fd5b5f600254846116609190612084565b90505f600282846001015461167591906121b7565b61167f9190612834565b90506009600a826116909190612084565b8261169b91906120b4565b6116a591906121b7565b90506116e66040518060400160405280600681526020017f4e6f4e616d6500000000000000000000000000000000000000000000000000008152508261129e565b6116ef836116f7565b505050505050565b620151806003544261170991906121b7565b6117139190612084565b6003544261172191906121b7565b61172b9190612864565b8160020160086101000a81548163ffffffff021916908363ffffffff16021790555050565b5f604051905090565b5f80fd5b5f80fd5b5f819050919050565b61177381611761565b811461177d575f80fd5b50565b5f8135905061178e8161176a565b92915050565b5f602082840312156117a9576117a8611759565b5b5f6117b684828501611780565b91505092915050565b5f81519050919050565b5f82825260208201905092915050565b5f5b838110156117f65780820151818401526020810190506117db565b5f8484015250505050565b5f601f19601f8301169050919050565b5f61181b826117bf565b61182581856117c9565b93506118358185602086016117d9565b61183e81611801565b840191505092915050565b61185281611761565b82525050565b5f61ffff82169050919050565b61186e81611858565b82525050565b5f63ffffffff82169050919050565b61188c81611874565b82525050565b5f60c0820190508181035f8301526118aa8189611811565b90506118b96020830188611849565b6118c66040830187611865565b6118d36060830186611865565b6118e06080830185611883565b6118ed60a0830184611883565b979650505050505050565b5f73ffffffffffffffffffffffffffffffffffffffff82169050919050565b5f611921826118f8565b9050919050565b61193181611917565b811461193b575f80fd5b50565b5f8135905061194c81611928565b92915050565b5f6020828403121561196757611966611759565b5b5f6119748482850161193e565b91505092915050565b5f81519050919050565b5f82825260208201905092915050565b5f819050602082019050919050565b6119af81611761565b82525050565b5f6119c083836119a6565b60208301905092915050565b5f602082019050919050565b5f6119e28261197d565b6119ec8185611987565b93506119f783611997565b805f5b83811015611a27578151611a0e88826119b5565b9750611a19836119cc565b9250506001810190506119fa565b5085935050505092915050565b5f6020820190508181035f830152611a4c81846119d8565b905092915050565b611a5d81611917565b82525050565b5f602082019050611a765f830184611a54565b92915050565b5f602082019050611a8f5f830184611849565b92915050565b5f611a9f826118f8565b9050919050565b611aaf81611a95565b82525050565b5f602082019050611ac85f830184611aa6565b92915050565b5f80fd5b5f80fd5b7f4e487b71000000000000000000000000000000000000000000000000000000005f52604160045260245ffd5b611b0c82611801565b810181811067ffffffffffffffff82111715611b2b57611b2a611ad6565b5b80604052505050565b5f611b3d611750565b9050611b498282611b03565b919050565b5f67ffffffffffffffff821115611b6857611b67611ad6565b5b611b7182611801565b9050602081019050919050565b828183375f83830152505050565b5f611b9e611b9984611b4e565b611b34565b905082815260208101848484011115611bba57611bb9611ad2565b5b611bc5848285611b7e565b509392505050565b5f82601f830112611be157611be0611ace565b5b8135611bf1848260208601611b8c565b91505092915050565b5f60208284031215611c0f57611c0e611759565b5b5f82013567ffffffffffffffff811115611c2c57611c2b61175d565b5b611c3884828501611bcd565b91505092915050565b5f80fd5b5f80fd5b5f8083601f840112611c5e57611c5d611ace565b5b8235905067ffffffffffffffff811115611c7b57611c7a611c41565b5b602083019150836001820283011115611c9757611c96611c45565b5b9250929050565b5f805f60408486031215611cb557611cb4611759565b5b5f611cc286828701611780565b935050602084013567ffffffffffffffff811115611ce357611ce261175d565b5b611cef86828701611c49565b92509250509250925092565b5f8060408385031215611d1157611d10611759565b5b5f611d1e85828601611780565b9250506020611d2f85828601611780565b9150509250929050565b611d4281611a95565b8114611d4c575f80fd5b50565b5f81359050611d5d81611d39565b92915050565b5f60208284031215611d7857611d77611759565b5b5f611d8584828501611d4f565b91505092915050565b7f5a6f6d626965206973206e6f7420796f757273000000000000000000000000005f82015250565b5f611dc26013836117c9565b9150611dcd82611d8e565b602082019050919050565b5f6020820190508181035f830152611def81611db6565b9050919050565b7f4e6f20656e6f756768206d6f6e657900000000000000000000000000000000005f82015250565b5f611e2a600f836117c9565b9150611e3582611df6565b602082019050919050565b5f6020820190508181035f830152611e5781611e1e565b9050919050565b7f4e487b71000000000000000000000000000000000000000000000000000000005f52603260045260245ffd5b7f4e487b71000000000000000000000000000000000000000000000000000000005f52601160045260245ffd5b5f611ec282611874565b915063ffffffff8203611ed857611ed7611e8b565b5b600182019050919050565b7f4e487b71000000000000000000000000000000000000000000000000000000005f52602260045260245ffd5b5f6002820490506001821680611f2757607f821691505b602082108103611f3a57611f39611ee3565b5b50919050565b5f611f4a82611761565b91507fffffffffffffffffffffffffffffffffffffffffffffffffffffffffffffffff8203611f7c57611f7b611e8b565b5b600182019050919050565b7f4d75737420636f6e7472616374206f776e6572000000000000000000000000005f82015250565b5f611fbb6013836117c9565b9150611fc682611f87565b602082019050919050565b5f6020820190508181035f830152611fe881611faf565b9050919050565b7f7a6f6d626965206973206d6f72650000000000000000000000000000000000005f82015250565b5f612023600e836117c9565b915061202e82611fef565b602082019050919050565b5f6020820190508181035f83015261205081612017565b9050919050565b7f4e487b71000000000000000000000000000000000000000000000000000000005f52601260045260245ffd5b5f61208e82611761565b915061209983611761565b9250826120a9576120a8612057565b5b828206905092915050565b5f6120be82611761565b91506120c983611761565b92508282039050818111156120e1576120e0611e8b565b5b92915050565b7f7a6f6d626965206d757374207468616e207a65726f00000000000000000000005f82015250565b5f61211b6015836117c9565b9150612126826120e7565b602082019050919050565b5f6020820190508181035f8301526121488161210f565b9050919050565b7f7072696365206c657373000000000000000000000000000000000000000000005f82015250565b5f612183600a836117c9565b915061218e8261214f565b602082019050919050565b5f6020820190508181035f8301526121b081612177565b9050919050565b5f6121c182611761565b91506121cc83611761565b92508282019050808211156121e4576121e3611e8b565b5b92915050565b7f4c6576656c206973206e6f742073756666696369656e740000000000000000005f82015250565b5f61221e6017836117c9565b9150612229826121ea565b602082019050919050565b5f6020820190508181035f83015261224b81612212565b9050919050565b5f82905092915050565b5f819050815f5260205f209050919050565b5f6020601f8301049050919050565b5f82821b905092915050565b5f600883026122b87fffffffffffffffffffffffffffffffffffffffffffffffffffffffffffffffff8261227d565b6122c2868361227d565b95508019841693508086168417925050509392505050565b5f819050919050565b5f6122fd6122f86122f384611761565b6122da565b611761565b9050919050565b5f819050919050565b612316836122e3565b61232a61232282612304565b848454612289565b825550505050565b5f90565b61233e612332565b61234981848461230d565b505050565b5b8181101561236c576123615f82612336565b60018101905061234f565b5050565b601f8211156123b1576123828161225c565b61238b8461226e565b8101602085101561239a578190505b6123ae6123a68561226e565b83018261234e565b50505b505050565b5f82821c905092915050565b5f6123d15f19846008026123b6565b1980831691505092915050565b5f6123e983836123c2565b9150826002028217905092915050565b6124038383612252565b67ffffffffffffffff81111561241c5761241b611ad6565b5b6124268254611f10565b612431828285612370565b5f601f83116001811461245e575f841561244c578287013590505b61245685826123de565b8655506124bd565b601f19841661246c8661225c565b5f5b828110156124935784890135825560018201915060208501945060208101905061246e565b868310156124b057848901356124ac601f8916826123c2565b8355505b6001600288020188555050505b50505050505050565b7f54686520746172676574207a6f6d62696520697320796f7572732100000000005f82015250565b5f6124fa601b836117c9565b9150612505826124c6565b602082019050919050565b5f6020820190508181035f830152612527816124ee565b9050919050565b7f596f7572207a6f6d626965206973206e6f7420726561647921000000000000005f82015250565b5f6125626019836117c9565b915061256d8261252e565b602082019050919050565b5f6020820190508181035f83015261258f81612556565b9050919050565b5f6125a082611858565b915061ffff82036125b4576125b3611e8b565b5b600182019050919050565b5f81905092915050565b5f6125d3826117bf565b6125dd81856125bf565b93506125ed8185602086016117d9565b80840191505092915050565b5f819050919050565b61261361260e82611761565b6125f9565b82525050565b5f61262482856125c9565b91506126308284612602565b6020820191508190509392505050565b612649826117bf565b67ffffffffffffffff81111561266257612661611ad6565b5b61266c8254611f10565b612677828285612370565b5f60209050601f8311600181146126a8575f8415612696578287015190505b6126a085826123de565b865550612707565b601f1984166126b68661225c565b5f5b828110156126dd578489015182556001820191506020850194506020810190506126b8565b868310156126fa57848901516126f6601f8916826123c2565b8355505b6001600288020188555050505b505050505050565b5f6060820190506127225f830186611849565b81810360208301526127348185611811565b90506127436040830184611849565b949350505050565b5f8160601b9050919050565b5f6127618261274b565b9050919050565b5f61277282612757565b9050919050565b61278a61278582611917565b612768565b82525050565b5f61279b8286612602565b6020820191506127ab8285612779565b6014820191506127bb8284612602565b602082019150819050949350505050565b7f5a6f6d626965206973206e6f74207265616479000000000000000000000000005f82015250565b5f6128006013836117c9565b915061280b826127cc565b602082019050919050565b5f6020820190508181035f83015261282d816127f4565b9050919050565b5f61283e82611761565b915061284983611761565b92508261285957612858612057565b5b828204905092915050565b5f61286e82611874565b915061287983611874565b9250828203905063ffffffff81111561289557612894611e8b565b5b9291505056fea26469706673582212208dde04dcd17378494c2af220ab93ee88a1ef59d423099b02dc1f979360198fcd64736f6c63430008150033",
  "immutableReferences": {},
  "source": "// SPDX-License-Identifier: MIT\npragma solidity ^0.8.21;\n\nimport \"./zombieHelper.sol\";\n//\ncontract ZombieAttack is ZombieHelper {\n    //\n    uint randNonce = 0;\n    //\n    uint public attackVictoryProbability = 70;\n    //\n    function randMod(uint _modulus) internal returns (uint) {\n        randNonce++;\n        return\n            uint(\n                keccak256(\n                    abi.encodePacked(block.timestamp, msg.sender, randNonce)\n                )\n            ) % _modulus;\n    }\n    //\n    function setAttackVictoryProbability(\n        uint _attackVictoryProbability\n    ) public onlyOwner {\n        attackVictoryProbability = _attackVictoryProbability;\n    }\n    //\n    function attack(\n        uint _zombieId,\n        uint _targetId\n    ) external onlyOwnerOf(_zombieId) returns (uint) {\n        require(\n            msg.sender != zombieToOwner[_targetId],\n            \"The target zombie is yours!\"\n        );\n        Zombie storage myZombie = zombies[_zombieId];\n        require(_isReady(myZombie), \"Your zombie is not ready!\");\n        Zombie storage enemyZombie = zombies[_targetId];\n        uint rand = randMod(100);\n        //\n        if (rand <= attackVictoryProbability) {\n            myZombie.winCount++;\n            myZombie.level++;\n            enemyZombie.lossCount++;\n            //\n            multiply(_zombieId, enemyZombie.dna);\n            return _zombieId;\n        } else {\n            //\n            myZombie.lossCount++;\n            enemyZombie.winCount++;\n            _triggerCooldown(myZombie);\n            return _targetId;\n        }\n    }\n}\n",
  "sourcePath": "/Users/zhou/project/corpse/contracts/zombieAttack.sol",
  "compiler": {
    "name": "solc",
    "version": "0.8.21+commit.d9974bed.Emscripten.clang"
  },
  "schemaVersion": "3.4.16",
  "updatedAt": "2025-06-11T08:13:44.765Z",
  "devdoc": {
    "kind": "dev",
    "methods": {
      "transferOwnership(address)": {
        "details": "Allows the current owner to transfer control of the contract to a newOwner.",
        "params": {
          "newOwner": "The address to transfer ownership to."
        }
      }
    },
    "version": 1
  },
  "userdoc": {
    "kind": "user",
    "methods": {},
    "version": 1
  }
}