{
  "contractName": "ZombieOwnership",
  "abi": [
    {
      "anonymous": false,
      "inputs": [
        {
          "indexed": true,
          "internalType": "address",
          "name": "_owner",
          "type": "address"
        },
        {
          "indexed": true,
          "internalType": "address",
          "name": "_approved",
          "type": "address"
        },
        {
          "indexed": false,
          "internalType": "uint256",
          "name": "_tokenId",
          "type": "uint256"
        }
      ],
      "name": "Approval",
      "type": "event"
    },
    {
      "anonymous": false,
      "inputs": [
        {
          "indexed": false,
          "internalType": "uint256",
          "name": "zombieId",
          "type": "uint256"
        },
        {
          "indexed": false,
          "internalType": "string",
          "name": "name",
          "type": "string"
        },
        {
          "indexed": false,
          "internalType": "uint256",
          "name": "dna",
          "type": "uint256"
        }
      ],
      "name": "NewZombie",
      "type": "event"
    },
    {
      "anonymous": false,
      "inputs": [
        {
          "indexed": true,
          "internalType": "address",
          "name": "previousOwner",
          "type": "address"
        },
        {
          "indexed": true,
          "internalType": "address",
          "name": "newOwner",
          "type": "address"
        }
      ],
      "name": "OwnershipTransferred",
      "type": "event"
    },
    {
      "anonymous": false,
      "inputs": [
        {
          "indexed": true,
          "internalType": "address",
          "name": "_from",
          "type": "address"
        },
        {
          "indexed": true,
          "internalType": "address",
          "name": "_to",
          "type": "address"
        },
        {
          "indexed": false,
          "internalType": "uint256",
          "name": "_tokenId",
          "type": "uint256"
        }
      ],
      "name": "Transfer",
      "type": "event"
    },
    {
      "inputs": [
        {
          "internalType": "string",
          "name": "_name",
          "type": "string"
        }
      ],
      "name": "buyZombie",
      "outputs": [],
      "stateMutability": "payable",
      "type": "function"
    },
    {
      "inputs": [
        {
          "internalType": "uint256",
          "name": "_zombieId",
          "type": "uint256"
        },
        {
          "internalType": "string",
          "name": "_newName",
          "type": "string"
        }
      ],
      "name": "changeName",
      "outputs": [],
      "stateMutability": "nonpayable",
      "type": "function"
    },
    {
      "inputs": [],
      "name": "cooldownTime",
      "outputs": [
        {
          "internalType": "uint256",
          "name": "",
          "type": "uint256"
        }
      ],
      "stateMutability": "view",
      "type": "function"
    },
    {
      "inputs": [
        {
          "internalType": "string",
          "name": "_name",
          "type": "string"
        }
      ],
      "name": "createZombie",
      "outputs": [],
      "stateMutability": "nonpayable",
      "type": "function"
    },
    {
      "inputs": [
        {
          "internalType": "address",
          "name": "_owner",
          "type": "address"
        }
      ],
      "name": "getZombiesByOwner",
      "outputs": [
        {
          "internalType": "uint256[]",
          "name": "",
          "type": "uint256[]"
        }
      ],
      "stateMutability": "view",
      "type": "function"
    },
    {
      "inputs": [
        {
          "internalType": "uint256",
          "name": "_zombieId",
          "type": "uint256"
        }
      ],
      "name": "levelUp",
      "outputs": [],
      "stateMutability": "payable",
      "type": "function"
    },
    {
      "inputs": [],
      "name": "levelUpFee",
      "outputs": [
        {
          "internalType": "uint256",
          "name": "",
          "type": "uint256"
        }
      ],
      "stateMutability": "view",
      "type": "function"
    },
    {
      "inputs": [],
      "name": "owner",
      "outputs": [
        {
          "internalType": "address payable",
          "name": "",
          "type": "address"
        }
      ],
      "stateMutability": "view",
      "type": "function"
    },
    {
      "inputs": [
        {
          "internalType": "uint256",
          "name": "_fee",
          "type": "uint256"
        }
      ],
      "name": "setLevelUpFee",
      "outputs": [],
      "stateMutability": "nonpayable",
      "type": "function"
    },
    {
      "inputs": [
        {
          "internalType": "uint256",
          "name": "_price",
          "type": "uint256"
        }
      ],
      "name": "setZombiePrice",
      "outputs": [],
      "stateMutability": "nonpayable",
      "type": "function"
    },
    {
      "inputs": [
        {
          "internalType": "address payable",
          "name": "newOwner",
          "type": "address"
        }
      ],
      "name": "transferOwnership",
      "outputs": [],
      "stateMutability": "nonpayable",
      "type": "function"
    },
    {
      "inputs": [],
      "name": "zombieCount",
      "outputs": [
        {
          "internalType": "uint256",
          "name": "",
          "type": "uint256"
        }
      ],
      "stateMutability": "view",
      "type": "function"
    },
    {
      "inputs": [
        {
          "internalType": "uint256",
          "name": "",
          "type": "uint256"
        }
      ],
      "name": "zombieFeedTimes",
      "outputs": [
        {
          "internalType": "uint256",
          "name": "",
          "type": "uint256"
        }
      ],
      "stateMutability": "view",
      "type": "function"
    },
    {
      "inputs": [],
      "name": "zombiePrice",
      "outputs": [
        {
          "internalType": "uint256",
          "name": "",
          "type": "uint256"
        }
      ],
      "stateMutability": "view",
      "type": "function"
    },
    {
      "inputs": [
        {
          "internalType": "uint256",
          "name": "",
          "type": "uint256"
        }
      ],
      "name": "zombieToOwner",
      "outputs": [
        {
          "internalType": "address",
          "name": "",
          "type": "address"
        }
      ],
      "stateMutability": "view",
      "type": "function"
    },
    {
      "inputs": [
        {
          "internalType": "uint256",
          "name": "",
          "type": "uint256"
        }
      ],
      "name": "zombies",
      "outputs": [
        {
          "internalType": "string",
          "name": "name",
          "type": "string"
        },
        {
          "internalType": "uint256",
          "name": "dna",
          "type": "uint256"
        },
        {
          "internalType": "uint16",
          "name": "winCount",
          "type": "uint16"
        },
        {
          "internalType": "uint16",
          "name": "lossCount",
          "type": "uint16"
        },
        {
          "internalType": "uint32",
          "name": "level",
          "type": "uint32"
        },
        {
          "internalType": "uint32",
          "name": "readyTime",
          "type": "uint32"
        }
      ],
      "stateMutability": "view",
      "type": "function"
    },
    {
      "inputs": [
        {
          "internalType": "address",
          "name": "_owner",
          "type": "address"
        }
      ],
      "name": "balanceOf",
      "outputs": [
        {
          "internalType": "uint256",
          "name": "_balance",
          "type": "uint256"
        }
      ],
      "stateMutability": "view",
      "type": "function"
    },
    {
      "inputs": [
        {
          "internalType": "uint256",
          "name": "_tokenId",
          "type": "uint256"
        }
      ],
      "name": "ownerOf",
      "outputs": [
        {
          "internalType": "address",
          "name": "_owner",
          "type": "address"
        }
      ],
      "stateMutability": "view",
      "type": "function"
    },
    {
      "inputs": [
        {
          "internalType": "address",
          "name": "_to",
          "type": "address"
        },
        {
          "internalType": "uint256",
          "name": "_tokenId",
          "type": "uint256"
        }
      ],
      "name": "transfer",
      "outputs": [],
      "stateMutability": "nonpayable",
      "type": "function"
    },
    {
      "inputs": [
        {
          "internalType": "address",
          "name": "_to",
          "type": "address"
        },
        {
          "internalType": "uint256",
          "name": "_tokenId",
          "type": "uint256"
        }
      ],
      "name": "approve",
      "outputs": [],
      "stateMutability": "nonpayable",
      "type": "function"
    },
    {
      "inputs": [
        {
          "internalType": "uint256",
          "name": "_tokenId",
          "type": "uint256"
        }
      ],
      "name": "takeOwnership",
      "outputs": [],
      "stateMutability": "nonpayable",
      "type": "function"
    }
  ],
  "bytecode": "0x60806040526010600155600154600a6200001a919062000216565b60025562015180600355662386f26fc100006004555f60055566038d7ea4c68000600a553480156200004a575f80fd5b50335f806101000a81548173ffffffffffffffffffffffffffffffffffffffff021916908373ffffffffffffffffffffffffffffffffffffffff16021790555062000266565b7f4e487b71000000000000000000000000000000000000000000000000000000005f52601160045260245ffd5b5f8160011c9050919050565b5f808291508390505b60018511156200011a57808604811115620000f257620000f162000090565b5b6001851615620001025780820291505b80810290506200011285620000bd565b9450620000d2565b94509492505050565b5f8262000134576001905062000206565b8162000143575f905062000206565b81600181146200015c576002811462000167576200019d565b600191505062000206565b60ff8411156200017c576200017b62000090565b5b8360020a91508482111562000196576200019562000090565b5b5062000206565b5060208310610133831016604e8410600b8410161715620001d75782820a905083811115620001d157620001d062000090565b5b62000206565b620001e68484846001620000c9565b925090508184048111156200020057620001ff62000090565b5b81810290505b9392505050565b5f819050919050565b5f62000222826200020d565b91506200022f836200020d565b92506200025e7fffffffffffffffffffffffffffffffffffffffffffffffffffffffffffffffff848462000123565b905092915050565b61260a80620002745f395ff3fe608060405260043610610129575f3560e01c8063a9059cbb116100aa578063c39cbef11161006e578063c39cbef1146103de578063c4114b1214610406578063ccf670f814610430578063d521ef4314610458578063ef6ad18b14610480578063f2fde38b146104bc57610129565b8063a9059cbb14610320578063ad82277814610348578063b2e6ceeb14610370578063b319c6b714610398578063b3f0ddb9146103c257610129565b80636352211e116100f15780636352211e1461022a57806363721d6b1461026657806370a082311461029057806383d404d8146102cc5780638da5cb5b146102f657610129565b8063095ea7b31461012d5780630ce90ec2146101555780632052465e146101715780634412e104146101b2578063528b7b8f146101ee575b5f80fd5b348015610138575f80fd5b50610153600480360381019061014e9190611708565b6104e4565b005b61016f600480360381019061016a9190611746565b61063c565b005b34801561017c575f80fd5b5061019760048036038101906101929190611746565b610785565b6040516101a996959493929190611844565b60405180910390f35b3480156101bd575f80fd5b506101d860048036038101906101d391906118aa565b61088d565b6040516101e5919061198c565b60405180910390f35b3480156101f9575f80fd5b50610214600480360381019061020f9190611746565b6109d8565b60405161022191906119bb565b60405180910390f35b348015610235575f80fd5b50610250600480360381019061024b9190611746565b610a08565b60405161025d91906119bb565b60405180910390f35b348015610271575f80fd5b5061027a610a41565b60405161028791906119d4565b60405180910390f35b34801561029b575f80fd5b506102b660048036038101906102b191906118aa565b610a47565b6040516102c391906119d4565b60405180910390f35b3480156102d7575f80fd5b506102e0610a8d565b6040516102ed91906119d4565b60405180910390f35b348015610301575f80fd5b5061030a610a93565b6040516103179190611a0d565b60405180910390f35b34801561032b575f80fd5b5061034660048036038101906103419190611708565b610ab6565b005b348015610353575f80fd5b5061036e60048036038101906103699190611b52565b610b65565b005b34801561037b575f80fd5b5061039660048036038101906103919190611746565b610c18565b005b3480156103a3575f80fd5b506103ac610cd1565b6040516103b991906119d4565b60405180910390f35b6103dc60048036038101906103d79190611b52565b610cd7565b005b3480156103e9575f80fd5b5061040460048036038101906103ff9190611bf6565b610dda565b005b348015610411575f80fd5b5061041a610f32565b60405161042791906119d4565b60405180910390f35b34801561043b575f80fd5b5061045660048036038101906104519190611746565b610f38565b005b348015610463575f80fd5b5061047e60048036038101906104799190611746565b610fcf565b005b34801561048b575f80fd5b506104a660048036038101906104a19190611746565b611066565b6040516104b391906119d4565b60405180910390f35b3480156104c7575f80fd5b506104e260048036038101906104dd9190611c7d565b61107b565b005b8060075f8281526020019081526020015f205f9054906101000a900473ffffffffffffffffffffffffffffffffffffffff1673ffffffffffffffffffffffffffffffffffffffff163373ffffffffffffffffffffffffffffffffffffffff1614610583576040517f08c379a000000000000000000000000000000000000000000000000000000000815260040161057a90611cf2565b60405180910390fd5b82600b5f8481526020019081526020015f205f6101000a81548173ffffffffffffffffffffffffffffffffffffffff021916908373ffffffffffffffffffffffffffffffffffffffff1602179055508273ffffffffffffffffffffffffffffffffffffffff163373ffffffffffffffffffffffffffffffffffffffff167f8c5be1e5ebec7d5bd14f71427d1e84f3dd0314c0f7b2291e5b200ac8c7c3b9258460405161062f91906119d4565b60405180910390a3505050565b8060075f8281526020019081526020015f205f9054906101000a900473ffffffffffffffffffffffffffffffffffffffff1673ffffffffffffffffffffffffffffffffffffffff163373ffffffffffffffffffffffffffffffffffffffff16146106db576040517f08c379a00000000000000000000000000000000000000000000000000000000081526004016106d290611cf2565b60405180910390fd5b600a54341461071f576040517f08c379a000000000000000000000000000000000000000000000000000000000815260040161071690611d5a565b60405180910390fd5b6006828154811061073357610732611d78565b5b905f5260205f209060030201600201600481819054906101000a900463ffffffff168092919061076290611dd2565b91906101000a81548163ffffffff021916908363ffffffff160217905550505050565b60068181548110610794575f80fd5b905f5260205f2090600302015f91509050805f0180546107b390611e2a565b80601f01602080910402602001604051908101604052809291908181526020018280546107df90611e2a565b801561082a5780601f106108015761010080835404028352916020019161082a565b820191905f5260205f20905b81548152906001019060200180831161080d57829003601f168201915b505050505090806001015490806002015f9054906101000a900461ffff16908060020160029054906101000a900461ffff16908060020160049054906101000a900463ffffffff16908060020160089054906101000a900463ffffffff16905086565b60605f60085f8473ffffffffffffffffffffffffffffffffffffffff1673ffffffffffffffffffffffffffffffffffffffff1681526020019081526020015f205467ffffffffffffffff8111156108e7576108e6611a2e565b5b6040519080825280602002602001820160405280156109155781602001602082028036833780820191505090505b5090505f805b6006805490508110156109cd578473ffffffffffffffffffffffffffffffffffffffff1660075f8381526020019081526020015f205f9054906101000a900473ffffffffffffffffffffffffffffffffffffffff1673ffffffffffffffffffffffffffffffffffffffff16036109ba578083838151811061099f5761099e611d78565b5b60200260200101818152505081806109b690611e5a565b9250505b80806109c590611e5a565b91505061091b565b508192505050919050565b6007602052805f5260405f205f915054906101000a900473ffffffffffffffffffffffffffffffffffffffff1681565b5f60075f8381526020019081526020015f205f9054906101000a900473ffffffffffffffffffffffffffffffffffffffff169050919050565b60055481565b5f60085f8373ffffffffffffffffffffffffffffffffffffffff1673ffffffffffffffffffffffffffffffffffffffff1681526020019081526020015f20549050919050565b60045481565b5f8054906101000a900473ffffffffffffffffffffffffffffffffffffffff1681565b8060075f8281526020019081526020015f205f9054906101000a900473ffffffffffffffffffffffffffffffffffffffff1673ffffffffffffffffffffffffffffffffffffffff163373ffffffffffffffffffffffffffffffffffffffff1614610b55576040517f08c379a0000000000000000000000000000000000000000000000000000000008152600401610b4c90611cf2565b60405180910390fd5b610b60338484611231565b505050565b5f60085f3373ffffffffffffffffffffffffffffffffffffffff1673ffffffffffffffffffffffffffffffffffffffff1681526020019081526020015f205414610be4576040517f08c379a0000000000000000000000000000000000000000000000000000000008152600401610bdb90611eeb565b60405180910390fd5b5f610bee82611400565b9050600a81610bfd9190611f36565b81610c089190611f66565b9050610c148282611440565b5050565b3373ffffffffffffffffffffffffffffffffffffffff16600b5f8381526020019081526020015f205f9054906101000a900473ffffffffffffffffffffffffffffffffffffffff1673ffffffffffffffffffffffffffffffffffffffff1614610cb6576040517f08c379a0000000000000000000000000000000000000000000000000000000008152600401610cad90611fe3565b60405180910390fd5b5f610cc082610a08565b9050610ccd813384611231565b5050565b60035481565b5f60085f3373ffffffffffffffffffffffffffffffffffffffff1673ffffffffffffffffffffffffffffffffffffffff1681526020019081526020015f205411610d56576040517f08c379a0000000000000000000000000000000000000000000000000000000008152600401610d4d9061204b565b60405180910390fd5b6004543411610d9a576040517f08c379a0000000000000000000000000000000000000000000000000000000008152600401610d91906120b3565b60405180910390fd5b5f610da482611400565b90506001600a82610db59190611f36565b82610dc09190611f66565b610dca91906120d1565b9050610dd68282611440565b5050565b6002838160068281548110610df257610df1611d78565b5b905f5260205f20906003020160020160049054906101000a900463ffffffff1663ffffffff161015610e59576040517f08c379a0000000000000000000000000000000000000000000000000000000008152600401610e509061214e565b60405180910390fd5b8460075f8281526020019081526020015f205f9054906101000a900473ffffffffffffffffffffffffffffffffffffffff1673ffffffffffffffffffffffffffffffffffffffff163373ffffffffffffffffffffffffffffffffffffffff1614610ef8576040517f08c379a0000000000000000000000000000000000000000000000000000000008152600401610eef90611cf2565b60405180910390fd5b848460068881548110610f0e57610f0d611d78565b5b905f5260205f2090600302015f019182610f29929190612313565b50505050505050565b600a5481565b5f8054906101000a900473ffffffffffffffffffffffffffffffffffffffff1673ffffffffffffffffffffffffffffffffffffffff163373ffffffffffffffffffffffffffffffffffffffff1614610fc5576040517f08c379a0000000000000000000000000000000000000000000000000000000008152600401610fbc9061242a565b60405180910390fd5b80600a8190555050565b5f8054906101000a900473ffffffffffffffffffffffffffffffffffffffff1673ffffffffffffffffffffffffffffffffffffffff163373ffffffffffffffffffffffffffffffffffffffff161461105c576040517f08c379a00000000000000000000000000000000000000000000000000000000081526004016110539061242a565b60405180910390fd5b8060048190555050565b6009602052805f5260405f205f915090505481565b5f8054906101000a900473ffffffffffffffffffffffffffffffffffffffff1673ffffffffffffffffffffffffffffffffffffffff163373ffffffffffffffffffffffffffffffffffffffff1614611108576040517f08c379a00000000000000000000000000000000000000000000000000000000081526004016110ff9061242a565b60405180910390fd5b5f73ffffffffffffffffffffffffffffffffffffffff168173ffffffffffffffffffffffffffffffffffffffff1603611176576040517f08c379a000000000000000000000000000000000000000000000000000000000815260040161116d9061242a565b60405180910390fd5b8073ffffffffffffffffffffffffffffffffffffffff165f8054906101000a900473ffffffffffffffffffffffffffffffffffffffff1673ffffffffffffffffffffffffffffffffffffffff167f8be0079c531659141344cd1fd0a4f28419497f9722a3daafe3b4186f6b6457e060405160405180910390a3805f806101000a81548173ffffffffffffffffffffffffffffffffffffffff021916908373ffffffffffffffffffffffffffffffffffffffff16021790555050565b600160085f8473ffffffffffffffffffffffffffffffffffffffff1673ffffffffffffffffffffffffffffffffffffffff1681526020019081526020015f205461127b91906120d1565b60085f8473ffffffffffffffffffffffffffffffffffffffff1673ffffffffffffffffffffffffffffffffffffffff1681526020019081526020015f2081905550600160085f8573ffffffffffffffffffffffffffffffffffffffff1673ffffffffffffffffffffffffffffffffffffffff1681526020019081526020015f20546113069190611f66565b60085f8573ffffffffffffffffffffffffffffffffffffffff1673ffffffffffffffffffffffffffffffffffffffff1681526020019081526020015f20819055508160075f8381526020019081526020015f205f6101000a81548173ffffffffffffffffffffffffffffffffffffffff021916908373ffffffffffffffffffffffffffffffffffffffff1602179055508173ffffffffffffffffffffffffffffffffffffffff168373ffffffffffffffffffffffffffffffffffffffff167fddf252ad1be2c89b69c2b068fc378daa952ba7f163c4a11628f55a4df523b3ef836040516113f391906119d4565b60405180910390a3505050565b5f60025482426040516020016114179291906124a2565b604051602081830303815290604052805190602001205f1c6114399190611f36565b9050919050565b60066040518060c001604052808481526020018381526020015f61ffff1681526020015f61ffff168152602001600163ffffffff1681526020015f63ffffffff16815250908060018154018082558091505060019003905f5260205f2090600302015f909190919091505f820151815f0190816114bd91906124c9565b50602082015181600101556040820151816002015f6101000a81548161ffff021916908361ffff16021790555060608201518160020160026101000a81548161ffff021916908361ffff16021790555060808201518160020160046101000a81548163ffffffff021916908363ffffffff16021790555060a08201518160020160086101000a81548163ffffffff021916908363ffffffff16021790555050505f60016006805490506115709190611f66565b90503360075f8381526020019081526020015f205f6101000a81548173ffffffffffffffffffffffffffffffffffffffff021916908373ffffffffffffffffffffffffffffffffffffffff16021790555060085f3373ffffffffffffffffffffffffffffffffffffffff1673ffffffffffffffffffffffffffffffffffffffff1681526020019081526020015f205f81548092919061160e90611e5a565b919050555060055f81548092919061162590611e5a565b91905055507f88f026aacbbecc90c18411df4b1185fd8d9be2470f1962f192bf84a27d0704b781848460405161165d93929190612598565b60405180910390a1505050565b5f604051905090565b5f80fd5b5f80fd5b5f73ffffffffffffffffffffffffffffffffffffffff82169050919050565b5f6116a48261167b565b9050919050565b6116b48161169a565b81146116be575f80fd5b50565b5f813590506116cf816116ab565b92915050565b5f819050919050565b6116e7816116d5565b81146116f1575f80fd5b50565b5f81359050611702816116de565b92915050565b5f806040838503121561171e5761171d611673565b5b5f61172b858286016116c1565b925050602061173c858286016116f4565b9150509250929050565b5f6020828403121561175b5761175a611673565b5b5f611768848285016116f4565b91505092915050565b5f81519050919050565b5f82825260208201905092915050565b5f5b838110156117a857808201518184015260208101905061178d565b5f8484015250505050565b5f601f19601f8301169050919050565b5f6117cd82611771565b6117d7818561177b565b93506117e781856020860161178b565b6117f0816117b3565b840191505092915050565b611804816116d5565b82525050565b5f61ffff82169050919050565b6118208161180a565b82525050565b5f63ffffffff82169050919050565b61183e81611826565b82525050565b5f60c0820190508181035f83015261185c81896117c3565b905061186b60208301886117fb565b6118786040830187611817565b6118856060830186611817565b6118926080830185611835565b61189f60a0830184611835565b979650505050505050565b5f602082840312156118bf576118be611673565b5b5f6118cc848285016116c1565b91505092915050565b5f81519050919050565b5f82825260208201905092915050565b5f819050602082019050919050565b611907816116d5565b82525050565b5f61191883836118fe565b60208301905092915050565b5f602082019050919050565b5f61193a826118d5565b61194481856118df565b935061194f836118ef565b805f5b8381101561197f578151611966888261190d565b975061197183611924565b925050600181019050611952565b5085935050505092915050565b5f6020820190508181035f8301526119a48184611930565b905092915050565b6119b58161169a565b82525050565b5f6020820190506119ce5f8301846119ac565b92915050565b5f6020820190506119e75f8301846117fb565b92915050565b5f6119f78261167b565b9050919050565b611a07816119ed565b82525050565b5f602082019050611a205f8301846119fe565b92915050565b5f80fd5b5f80fd5b7f4e487b71000000000000000000000000000000000000000000000000000000005f52604160045260245ffd5b611a64826117b3565b810181811067ffffffffffffffff82111715611a8357611a82611a2e565b5b80604052505050565b5f611a9561166a565b9050611aa18282611a5b565b919050565b5f67ffffffffffffffff821115611ac057611abf611a2e565b5b611ac9826117b3565b9050602081019050919050565b828183375f83830152505050565b5f611af6611af184611aa6565b611a8c565b905082815260208101848484011115611b1257611b11611a2a565b5b611b1d848285611ad6565b509392505050565b5f82601f830112611b3957611b38611a26565b5b8135611b49848260208601611ae4565b91505092915050565b5f60208284031215611b6757611b66611673565b5b5f82013567ffffffffffffffff811115611b8457611b83611677565b5b611b9084828501611b25565b91505092915050565b5f80fd5b5f80fd5b5f8083601f840112611bb657611bb5611a26565b5b8235905067ffffffffffffffff811115611bd357611bd2611b99565b5b602083019150836001820283011115611bef57611bee611b9d565b5b9250929050565b5f805f60408486031215611c0d57611c0c611673565b5b5f611c1a868287016116f4565b935050602084013567ffffffffffffffff811115611c3b57611c3a611677565b5b611c4786828701611ba1565b92509250509250925092565b611c5c816119ed565b8114611c66575f80fd5b50565b5f81359050611c7781611c53565b92915050565b5f60208284031215611c9257611c91611673565b5b5f611c9f84828501611c69565b91505092915050565b7f5a6f6d626965206973206e6f7420796f757273000000000000000000000000005f82015250565b5f611cdc60138361177b565b9150611ce782611ca8565b602082019050919050565b5f6020820190508181035f830152611d0981611cd0565b9050919050565b7f4e6f20656e6f756768206d6f6e657900000000000000000000000000000000005f82015250565b5f611d44600f8361177b565b9150611d4f82611d10565b602082019050919050565b5f6020820190508181035f830152611d7181611d38565b9050919050565b7f4e487b71000000000000000000000000000000000000000000000000000000005f52603260045260245ffd5b7f4e487b71000000000000000000000000000000000000000000000000000000005f52601160045260245ffd5b5f611ddc82611826565b915063ffffffff8203611df257611df1611da5565b5b600182019050919050565b7f4e487b71000000000000000000000000000000000000000000000000000000005f52602260045260245ffd5b5f6002820490506001821680611e4157607f821691505b602082108103611e5457611e53611dfd565b5b50919050565b5f611e64826116d5565b91507fffffffffffffffffffffffffffffffffffffffffffffffffffffffffffffffff8203611e9657611e95611da5565b5b600182019050919050565b7f7a6f6d626965206973206d6f72650000000000000000000000000000000000005f82015250565b5f611ed5600e8361177b565b9150611ee082611ea1565b602082019050919050565b5f6020820190508181035f830152611f0281611ec9565b9050919050565b7f4e487b71000000000000000000000000000000000000000000000000000000005f52601260045260245ffd5b5f611f40826116d5565b9150611f4b836116d5565b925082611f5b57611f5a611f09565b5b828206905092915050565b5f611f70826116d5565b9150611f7b836116d5565b9250828203905081811115611f9357611f92611da5565b5b92915050565b7f617070726f206973206e6f74206d6174636800000000000000000000000000005f82015250565b5f611fcd60128361177b565b9150611fd882611f99565b602082019050919050565b5f6020820190508181035f830152611ffa81611fc1565b9050919050565b7f7a6f6d626965206d757374207468616e207a65726f00000000000000000000005f82015250565b5f61203560158361177b565b915061204082612001565b602082019050919050565b5f6020820190508181035f83015261206281612029565b9050919050565b7f7072696365206c657373000000000000000000000000000000000000000000005f82015250565b5f61209d600a8361177b565b91506120a882612069565b602082019050919050565b5f6020820190508181035f8301526120ca81612091565b9050919050565b5f6120db826116d5565b91506120e6836116d5565b92508282019050808211156120fe576120fd611da5565b5b92915050565b7f4c6576656c206973206e6f742073756666696369656e740000000000000000005f82015250565b5f61213860178361177b565b915061214382612104565b602082019050919050565b5f6020820190508181035f8301526121658161212c565b9050919050565b5f82905092915050565b5f819050815f5260205f209050919050565b5f6020601f8301049050919050565b5f82821b905092915050565b5f600883026121d27fffffffffffffffffffffffffffffffffffffffffffffffffffffffffffffffff82612197565b6121dc8683612197565b95508019841693508086168417925050509392505050565b5f819050919050565b5f61221761221261220d846116d5565b6121f4565b6116d5565b9050919050565b5f819050919050565b612230836121fd565b61224461223c8261221e565b8484546121a3565b825550505050565b5f90565b61225861224c565b612263818484612227565b505050565b5b818110156122865761227b5f82612250565b600181019050612269565b5050565b601f8211156122cb5761229c81612176565b6122a584612188565b810160208510156122b4578190505b6122c86122c085612188565b830182612268565b50505b505050565b5f82821c905092915050565b5f6122eb5f19846008026122d0565b1980831691505092915050565b5f61230383836122dc565b9150826002028217905092915050565b61231d838361216c565b67ffffffffffffffff81111561233657612335611a2e565b5b6123408254611e2a565b61234b82828561228a565b5f601f831160018114612378575f8415612366578287013590505b61237085826122f8565b8655506123d7565b601f19841661238686612176565b5f5b828110156123ad57848901358255600182019150602085019450602081019050612388565b868310156123ca57848901356123c6601f8916826122dc565b8355505b6001600288020188555050505b50505050505050565b7f4d75737420636f6e7472616374206f776e6572000000000000000000000000005f82015250565b5f61241460138361177b565b915061241f826123e0565b602082019050919050565b5f6020820190508181035f83015261244181612408565b9050919050565b5f81905092915050565b5f61245c82611771565b6124668185612448565b935061247681856020860161178b565b80840191505092915050565b5f819050919050565b61249c612497826116d5565b612482565b82525050565b5f6124ad8285612452565b91506124b9828461248b565b6020820191508190509392505050565b6124d282611771565b67ffffffffffffffff8111156124eb576124ea611a2e565b5b6124f58254611e2a565b61250082828561228a565b5f60209050601f831160018114612531575f841561251f578287015190505b61252985826122f8565b865550612590565b601f19841661253f86612176565b5f5b8281101561256657848901518255600182019150602085019450602081019050612541565b86831015612583578489015161257f601f8916826122dc565b8355505b6001600288020188555050505b505050505050565b5f6060820190506125ab5f8301866117fb565b81810360208301526125bd81856117c3565b90506125cc60408301846117fb565b94935050505056fea264697066735822122041bce2683b3239385edbc241637d21c34170d5611cdc3f1927dc3c26db7f658764736f6c63430008150033",
  "immutableReferences": {},
  "source": "// SPDX-License-Identifier: MIT\npragma solidity ^0.8.21;\n\n\nimport \"./zombieHelper.sol\";\nimport \"./erc721.sol\";\n\ncontract ZombieOwnership is ZombieHelper, ERC721 {\n  //token\n  mapping (uint => address) zombieApprovals;\n  //\n  function balanceOf(address _owner) public view override returns (uint256 _balance) {\n    return ownerZombieCount[_owner];\n  }\n  //token\n  function ownerOf(uint256 _tokenId) public view override returns (address _owner) {\n    return zombieToOwner[_tokenId];\n  }\n  //\n  function _transfer(address _from, address _to, uint256 _tokenId) internal {\n    //\n    ownerZombieCount[_to] = ownerZombieCount[_to]+1;\n    //\n    ownerZombieCount[_from] = ownerZombieCount[_from]-1;\n    //\n    zombieToOwner[_tokenId] = _to;\n    //\n    emit Transfer(_from, _to, _tokenId);\n  }\n  //\n  function transfer(address _to, uint256 _tokenId) public override onlyOwnerOf(_tokenId) {\n    _transfer(msg.sender, _to, _tokenId);\n  }\n   //\n  function approve(address _to, uint256 _tokenId) public override onlyOwnerOf(_tokenId) {\n    zombieApprovals[_tokenId] = _to;\n    emit Approval(msg.sender, _to, _tokenId);\n  }\n  //\n  function takeOwnership(uint256 _tokenId) public override {\n    require(zombieApprovals[_tokenId] == msg.sender,\"appro is not match\");\n    address ownerOrigin = ownerOf(_tokenId);\n    _transfer(ownerOrigin, msg.sender, _tokenId);\n  }\n}\n",
  "sourcePath": "/Users/zhou/project/corpse/contracts/zombieOwnership.sol",
  "compiler": {
    "name": "solc",
    "version": "0.8.21+commit.d9974bed.Emscripten.clang"
  },
  "schemaVersion": "3.4.16",
  "updatedAt": "2025-06-11T08:13:44.792Z",
  "devdoc": {
    "kind": "dev",
    "methods": {
      "transferOwnership(address)": {
        "details": "Allows the current owner to transfer control of the contract to a newOwner.",
        "params": {
          "newOwner": "The address to transfer ownership to."
        }
      }
    },
    "version": 1
  },
  "userdoc": {
    "kind": "user",
    "methods": {},
    "version": 1
  }
}