{
  "contractName": "ZombieFactory",
  "abi": [
    {
      "anonymous": false,
      "inputs": [
        {
          "indexed": false,
          "internalType": "uint256",
          "name": "zombieId",
          "type": "uint256"
        },
        {
          "indexed": false,
          "internalType": "string",
          "name": "name",
          "type": "string"
        },
        {
          "indexed": false,
          "internalType": "uint256",
          "name": "dna",
          "type": "uint256"
        }
      ],
      "name": "NewZombie",
      "type": "event"
    },
    {
      "anonymous": false,
      "inputs": [
        {
          "indexed": true,
          "internalType": "address",
          "name": "previousOwner",
          "type": "address"
        },
        {
          "indexed": true,
          "internalType": "address",
          "name": "newOwner",
          "type": "address"
        }
      ],
      "name": "OwnershipTransferred",
      "type": "event"
    },
    {
      "inputs": [],
      "name": "cooldownTime",
      "outputs": [
        {
          "internalType": "uint256",
          "name": "",
          "type": "uint256"
        }
      ],
      "stateMutability": "view",
      "type": "function"
    },
    {
      "inputs": [],
      "name": "owner",
      "outputs": [
        {
          "internalType": "address payable",
          "name": "",
          "type": "address"
        }
      ],
      "stateMutability": "view",
      "type": "function"
    },
    {
      "inputs": [
        {
          "internalType": "address payable",
          "name": "newOwner",
          "type": "address"
        }
      ],
      "name": "transferOwnership",
      "outputs": [],
      "stateMutability": "nonpayable",
      "type": "function"
    },
    {
      "inputs": [],
      "name": "zombieCount",
      "outputs": [
        {
          "internalType": "uint256",
          "name": "",
          "type": "uint256"
        }
      ],
      "stateMutability": "view",
      "type": "function"
    },
    {
      "inputs": [
        {
          "internalType": "uint256",
          "name": "",
          "type": "uint256"
        }
      ],
      "name": "zombieFeedTimes",
      "outputs": [
        {
          "internalType": "uint256",
          "name": "",
          "type": "uint256"
        }
      ],
      "stateMutability": "view",
      "type": "function"
    },
    {
      "inputs": [],
      "name": "zombiePrice",
      "outputs": [
        {
          "internalType": "uint256",
          "name": "",
          "type": "uint256"
        }
      ],
      "stateMutability": "view",
      "type": "function"
    },
    {
      "inputs": [
        {
          "internalType": "uint256",
          "name": "",
          "type": "uint256"
        }
      ],
      "name": "zombieToOwner",
      "outputs": [
        {
          "internalType": "address",
          "name": "",
          "type": "address"
        }
      ],
      "stateMutability": "view",
      "type": "function"
    },
    {
      "inputs": [
        {
          "internalType": "uint256",
          "name": "",
          "type": "uint256"
        }
      ],
      "name": "zombies",
      "outputs": [
        {
          "internalType": "string",
          "name": "name",
          "type": "string"
        },
        {
          "internalType": "uint256",
          "name": "dna",
          "type": "uint256"
        },
        {
          "internalType": "uint16",
          "name": "winCount",
          "type": "uint16"
        },
        {
          "internalType": "uint16",
          "name": "lossCount",
          "type": "uint16"
        },
        {
          "internalType": "uint32",
          "name": "level",
          "type": "uint32"
        },
        {
          "internalType": "uint32",
          "name": "readyTime",
          "type": "uint32"
        }
      ],
      "stateMutability": "view",
      "type": "function"
    },
    {
      "inputs": [
        {
          "internalType": "string",
          "name": "_name",
          "type": "string"
        }
      ],
      "name": "createZombie",
      "outputs": [],
      "stateMutability": "nonpayable",
      "type": "function"
    },
    {
      "inputs": [
        {
          "internalType": "string",
          "name": "_name",
          "type": "string"
        }
      ],
      "name": "buyZombie",
      "outputs": [],
      "stateMutability": "payable",
      "type": "function"
    },
    {
      "inputs": [
        {
          "internalType": "uint256",
          "name": "_price",
          "type": "uint256"
        }
      ],
      "name": "setZombiePrice",
      "outputs": [],
      "stateMutability": "nonpayable",
      "type": "function"
    }
  ],
  "bytecode": "0x60806040526010600155600154600a6200001a91906200020b565b60025562015180600355662386f26fc100006004555f6005553480156200003f575f80fd5b50335f806101000a81548173ffffffffffffffffffffffffffffffffffffffff021916908373ffffffffffffffffffffffffffffffffffffffff1602179055506200025b565b7f4e487b71000000000000000000000000000000000000000000000000000000005f52601160045260245ffd5b5f8160011c9050919050565b5f808291508390505b60018511156200010f57808604811115620000e757620000e662000085565b5b6001851615620000f75780820291505b80810290506200010785620000b2565b9450620000c7565b94509492505050565b5f82620001295760019050620001fb565b8162000138575f9050620001fb565b81600181146200015157600281146200015c5762000192565b6001915050620001fb565b60ff84111562000171576200017062000085565b5b8360020a9150848211156200018b576200018a62000085565b5b50620001fb565b5060208310610133831016604e8410600b8410161715620001cc5782820a905083811115620001c657620001c562000085565b5b620001fb565b620001db8484846001620000be565b92509050818404811115620001f557620001f462000085565b5b81810290505b9392505050565b5f819050919050565b5f620002178262000202565b9150620002248362000202565b9250620002537fffffffffffffffffffffffffffffffffffffffffffffffffffffffffffffffff848462000118565b905092915050565b61153080620002695f395ff3fe60806040526004361061009b575f3560e01c8063ad82277811610063578063ad8227781461019a578063b319c6b7146101c2578063b3f0ddb9146101ec578063d521ef4314610208578063ef6ad18b14610230578063f2fde38b1461026c5761009b565b80632052465e1461009f578063528b7b8f146100e057806363721d6b1461011c57806383d404d8146101465780638da5cb5b14610170575b5f80fd5b3480156100aa575f80fd5b506100c560048036038101906100c09190610ac7565b610294565b6040516100d796959493929190610bc5565b60405180910390f35b3480156100eb575f80fd5b5061010660048036038101906101019190610ac7565b61039c565b6040516101139190610c6a565b60405180910390f35b348015610127575f80fd5b506101306103cc565b60405161013d9190610c83565b60405180910390f35b348015610151575f80fd5b5061015a6103d2565b6040516101679190610c83565b60405180910390f35b34801561017b575f80fd5b506101846103d8565b6040516101919190610cbc565b60405180910390f35b3480156101a5575f80fd5b506101c060048036038101906101bb9190610e01565b6103fb565b005b3480156101cd575f80fd5b506101d66104ae565b6040516101e39190610c83565b60405180910390f35b61020660048036038101906102019190610e01565b6104b4565b005b348015610213575f80fd5b5061022e60048036038101906102299190610ac7565b6105b7565b005b34801561023b575f80fd5b5061025660048036038101906102519190610ac7565b61064e565b6040516102639190610c83565b60405180910390f35b348015610277575f80fd5b50610292600480360381019061028d9190610e72565b610663565b005b600681815481106102a3575f80fd5b905f5260205f2090600302015f91509050805f0180546102c290610eca565b80601f01602080910402602001604051908101604052809291908181526020018280546102ee90610eca565b80156103395780601f1061031057610100808354040283529160200191610339565b820191905f5260205f20905b81548152906001019060200180831161031c57829003601f168201915b505050505090806001015490806002015f9054906101000a900461ffff16908060020160029054906101000a900461ffff16908060020160049054906101000a900463ffffffff16908060020160089054906101000a900463ffffffff16905086565b6007602052805f5260405f205f915054906101000a900473ffffffffffffffffffffffffffffffffffffffff1681565b60055481565b60045481565b5f8054906101000a900473ffffffffffffffffffffffffffffffffffffffff1681565b5f60085f3373ffffffffffffffffffffffffffffffffffffffff1673ffffffffffffffffffffffffffffffffffffffff1681526020019081526020015f20541461047a576040517f08c379a000000000000000000000000000000000000000000000000000000000815260040161047190610f44565b60405180910390fd5b5f61048482610819565b9050600a816104939190610f8f565b8161049e9190610fec565b90506104aa8282610859565b5050565b60035481565b5f60085f3373ffffffffffffffffffffffffffffffffffffffff1673ffffffffffffffffffffffffffffffffffffffff1681526020019081526020015f205411610533576040517f08c379a000000000000000000000000000000000000000000000000000000000815260040161052a90611069565b60405180910390fd5b6004543411610577576040517f08c379a000000000000000000000000000000000000000000000000000000000815260040161056e906110d1565b60405180910390fd5b5f61058182610819565b90506001600a826105929190610f8f565b8261059d9190610fec565b6105a791906110ef565b90506105b38282610859565b5050565b5f8054906101000a900473ffffffffffffffffffffffffffffffffffffffff1673ffffffffffffffffffffffffffffffffffffffff163373ffffffffffffffffffffffffffffffffffffffff1614610644576040517f08c379a000000000000000000000000000000000000000000000000000000000815260040161063b9061116c565b60405180910390fd5b8060048190555050565b6009602052805f5260405f205f915090505481565b5f8054906101000a900473ffffffffffffffffffffffffffffffffffffffff1673ffffffffffffffffffffffffffffffffffffffff163373ffffffffffffffffffffffffffffffffffffffff16146106f0576040517f08c379a00000000000000000000000000000000000000000000000000000000081526004016106e79061116c565b60405180910390fd5b5f73ffffffffffffffffffffffffffffffffffffffff168173ffffffffffffffffffffffffffffffffffffffff160361075e576040517f08c379a00000000000000000000000000000000000000000000000000000000081526004016107559061116c565b60405180910390fd5b8073ffffffffffffffffffffffffffffffffffffffff165f8054906101000a900473ffffffffffffffffffffffffffffffffffffffff1673ffffffffffffffffffffffffffffffffffffffff167f8be0079c531659141344cd1fd0a4f28419497f9722a3daafe3b4186f6b6457e060405160405180910390a3805f806101000a81548173ffffffffffffffffffffffffffffffffffffffff021916908373ffffffffffffffffffffffffffffffffffffffff16021790555050565b5f60025482426040516020016108309291906111e4565b604051602081830303815290604052805190602001205f1c6108529190610f8f565b9050919050565b60066040518060c001604052808481526020018381526020015f61ffff1681526020015f61ffff168152602001600163ffffffff1681526020015f63ffffffff16815250908060018154018082558091505060019003905f5260205f2090600302015f909190919091505f820151815f0190816108d691906113a8565b50602082015181600101556040820151816002015f6101000a81548161ffff021916908361ffff16021790555060608201518160020160026101000a81548161ffff021916908361ffff16021790555060808201518160020160046101000a81548163ffffffff021916908363ffffffff16021790555060a08201518160020160086101000a81548163ffffffff021916908363ffffffff16021790555050505f60016006805490506109899190610fec565b90503360075f8381526020019081526020015f205f6101000a81548173ffffffffffffffffffffffffffffffffffffffff021916908373ffffffffffffffffffffffffffffffffffffffff16021790555060085f3373ffffffffffffffffffffffffffffffffffffffff1673ffffffffffffffffffffffffffffffffffffffff1681526020019081526020015f205f815480929190610a2790611477565b919050555060055f815480929190610a3e90611477565b91905055507f88f026aacbbecc90c18411df4b1185fd8d9be2470f1962f192bf84a27d0704b7818484604051610a76939291906114be565b60405180910390a1505050565b5f604051905090565b5f80fd5b5f80fd5b5f819050919050565b610aa681610a94565b8114610ab0575f80fd5b50565b5f81359050610ac181610a9d565b92915050565b5f60208284031215610adc57610adb610a8c565b5b5f610ae984828501610ab3565b91505092915050565b5f81519050919050565b5f82825260208201905092915050565b5f5b83811015610b29578082015181840152602081019050610b0e565b5f8484015250505050565b5f601f19601f8301169050919050565b5f610b4e82610af2565b610b588185610afc565b9350610b68818560208601610b0c565b610b7181610b34565b840191505092915050565b610b8581610a94565b82525050565b5f61ffff82169050919050565b610ba181610b8b565b82525050565b5f63ffffffff82169050919050565b610bbf81610ba7565b82525050565b5f60c0820190508181035f830152610bdd8189610b44565b9050610bec6020830188610b7c565b610bf96040830187610b98565b610c066060830186610b98565b610c136080830185610bb6565b610c2060a0830184610bb6565b979650505050505050565b5f73ffffffffffffffffffffffffffffffffffffffff82169050919050565b5f610c5482610c2b565b9050919050565b610c6481610c4a565b82525050565b5f602082019050610c7d5f830184610c5b565b92915050565b5f602082019050610c965f830184610b7c565b92915050565b5f610ca682610c2b565b9050919050565b610cb681610c9c565b82525050565b5f602082019050610ccf5f830184610cad565b92915050565b5f80fd5b5f80fd5b7f4e487b71000000000000000000000000000000000000000000000000000000005f52604160045260245ffd5b610d1382610b34565b810181811067ffffffffffffffff82111715610d3257610d31610cdd565b5b80604052505050565b5f610d44610a83565b9050610d508282610d0a565b919050565b5f67ffffffffffffffff821115610d6f57610d6e610cdd565b5b610d7882610b34565b9050602081019050919050565b828183375f83830152505050565b5f610da5610da084610d55565b610d3b565b905082815260208101848484011115610dc157610dc0610cd9565b5b610dcc848285610d85565b509392505050565b5f82601f830112610de857610de7610cd5565b5b8135610df8848260208601610d93565b91505092915050565b5f60208284031215610e1657610e15610a8c565b5b5f82013567ffffffffffffffff811115610e3357610e32610a90565b5b610e3f84828501610dd4565b91505092915050565b610e5181610c9c565b8114610e5b575f80fd5b50565b5f81359050610e6c81610e48565b92915050565b5f60208284031215610e8757610e86610a8c565b5b5f610e9484828501610e5e565b91505092915050565b7f4e487b71000000000000000000000000000000000000000000000000000000005f52602260045260245ffd5b5f6002820490506001821680610ee157607f821691505b602082108103610ef457610ef3610e9d565b5b50919050565b7f7a6f6d626965206973206d6f72650000000000000000000000000000000000005f82015250565b5f610f2e600e83610afc565b9150610f3982610efa565b602082019050919050565b5f6020820190508181035f830152610f5b81610f22565b9050919050565b7f4e487b71000000000000000000000000000000000000000000000000000000005f52601260045260245ffd5b5f610f9982610a94565b9150610fa483610a94565b925082610fb457610fb3610f62565b5b828206905092915050565b7f4e487b71000000000000000000000000000000000000000000000000000000005f52601160045260245ffd5b5f610ff682610a94565b915061100183610a94565b925082820390508181111561101957611018610fbf565b5b92915050565b7f7a6f6d626965206d757374207468616e207a65726f00000000000000000000005f82015250565b5f611053601583610afc565b915061105e8261101f565b602082019050919050565b5f6020820190508181035f83015261108081611047565b9050919050565b7f7072696365206c657373000000000000000000000000000000000000000000005f82015250565b5f6110bb600a83610afc565b91506110c682611087565b602082019050919050565b5f6020820190508181035f8301526110e8816110af565b9050919050565b5f6110f982610a94565b915061110483610a94565b925082820190508082111561111c5761111b610fbf565b5b92915050565b7f4d75737420636f6e7472616374206f776e6572000000000000000000000000005f82015250565b5f611156601383610afc565b915061116182611122565b602082019050919050565b5f6020820190508181035f8301526111838161114a565b9050919050565b5f81905092915050565b5f61119e82610af2565b6111a8818561118a565b93506111b8818560208601610b0c565b80840191505092915050565b5f819050919050565b6111de6111d982610a94565b6111c4565b82525050565b5f6111ef8285611194565b91506111fb82846111cd565b6020820191508190509392505050565b5f819050815f5260205f209050919050565b5f6020601f8301049050919050565b5f82821b905092915050565b5f600883026112677fffffffffffffffffffffffffffffffffffffffffffffffffffffffffffffffff8261122c565b611271868361122c565b95508019841693508086168417925050509392505050565b5f819050919050565b5f6112ac6112a76112a284610a94565b611289565b610a94565b9050919050565b5f819050919050565b6112c583611292565b6112d96112d1826112b3565b848454611238565b825550505050565b5f90565b6112ed6112e1565b6112f88184846112bc565b505050565b5b8181101561131b576113105f826112e5565b6001810190506112fe565b5050565b601f821115611360576113318161120b565b61133a8461121d565b81016020851015611349578190505b61135d6113558561121d565b8301826112fd565b50505b505050565b5f82821c905092915050565b5f6113805f1984600802611365565b1980831691505092915050565b5f6113988383611371565b9150826002028217905092915050565b6113b182610af2565b67ffffffffffffffff8111156113ca576113c9610cdd565b5b6113d48254610eca565b6113df82828561131f565b5f60209050601f831160018114611410575f84156113fe578287015190505b611408858261138d565b86555061146f565b601f19841661141e8661120b565b5f5b8281101561144557848901518255600182019150602085019450602081019050611420565b86831015611462578489015161145e601f891682611371565b8355505b6001600288020188555050505b505050505050565b5f61148182610a94565b91507fffffffffffffffffffffffffffffffffffffffffffffffffffffffffffffffff82036114b3576114b2610fbf565b5b600182019050919050565b5f6060820190506114d15f830186610b7c565b81810360208301526114e38185610b44565b90506114f26040830184610b7c565b94935050505056fea2646970667358221220917524f0f6f9de8000493721ffc13c73a8dd5efcc71e953ecc2ac4850e4e5cb864736f6c63430008150033",
  "immutableReferences": {},
  "source": "// SPDX-License-Identifier: MIT\npragma solidity ^0.8.21;\nimport \"./ownable.sol\";\ncontract ZombieFactory is Ownable {\n    //\n    event NewZombie(uint zombieId, string name, uint dna);\n\n    //=16\n    uint dnaDigits = 16;\n    //16\n    uint dnaModulus = 10 ** dnaDigits;\n    //\n    uint public cooldownTime = 1 days;\n    //\n    uint public zombiePrice = 0.01 ether;\n    //\n    uint public zombieCount = 0;\n    //\n    struct Zombie {\n        string name; //\n        uint dna; //\n        uint16 winCount; //\n        uint16 lossCount; //\n        uint32 level; //\n        uint32 readyTime; //\n    }\n    //\n    Zombie[] public zombies;\n    //id=>\n    mapping(uint => address) public zombieToOwner;\n    //=>\n    mapping(address => uint) ownerZombieCount;\n    //id=>\n    mapping(uint => uint) public zombieFeedTimes;\n\n    //\n    function _generateRandomDna(\n        string memory _str\n    ) private view returns (uint) {\n        return\n            uint(keccak256(abi.encodePacked(_str, block.timestamp))) %\n            dnaModulus;\n    }\n\n    //  \n    function _createZombie(string memory _name, uint _dna) internal {\n        zombies.push(Zombie(_name, _dna, 0, 0, 1, 0));\n        uint id = zombies.length - 1;\n        zombieToOwner[id] = msg.sender;\n        ownerZombieCount[msg.sender]++;\n        zombieCount++;\n        emit NewZombie(id, _name, _dna);\n    }\n\n    //\n    function createZombie(string memory _name) public {\n        require(ownerZombieCount[msg.sender] == 0, \"zombie is more\");\n        uint randDna = _generateRandomDna(_name);\n        randDna = randDna - (randDna % 10);\n        _createZombie(_name, randDna);\n    }\n\n    //\n    function buyZombie(string memory _name) public payable {\n        require(ownerZombieCount[msg.sender] > 0, \"zombie must than zero\");\n        require(msg.value > zombiePrice, \"price less\");\n        uint randDna = _generateRandomDna(_name);\n        randDna = randDna - (randDna % 10) + 1;\n        _createZombie(_name, randDna);\n    }\n\n    //\n    function setZombiePrice(uint _price) external onlyOwner {\n        zombiePrice = _price;\n    }\n}\n",
  "sourcePath": "/Users/zhou/project/corpse/contracts/zombieFactory.sol",
  "compiler": {
    "name": "solc",
    "version": "0.8.21+commit.d9974bed.Emscripten.clang"
  },
  "schemaVersion": "3.4.16",
  "updatedAt": "2025-06-11T08:13:44.776Z",
  "devdoc": {
    "kind": "dev",
    "methods": {
      "transferOwnership(address)": {
        "details": "Allows the current owner to transfer control of the contract to a newOwner.",
        "params": {
          "newOwner": "The address to transfer ownership to."
        }
      }
    },
    "version": 1
  },
  "userdoc": {
    "kind": "user",
    "methods": {},
    "version": 1
  }
}