{
  "contractName": "ZombieMarket",
  "abi": [
    {
      "anonymous": false,
      "inputs": [
        {
          "indexed": true,
          "internalType": "address",
          "name": "_owner",
          "type": "address"
        },
        {
          "indexed": true,
          "internalType": "address",
          "name": "_approved",
          "type": "address"
        },
        {
          "indexed": false,
          "internalType": "uint256",
          "name": "_tokenId",
          "type": "uint256"
        }
      ],
      "name": "Approval",
      "type": "event"
    },
    {
      "anonymous": false,
      "inputs": [
        {
          "indexed": true,
          "internalType": "uint256",
          "name": "zombieId",
          "type": "uint256"
        },
        {
          "indexed": true,
          "internalType": "address",
          "name": "buyer",
          "type": "address"
        },
        {
          "indexed": true,
          "internalType": "address",
          "name": "seller",
          "type": "address"
        }
      ],
      "name": "BuyShopZombie",
      "type": "event"
    },
    {
      "anonymous": false,
      "inputs": [
        {
          "indexed": false,
          "internalType": "uint256",
          "name": "zombieId",
          "type": "uint256"
        },
        {
          "indexed": false,
          "internalType": "string",
          "name": "name",
          "type": "string"
        },
        {
          "indexed": false,
          "internalType": "uint256",
          "name": "dna",
          "type": "uint256"
        }
      ],
      "name": "NewZombie",
      "type": "event"
    },
    {
      "anonymous": false,
      "inputs": [
        {
          "indexed": true,
          "internalType": "address",
          "name": "previousOwner",
          "type": "address"
        },
        {
          "indexed": true,
          "internalType": "address",
          "name": "newOwner",
          "type": "address"
        }
      ],
      "name": "OwnershipTransferred",
      "type": "event"
    },
    {
      "anonymous": false,
      "inputs": [
        {
          "indexed": true,
          "internalType": "uint256",
          "name": "zombieId",
          "type": "uint256"
        },
        {
          "indexed": true,
          "internalType": "address",
          "name": "seller",
          "type": "address"
        }
      ],
      "name": "SaleZombie",
      "type": "event"
    },
    {
      "anonymous": false,
      "inputs": [
        {
          "indexed": true,
          "internalType": "address",
          "name": "_from",
          "type": "address"
        },
        {
          "indexed": true,
          "internalType": "address",
          "name": "_to",
          "type": "address"
        },
        {
          "indexed": false,
          "internalType": "uint256",
          "name": "_tokenId",
          "type": "uint256"
        }
      ],
      "name": "Transfer",
      "type": "event"
    },
    {
      "inputs": [
        {
          "internalType": "address",
          "name": "_to",
          "type": "address"
        },
        {
          "internalType": "uint256",
          "name": "_tokenId",
          "type": "uint256"
        }
      ],
      "name": "approve",
      "outputs": [],
      "stateMutability": "nonpayable",
      "type": "function"
    },
    {
      "inputs": [
        {
          "internalType": "address",
          "name": "_owner",
          "type": "address"
        }
      ],
      "name": "balanceOf",
      "outputs": [
        {
          "internalType": "uint256",
          "name": "_balance",
          "type": "uint256"
        }
      ],
      "stateMutability": "view",
      "type": "function"
    },
    {
      "inputs": [
        {
          "internalType": "string",
          "name": "_name",
          "type": "string"
        }
      ],
      "name": "buyZombie",
      "outputs": [],
      "stateMutability": "payable",
      "type": "function"
    },
    {
      "inputs": [
        {
          "internalType": "uint256",
          "name": "_zombieId",
          "type": "uint256"
        },
        {
          "internalType": "string",
          "name": "_newName",
          "type": "string"
        }
      ],
      "name": "changeName",
      "outputs": [],
      "stateMutability": "nonpayable",
      "type": "function"
    },
    {
      "inputs": [],
      "name": "cooldownTime",
      "outputs": [
        {
          "internalType": "uint256",
          "name": "",
          "type": "uint256"
        }
      ],
      "stateMutability": "view",
      "type": "function"
    },
    {
      "inputs": [
        {
          "internalType": "string",
          "name": "_name",
          "type": "string"
        }
      ],
      "name": "createZombie",
      "outputs": [],
      "stateMutability": "nonpayable",
      "type": "function"
    },
    {
      "inputs": [
        {
          "internalType": "address",
          "name": "_owner",
          "type": "address"
        }
      ],
      "name": "getZombiesByOwner",
      "outputs": [
        {
          "internalType": "uint256[]",
          "name": "",
          "type": "uint256[]"
        }
      ],
      "stateMutability": "view",
      "type": "function"
    },
    {
      "inputs": [
        {
          "internalType": "uint256",
          "name": "_zombieId",
          "type": "uint256"
        }
      ],
      "name": "levelUp",
      "outputs": [],
      "stateMutability": "payable",
      "type": "function"
    },
    {
      "inputs": [],
      "name": "levelUpFee",
      "outputs": [
        {
          "internalType": "uint256",
          "name": "",
          "type": "uint256"
        }
      ],
      "stateMutability": "view",
      "type": "function"
    },
    {
      "inputs": [],
      "name": "minPrice",
      "outputs": [
        {
          "internalType": "uint256",
          "name": "",
          "type": "uint256"
        }
      ],
      "stateMutability": "view",
      "type": "function"
    },
    {
      "inputs": [],
      "name": "owner",
      "outputs": [
        {
          "internalType": "address payable",
          "name": "",
          "type": "address"
        }
      ],
      "stateMutability": "view",
      "type": "function"
    },
    {
      "inputs": [
        {
          "internalType": "uint256",
          "name": "_tokenId",
          "type": "uint256"
        }
      ],
      "name": "ownerOf",
      "outputs": [
        {
          "internalType": "address",
          "name": "_owner",
          "type": "address"
        }
      ],
      "stateMutability": "view",
      "type": "function"
    },
    {
      "inputs": [
        {
          "internalType": "uint256",
          "name": "_fee",
          "type": "uint256"
        }
      ],
      "name": "setLevelUpFee",
      "outputs": [],
      "stateMutability": "nonpayable",
      "type": "function"
    },
    {
      "inputs": [
        {
          "internalType": "uint256",
          "name": "_price",
          "type": "uint256"
        }
      ],
      "name": "setZombiePrice",
      "outputs": [],
      "stateMutability": "nonpayable",
      "type": "function"
    },
    {
      "inputs": [
        {
          "internalType": "uint256",
          "name": "_tokenId",
          "type": "uint256"
        }
      ],
      "name": "takeOwnership",
      "outputs": [],
      "stateMutability": "nonpayable",
      "type": "function"
    },
    {
      "inputs": [],
      "name": "tax",
      "outputs": [
        {
          "internalType": "uint256",
          "name": "",
          "type": "uint256"
        }
      ],
      "stateMutability": "view",
      "type": "function"
    },
    {
      "inputs": [
        {
          "internalType": "address",
          "name": "_to",
          "type": "address"
        },
        {
          "internalType": "uint256",
          "name": "_tokenId",
          "type": "uint256"
        }
      ],
      "name": "transfer",
      "outputs": [],
      "stateMutability": "nonpayable",
      "type": "function"
    },
    {
      "inputs": [
        {
          "internalType": "address payable",
          "name": "newOwner",
          "type": "address"
        }
      ],
      "name": "transferOwnership",
      "outputs": [],
      "stateMutability": "nonpayable",
      "type": "function"
    },
    {
      "inputs": [],
      "name": "zombieCount",
      "outputs": [
        {
          "internalType": "uint256",
          "name": "",
          "type": "uint256"
        }
      ],
      "stateMutability": "view",
      "type": "function"
    },
    {
      "inputs": [
        {
          "internalType": "uint256",
          "name": "",
          "type": "uint256"
        }
      ],
      "name": "zombieFeedTimes",
      "outputs": [
        {
          "internalType": "uint256",
          "name": "",
          "type": "uint256"
        }
      ],
      "stateMutability": "view",
      "type": "function"
    },
    {
      "inputs": [],
      "name": "zombiePrice",
      "outputs": [
        {
          "internalType": "uint256",
          "name": "",
          "type": "uint256"
        }
      ],
      "stateMutability": "view",
      "type": "function"
    },
    {
      "inputs": [
        {
          "internalType": "uint256",
          "name": "",
          "type": "uint256"
        }
      ],
      "name": "zombieShop",
      "outputs": [
        {
          "internalType": "address payable",
          "name": "seller",
          "type": "address"
        },
        {
          "internalType": "uint256",
          "name": "price",
          "type": "uint256"
        }
      ],
      "stateMutability": "view",
      "type": "function"
    },
    {
      "inputs": [
        {
          "internalType": "uint256",
          "name": "",
          "type": "uint256"
        }
      ],
      "name": "zombieToOwner",
      "outputs": [
        {
          "internalType": "address",
          "name": "",
          "type": "address"
        }
      ],
      "stateMutability": "view",
      "type": "function"
    },
    {
      "inputs": [
        {
          "internalType": "uint256",
          "name": "",
          "type": "uint256"
        }
      ],
      "name": "zombies",
      "outputs": [
        {
          "internalType": "string",
          "name": "name",
          "type": "string"
        },
        {
          "internalType": "uint256",
          "name": "dna",
          "type": "uint256"
        },
        {
          "internalType": "uint16",
          "name": "winCount",
          "type": "uint16"
        },
        {
          "internalType": "uint16",
          "name": "lossCount",
          "type": "uint16"
        },
        {
          "internalType": "uint32",
          "name": "level",
          "type": "uint32"
        },
        {
          "internalType": "uint32",
          "name": "readyTime",
          "type": "uint32"
        }
      ],
      "stateMutability": "view",
      "type": "function"
    },
    {
      "inputs": [
        {
          "internalType": "uint256",
          "name": "_zombieId",
          "type": "uint256"
        },
        {
          "internalType": "uint256",
          "name": "_price",
          "type": "uint256"
        }
      ],
      "name": "saleMyZombie",
      "outputs": [],
      "stateMutability": "nonpayable",
      "type": "function"
    },
    {
      "inputs": [
        {
          "internalType": "uint256",
          "name": "_zombieId",
          "type": "uint256"
        }
      ],
      "name": "buyShopZombie",
      "outputs": [],
      "stateMutability": "payable",
      "type": "function"
    },
    {
      "inputs": [],
      "name": "getShopZombies",
      "outputs": [
        {
          "internalType": "uint256[]",
          "name": "",
          "type": "uint256[]"
        }
      ],
      "stateMutability": "view",
      "type": "function"
    },
    {
      "inputs": [
        {
          "internalType": "uint256",
          "name": "_value",
          "type": "uint256"
        }
      ],
      "name": "setTax",
      "outputs": [],
      "stateMutability": "nonpayable",
      "type": "function"
    },
    {
      "inputs": [
        {
          "internalType": "uint256",
          "name": "_value",
          "type": "uint256"
        }
      ],
      "name": "setMinPrice",
      "outputs": [],
      "stateMutability": "nonpayable",
      "type": "function"
    }
  ],
  "bytecode": "0x60806040526010600155600154600a6200001a91906200022c565b60025562015180600355662386f26fc100006004555f60055566038d7ea4c68000600a55662386f26fc10000600e55662386f26fc10000600f5534801562000060575f80fd5b50335f806101000a81548173ffffffffffffffffffffffffffffffffffffffff021916908373ffffffffffffffffffffffffffffffffffffffff1602179055506200027c565b7f4e487b71000000000000000000000000000000000000000000000000000000005f52601160045260245ffd5b5f8160011c9050919050565b5f808291508390505b60018511156200013057808604811115620001085762000107620000a6565b5b6001851615620001185780820291505b80810290506200012885620000d3565b9450620000e8565b94509492505050565b5f826200014a57600190506200021c565b8162000159575f90506200021c565b81600181146200017257600281146200017d57620001b3565b60019150506200021c565b60ff841115620001925762000191620000a6565b5b8360020a915084821115620001ac57620001ab620000a6565b5b506200021c565b5060208310610133831016604e8410600b8410161715620001ed5782820a905083811115620001e757620001e6620000a6565b5b6200021c565b620001fc8484846001620000df565b92509050818404811115620002165762000215620000a6565b5b81810290505b9392505050565b5f819050919050565b5f620002388262000223565b9150620002458362000223565b9250620002747fffffffffffffffffffffffffffffffffffffffffffffffffffffffffffffffff848462000139565b905092915050565b612ed5806200028a5f395ff3fe6080604052600436106101c1575f3560e01c80638da5cb5b116100f6578063b3f0ddb911610094578063d521ef4311610063578063d521ef4314610615578063e45be8eb1461063d578063ef6ad18b14610667578063f2fde38b146106a3576101c1565b8063b3f0ddb91461057f578063c39cbef11461059b578063c4114b12146105c3578063ccf670f8146105ed576101c1565b8063ad822778116100d0578063ad822778146104dd578063b2e6ceeb14610505578063b319c6b71461052d578063b32c012d14610557576101c1565b80638da5cb5b1461046157806399c8d5561461048b578063a9059cbb146104b5576101c1565b8063528b7b8f1161016357806363721d6b1161013d57806363721d6b146103a75780636cc29f2e146103d157806370a08231146103fb57806383d404d814610437576101c1565b8063528b7b8f146103075780635ea8cd12146103435780636352211e1461036b576101c1565b8063208c750e1161019f578063208c750e1461024a5780632e5bb6ff146102665780634412e1041461028e57806345c6ba39146102ca576101c1565b8063095ea7b3146101c55780630ce90ec2146101ed5780632052465e14610209575b5f80fd5b3480156101d0575f80fd5b506101eb60048036038101906101e69190611f06565b6106cb565b005b61020760048036038101906102029190611f44565b610823565b005b348015610214575f80fd5b5061022f600480360381019061022a9190611f44565b61096c565b60405161024196959493929190612042565b60405180910390f35b610264600480360381019061025f9190611f44565b610a74565b005b348015610271575f80fd5b5061028c60048036038101906102879190611f44565b610c70565b005b348015610299575f80fd5b506102b460048036038101906102af91906120a8565b610d07565b6040516102c1919061218a565b60405180910390f35b3480156102d5575f80fd5b506102f060048036038101906102eb9190611f44565b610e52565b6040516102fe9291906121ca565b60405180910390f35b348015610312575f80fd5b5061032d60048036038101906103289190611f44565b610e91565b60405161033a9190612200565b60405180910390f35b34801561034e575f80fd5b5061036960048036038101906103649190611f44565b610ec1565b005b348015610376575f80fd5b50610391600480360381019061038c9190611f44565b610f58565b60405161039e9190612200565b60405180910390f35b3480156103b2575f80fd5b506103bb610f91565b6040516103c89190612219565b60405180910390f35b3480156103dc575f80fd5b506103e5610f97565b6040516103f2919061218a565b60405180910390f35b348015610406575f80fd5b50610421600480360381019061041c91906120a8565b61105d565b60405161042e9190612219565b60405180910390f35b348015610442575f80fd5b5061044b6110a3565b6040516104589190612219565b60405180910390f35b34801561046c575f80fd5b506104756110a9565b6040516104829190612232565b60405180910390f35b348015610496575f80fd5b5061049f6110cc565b6040516104ac9190612219565b60405180910390f35b3480156104c0575f80fd5b506104db60048036038101906104d69190611f06565b6110d2565b005b3480156104e8575f80fd5b5061050360048036038101906104fe9190612377565b611181565b005b348015610510575f80fd5b5061052b60048036038101906105269190611f44565b611234565b005b348015610538575f80fd5b506105416112ed565b60405161054e9190612219565b60405180910390f35b348015610562575f80fd5b5061057d600480360381019061057891906123be565b6112f3565b005b61059960048036038101906105949190612377565b6114cf565b005b3480156105a6575f80fd5b506105c160048036038101906105bc9190612459565b6115d2565b005b3480156105ce575f80fd5b506105d761172a565b6040516105e49190612219565b60405180910390f35b3480156105f8575f80fd5b50610613600480360381019061060e9190611f44565b611730565b005b348015610620575f80fd5b5061063b60048036038101906106369190611f44565b6117c7565b005b348015610648575f80fd5b5061065161185e565b60405161065e9190612219565b60405180910390f35b348015610672575f80fd5b5061068d60048036038101906106889190611f44565b611864565b60405161069a9190612219565b60405180910390f35b3480156106ae575f80fd5b506106c960048036038101906106c491906124e0565b611879565b005b8060075f8281526020019081526020015f205f9054906101000a900473ffffffffffffffffffffffffffffffffffffffff1673ffffffffffffffffffffffffffffffffffffffff163373ffffffffffffffffffffffffffffffffffffffff161461076a576040517f08c379a000000000000000000000000000000000000000000000000000000000815260040161076190612555565b60405180910390fd5b82600b5f8481526020019081526020015f205f6101000a81548173ffffffffffffffffffffffffffffffffffffffff021916908373ffffffffffffffffffffffffffffffffffffffff1602179055508273ffffffffffffffffffffffffffffffffffffffff163373ffffffffffffffffffffffffffffffffffffffff167f8c5be1e5ebec7d5bd14f71427d1e84f3dd0314c0f7b2291e5b200ac8c7c3b925846040516108169190612219565b60405180910390a3505050565b8060075f8281526020019081526020015f205f9054906101000a900473ffffffffffffffffffffffffffffffffffffffff1673ffffffffffffffffffffffffffffffffffffffff163373ffffffffffffffffffffffffffffffffffffffff16146108c2576040517f08c379a00000000000000000000000000000000000000000000000000000000081526004016108b990612555565b60405180910390fd5b600a543414610906576040517f08c379a00000000000000000000000000000000000000000000000000000000081526004016108fd906125bd565b60405180910390fd5b6006828154811061091a576109196125db565b5b905f5260205f209060030201600201600481819054906101000a900463ffffffff168092919061094990612635565b91906101000a81548163ffffffff021916908363ffffffff160217905550505050565b6006818154811061097b575f80fd5b905f5260205f2090600302015f91509050805f01805461099a9061268d565b80601f01602080910402602001604051908101604052809291908181526020018280546109c69061268d565b8015610a115780601f106109e857610100808354040283529160200191610a11565b820191905f5260205f20905b8154815290600101906020018083116109f457829003601f168201915b505050505090806001015490806002015f9054906101000a900461ffff16908060020160029054906101000a900461ffff16908060020160049054906101000a900463ffffffff16908060020160089054906101000a900463ffffffff16905086565b600c5f8281526020019081526020015f2060010154341015610acb576040517f08c379a0000000000000000000000000000000000000000000000000000000008152600401610ac2906125bd565b60405180910390fd5b610b08600c5f8381526020019081526020015f205f015f9054906101000a900473ffffffffffffffffffffffffffffffffffffffff163383611a2f565b600c5f8281526020019081526020015f205f015f9054906101000a900473ffffffffffffffffffffffffffffffffffffffff1673ffffffffffffffffffffffffffffffffffffffff166108fc600e5434610b6291906126bd565b90811502906040515f60405180830381858888f19350505050158015610b8a573d5f803e3d5ffd5b50600c5f8281526020019081526020015f205f8082015f6101000a81549073ffffffffffffffffffffffffffffffffffffffff0219169055600182015f905550506001600d54610bda91906126bd565b600d81905550600c5f8281526020019081526020015f205f015f9054906101000a900473ffffffffffffffffffffffffffffffffffffffff1673ffffffffffffffffffffffffffffffffffffffff163373ffffffffffffffffffffffffffffffffffffffff16827f2705da8f1145dc87c9e6b9aa3ecd69d3d64da132acba45c803563ad52f5c2b5f60405160405180910390a450565b5f8054906101000a900473ffffffffffffffffffffffffffffffffffffffff1673ffffffffffffffffffffffffffffffffffffffff163373ffffffffffffffffffffffffffffffffffffffff1614610cfd576040517f08c379a0000000000000000000000000000000000000000000000000000000008152600401610cf49061273a565b60405180910390fd5b80600e8190555050565b60605f60085f8473ffffffffffffffffffffffffffffffffffffffff1673ffffffffffffffffffffffffffffffffffffffff1681526020019081526020015f205467ffffffffffffffff811115610d6157610d60612253565b5b604051908082528060200260200182016040528015610d8f5781602001602082028036833780820191505090505b5090505f805b600680549050811015610e47578473ffffffffffffffffffffffffffffffffffffffff1660075f8381526020019081526020015f205f9054906101000a900473ffffffffffffffffffffffffffffffffffffffff1673ffffffffffffffffffffffffffffffffffffffff1603610e345780838381518110610e1957610e186125db565b5b6020026020010181815250508180610e3090612758565b9250505b8080610e3f90612758565b915050610d95565b508192505050919050565b600c602052805f5260405f205f91509050805f015f9054906101000a900473ffffffffffffffffffffffffffffffffffffffff16908060010154905082565b6007602052805f5260405f205f915054906101000a900473ffffffffffffffffffffffffffffffffffffffff1681565b5f8054906101000a900473ffffffffffffffffffffffffffffffffffffffff1673ffffffffffffffffffffffffffffffffffffffff163373ffffffffffffffffffffffffffffffffffffffff1614610f4e576040517f08c379a0000000000000000000000000000000000000000000000000000000008152600401610f459061273a565b60405180910390fd5b80600f8190555050565b5f60075f8381526020019081526020015f205f9054906101000a900473ffffffffffffffffffffffffffffffffffffffff169050919050565b60055481565b60605f600d5467ffffffffffffffff811115610fb657610fb5612253565b5b604051908082528060200260200182016040528015610fe45781602001602082028036833780820191505090505b5090505f805b600680549050811015611054575f600c5f8381526020019081526020015f2060010154146110415780838381518110611026576110256125db565b5b602002602001018181525050818061103d90612758565b9250505b808061104c90612758565b915050610fea565b50819250505090565b5f60085f8373ffffffffffffffffffffffffffffffffffffffff1673ffffffffffffffffffffffffffffffffffffffff1681526020019081526020015f20549050919050565b60045481565b5f8054906101000a900473ffffffffffffffffffffffffffffffffffffffff1681565b600e5481565b8060075f8281526020019081526020015f205f9054906101000a900473ffffffffffffffffffffffffffffffffffffffff1673ffffffffffffffffffffffffffffffffffffffff163373ffffffffffffffffffffffffffffffffffffffff1614611171576040517f08c379a000000000000000000000000000000000000000000000000000000000815260040161116890612555565b60405180910390fd5b61117c338484611a2f565b505050565b5f60085f3373ffffffffffffffffffffffffffffffffffffffff1673ffffffffffffffffffffffffffffffffffffffff1681526020019081526020015f205414611200576040517f08c379a00000000000000000000000000000000000000000000000000000000081526004016111f7906127e9565b60405180910390fd5b5f61120a82611bfe565b9050600a816112199190612834565b8161122491906126bd565b90506112308282611c3e565b5050565b3373ffffffffffffffffffffffffffffffffffffffff16600b5f8381526020019081526020015f205f9054906101000a900473ffffffffffffffffffffffffffffffffffffffff1673ffffffffffffffffffffffffffffffffffffffff16146112d2576040517f08c379a00000000000000000000000000000000000000000000000000000000081526004016112c9906128ae565b60405180910390fd5b5f6112dc82610f58565b90506112e9813384611a2f565b5050565b60035481565b8160075f8281526020019081526020015f205f9054906101000a900473ffffffffffffffffffffffffffffffffffffffff1673ffffffffffffffffffffffffffffffffffffffff163373ffffffffffffffffffffffffffffffffffffffff1614611392576040517f08c379a000000000000000000000000000000000000000000000000000000000815260040161138990612555565b60405180910390fd5b600e54600f546113a291906128cc565b8210156113e4576040517f08c379a00000000000000000000000000000000000000000000000000000000081526004016113db90612949565b60405180910390fd5b60405180604001604052803373ffffffffffffffffffffffffffffffffffffffff16815260200183815250600c5f8581526020019081526020015f205f820151815f015f6101000a81548173ffffffffffffffffffffffffffffffffffffffff021916908373ffffffffffffffffffffffffffffffffffffffff160217905550602082015181600101559050506001600d5461148091906128cc565b600d819055503373ffffffffffffffffffffffffffffffffffffffff16837f8255874bbfafedc95b8c7b0748890e52f2b7ce1f677df50d51a25a9843b8ff4960405160405180910390a3505050565b5f60085f3373ffffffffffffffffffffffffffffffffffffffff1673ffffffffffffffffffffffffffffffffffffffff1681526020019081526020015f20541161154e576040517f08c379a0000000000000000000000000000000000000000000000000000000008152600401611545906129b1565b60405180910390fd5b6004543411611592576040517f08c379a000000000000000000000000000000000000000000000000000000000815260040161158990612a19565b60405180910390fd5b5f61159c82611bfe565b90506001600a826115ad9190612834565b826115b891906126bd565b6115c291906128cc565b90506115ce8282611c3e565b5050565b60028381600682815481106115ea576115e96125db565b5b905f5260205f20906003020160020160049054906101000a900463ffffffff1663ffffffff161015611651576040517f08c379a000000000000000000000000000000000000000000000000000000000815260040161164890612a81565b60405180910390fd5b8460075f8281526020019081526020015f205f9054906101000a900473ffffffffffffffffffffffffffffffffffffffff1673ffffffffffffffffffffffffffffffffffffffff163373ffffffffffffffffffffffffffffffffffffffff16146116f0576040517f08c379a00000000000000000000000000000000000000000000000000000000081526004016116e790612555565b60405180910390fd5b848460068881548110611706576117056125db565b5b905f5260205f2090600302015f019182611721929190612c46565b50505050505050565b600a5481565b5f8054906101000a900473ffffffffffffffffffffffffffffffffffffffff1673ffffffffffffffffffffffffffffffffffffffff163373ffffffffffffffffffffffffffffffffffffffff16146117bd576040517f08c379a00000000000000000000000000000000000000000000000000000000081526004016117b49061273a565b60405180910390fd5b80600a8190555050565b5f8054906101000a900473ffffffffffffffffffffffffffffffffffffffff1673ffffffffffffffffffffffffffffffffffffffff163373ffffffffffffffffffffffffffffffffffffffff1614611854576040517f08c379a000000000000000000000000000000000000000000000000000000000815260040161184b9061273a565b60405180910390fd5b8060048190555050565b600f5481565b6009602052805f5260405f205f915090505481565b5f8054906101000a900473ffffffffffffffffffffffffffffffffffffffff1673ffffffffffffffffffffffffffffffffffffffff163373ffffffffffffffffffffffffffffffffffffffff1614611906576040517f08c379a00000000000000000000000000000000000000000000000000000000081526004016118fd9061273a565b60405180910390fd5b5f73ffffffffffffffffffffffffffffffffffffffff168173ffffffffffffffffffffffffffffffffffffffff1603611974576040517f08c379a000000000000000000000000000000000000000000000000000000000815260040161196b9061273a565b60405180910390fd5b8073ffffffffffffffffffffffffffffffffffffffff165f8054906101000a900473ffffffffffffffffffffffffffffffffffffffff1673ffffffffffffffffffffffffffffffffffffffff167f8be0079c531659141344cd1fd0a4f28419497f9722a3daafe3b4186f6b6457e060405160405180910390a3805f806101000a81548173ffffffffffffffffffffffffffffffffffffffff021916908373ffffffffffffffffffffffffffffffffffffffff16021790555050565b600160085f8473ffffffffffffffffffffffffffffffffffffffff1673ffffffffffffffffffffffffffffffffffffffff1681526020019081526020015f2054611a7991906128cc565b60085f8473ffffffffffffffffffffffffffffffffffffffff1673ffffffffffffffffffffffffffffffffffffffff1681526020019081526020015f2081905550600160085f8573ffffffffffffffffffffffffffffffffffffffff1673ffffffffffffffffffffffffffffffffffffffff1681526020019081526020015f2054611b0491906126bd565b60085f8573ffffffffffffffffffffffffffffffffffffffff1673ffffffffffffffffffffffffffffffffffffffff1681526020019081526020015f20819055508160075f8381526020019081526020015f205f6101000a81548173ffffffffffffffffffffffffffffffffffffffff021916908373ffffffffffffffffffffffffffffffffffffffff1602179055508173ffffffffffffffffffffffffffffffffffffffff168373ffffffffffffffffffffffffffffffffffffffff167fddf252ad1be2c89b69c2b068fc378daa952ba7f163c4a11628f55a4df523b3ef83604051611bf19190612219565b60405180910390a3505050565b5f6002548242604051602001611c15929190612d6d565b604051602081830303815290604052805190602001205f1c611c379190612834565b9050919050565b60066040518060c001604052808481526020018381526020015f61ffff1681526020015f61ffff168152602001600163ffffffff1681526020015f63ffffffff16815250908060018154018082558091505060019003905f5260205f2090600302015f909190919091505f820151815f019081611cbb9190612d94565b50602082015181600101556040820151816002015f6101000a81548161ffff021916908361ffff16021790555060608201518160020160026101000a81548161ffff021916908361ffff16021790555060808201518160020160046101000a81548163ffffffff021916908363ffffffff16021790555060a08201518160020160086101000a81548163ffffffff021916908363ffffffff16021790555050505f6001600680549050611d6e91906126bd565b90503360075f8381526020019081526020015f205f6101000a81548173ffffffffffffffffffffffffffffffffffffffff021916908373ffffffffffffffffffffffffffffffffffffffff16021790555060085f3373ffffffffffffffffffffffffffffffffffffffff1673ffffffffffffffffffffffffffffffffffffffff1681526020019081526020015f205f815480929190611e0c90612758565b919050555060055f815480929190611e2390612758565b91905055507f88f026aacbbecc90c18411df4b1185fd8d9be2470f1962f192bf84a27d0704b7818484604051611e5b93929190612e63565b60405180910390a1505050565b5f604051905090565b5f80fd5b5f80fd5b5f73ffffffffffffffffffffffffffffffffffffffff82169050919050565b5f611ea282611e79565b9050919050565b611eb281611e98565b8114611ebc575f80fd5b50565b5f81359050611ecd81611ea9565b92915050565b5f819050919050565b611ee581611ed3565b8114611eef575f80fd5b50565b5f81359050611f0081611edc565b92915050565b5f8060408385031215611f1c57611f1b611e71565b5b5f611f2985828601611ebf565b9250506020611f3a85828601611ef2565b9150509250929050565b5f60208284031215611f5957611f58611e71565b5b5f611f6684828501611ef2565b91505092915050565b5f81519050919050565b5f82825260208201905092915050565b5f5b83811015611fa6578082015181840152602081019050611f8b565b5f8484015250505050565b5f601f19601f8301169050919050565b5f611fcb82611f6f565b611fd58185611f79565b9350611fe5818560208601611f89565b611fee81611fb1565b840191505092915050565b61200281611ed3565b82525050565b5f61ffff82169050919050565b61201e81612008565b82525050565b5f63ffffffff82169050919050565b61203c81612024565b82525050565b5f60c0820190508181035f83015261205a8189611fc1565b90506120696020830188611ff9565b6120766040830187612015565b6120836060830186612015565b6120906080830185612033565b61209d60a0830184612033565b979650505050505050565b5f602082840312156120bd576120bc611e71565b5b5f6120ca84828501611ebf565b91505092915050565b5f81519050919050565b5f82825260208201905092915050565b5f819050602082019050919050565b61210581611ed3565b82525050565b5f61211683836120fc565b60208301905092915050565b5f602082019050919050565b5f612138826120d3565b61214281856120dd565b935061214d836120ed565b805f5b8381101561217d578151612164888261210b565b975061216f83612122565b925050600181019050612150565b5085935050505092915050565b5f6020820190508181035f8301526121a2818461212e565b905092915050565b5f6121b482611e79565b9050919050565b6121c4816121aa565b82525050565b5f6040820190506121dd5f8301856121bb565b6121ea6020830184611ff9565b9392505050565b6121fa81611e98565b82525050565b5f6020820190506122135f8301846121f1565b92915050565b5f60208201905061222c5f830184611ff9565b92915050565b5f6020820190506122455f8301846121bb565b92915050565b5f80fd5b5f80fd5b7f4e487b71000000000000000000000000000000000000000000000000000000005f52604160045260245ffd5b61228982611fb1565b810181811067ffffffffffffffff821117156122a8576122a7612253565b5b80604052505050565b5f6122ba611e68565b90506122c68282612280565b919050565b5f67ffffffffffffffff8211156122e5576122e4612253565b5b6122ee82611fb1565b9050602081019050919050565b828183375f83830152505050565b5f61231b612316846122cb565b6122b1565b9050828152602081018484840111156123375761233661224f565b5b6123428482856122fb565b509392505050565b5f82601f83011261235e5761235d61224b565b5b813561236e848260208601612309565b91505092915050565b5f6020828403121561238c5761238b611e71565b5b5f82013567ffffffffffffffff8111156123a9576123a8611e75565b5b6123b58482850161234a565b91505092915050565b5f80604083850312156123d4576123d3611e71565b5b5f6123e185828601611ef2565b92505060206123f285828601611ef2565b9150509250929050565b5f80fd5b5f80fd5b5f8083601f8401126124195761241861224b565b5b8235905067ffffffffffffffff811115612436576124356123fc565b5b60208301915083600182028301111561245257612451612400565b5b9250929050565b5f805f604084860312156124705761246f611e71565b5b5f61247d86828701611ef2565b935050602084013567ffffffffffffffff81111561249e5761249d611e75565b5b6124aa86828701612404565b92509250509250925092565b6124bf816121aa565b81146124c9575f80fd5b50565b5f813590506124da816124b6565b92915050565b5f602082840312156124f5576124f4611e71565b5b5f612502848285016124cc565b91505092915050565b7f5a6f6d626965206973206e6f7420796f757273000000000000000000000000005f82015250565b5f61253f601383611f79565b915061254a8261250b565b602082019050919050565b5f6020820190508181035f83015261256c81612533565b9050919050565b7f4e6f20656e6f756768206d6f6e657900000000000000000000000000000000005f82015250565b5f6125a7600f83611f79565b91506125b282612573565b602082019050919050565b5f6020820190508181035f8301526125d48161259b565b9050919050565b7f4e487b71000000000000000000000000000000000000000000000000000000005f52603260045260245ffd5b7f4e487b71000000000000000000000000000000000000000000000000000000005f52601160045260245ffd5b5f61263f82612024565b915063ffffffff820361265557612654612608565b5b600182019050919050565b7f4e487b71000000000000000000000000000000000000000000000000000000005f52602260045260245ffd5b5f60028204905060018216806126a457607f821691505b6020821081036126b7576126b6612660565b5b50919050565b5f6126c782611ed3565b91506126d283611ed3565b92508282039050818111156126ea576126e9612608565b5b92915050565b7f4d75737420636f6e7472616374206f776e6572000000000000000000000000005f82015250565b5f612724601383611f79565b915061272f826126f0565b602082019050919050565b5f6020820190508181035f83015261275181612718565b9050919050565b5f61276282611ed3565b91507fffffffffffffffffffffffffffffffffffffffffffffffffffffffffffffffff820361279457612793612608565b5b600182019050919050565b7f7a6f6d626965206973206d6f72650000000000000000000000000000000000005f82015250565b5f6127d3600e83611f79565b91506127de8261279f565b602082019050919050565b5f6020820190508181035f830152612800816127c7565b9050919050565b7f4e487b71000000000000000000000000000000000000000000000000000000005f52601260045260245ffd5b5f61283e82611ed3565b915061284983611ed3565b92508261285957612858612807565b5b828206905092915050565b7f617070726f206973206e6f74206d6174636800000000000000000000000000005f82015250565b5f612898601283611f79565b91506128a382612864565b602082019050919050565b5f6020820190508181035f8301526128c58161288c565b9050919050565b5f6128d682611ed3565b91506128e183611ed3565b92508282019050808211156128f9576128f8612608565b5b92915050565b7f596f7572207072696365206d757374203e206d696e50726963652b74617800005f82015250565b5f612933601e83611f79565b915061293e826128ff565b602082019050919050565b5f6020820190508181035f83015261296081612927565b9050919050565b7f7a6f6d626965206d757374207468616e207a65726f00000000000000000000005f82015250565b5f61299b601583611f79565b91506129a682612967565b602082019050919050565b5f6020820190508181035f8301526129c88161298f565b9050919050565b7f7072696365206c657373000000000000000000000000000000000000000000005f82015250565b5f612a03600a83611f79565b9150612a0e826129cf565b602082019050919050565b5f6020820190508181035f830152612a30816129f7565b9050919050565b7f4c6576656c206973206e6f742073756666696369656e740000000000000000005f82015250565b5f612a6b601783611f79565b9150612a7682612a37565b602082019050919050565b5f6020820190508181035f830152612a9881612a5f565b9050919050565b5f82905092915050565b5f819050815f5260205f209050919050565b5f6020601f8301049050919050565b5f82821b905092915050565b5f60088302612b057fffffffffffffffffffffffffffffffffffffffffffffffffffffffffffffffff82612aca565b612b0f8683612aca565b95508019841693508086168417925050509392505050565b5f819050919050565b5f612b4a612b45612b4084611ed3565b612b27565b611ed3565b9050919050565b5f819050919050565b612b6383612b30565b612b77612b6f82612b51565b848454612ad6565b825550505050565b5f90565b612b8b612b7f565b612b96818484612b5a565b505050565b5b81811015612bb957612bae5f82612b83565b600181019050612b9c565b5050565b601f821115612bfe57612bcf81612aa9565b612bd884612abb565b81016020851015612be7578190505b612bfb612bf385612abb565b830182612b9b565b50505b505050565b5f82821c905092915050565b5f612c1e5f1984600802612c03565b1980831691505092915050565b5f612c368383612c0f565b9150826002028217905092915050565b612c508383612a9f565b67ffffffffffffffff811115612c6957612c68612253565b5b612c73825461268d565b612c7e828285612bbd565b5f601f831160018114612cab575f8415612c99578287013590505b612ca38582612c2b565b865550612d0a565b601f198416612cb986612aa9565b5f5b82811015612ce057848901358255600182019150602085019450602081019050612cbb565b86831015612cfd5784890135612cf9601f891682612c0f565b8355505b6001600288020188555050505b50505050505050565b5f81905092915050565b5f612d2782611f6f565b612d318185612d13565b9350612d41818560208601611f89565b80840191505092915050565b5f819050919050565b612d67612d6282611ed3565b612d4d565b82525050565b5f612d788285612d1d565b9150612d848284612d56565b6020820191508190509392505050565b612d9d82611f6f565b67ffffffffffffffff811115612db657612db5612253565b5b612dc0825461268d565b612dcb828285612bbd565b5f60209050601f831160018114612dfc575f8415612dea578287015190505b612df48582612c2b565b865550612e5b565b601f198416612e0a86612aa9565b5f5b82811015612e3157848901518255600182019150602085019450602081019050612e0c565b86831015612e4e5784890151612e4a601f891682612c0f565b8355505b6001600288020188555050505b505050505050565b5f606082019050612e765f830186611ff9565b8181036020830152612e888185611fc1565b9050612e976040830184611ff9565b94935050505056fea2646970667358221220f274170ff4a3f5975d2b960c6e9c9aa04390a398a8e306628b1368bf6d45e31b64736f6c63430008150033",
  "immutableReferences": {},
  "source": "// SPDX-License-Identifier: MIT\npragma solidity ^0.8.21;\n\nimport \"./zombieOwnership.sol\";\n//\ncontract ZombieMarket is ZombieOwnership {\n    //\n    struct zombieSales{\n        address payable seller;\n        uint price;\n    }\n    //\n    mapping(uint=>zombieSales) public zombieShop;\n    //\n    uint shopZombieCount;\n    //\n    uint public tax = 0.01 ether;\n    //\n    uint public minPrice = 0.01 ether;\n    //\n    event SaleZombie(uint indexed zombieId,address indexed seller);\n    //\n    event BuyShopZombie(uint indexed zombieId,address indexed buyer,address indexed seller);\n    //\n    function saleMyZombie(uint _zombieId,uint _price)public onlyOwnerOf(_zombieId){\n        require(_price>=minPrice+tax,'Your price must > minPrice+tax');\n        zombieShop[_zombieId] = zombieSales(payable(msg.sender),_price);\n        shopZombieCount = shopZombieCount+1;\n        emit SaleZombie(_zombieId,msg.sender);\n    }\n    //\n    function buyShopZombie(uint _zombieId)public payable{\n        require(msg.value >= zombieShop[_zombieId].price,'No enough money');\n        //\n        _transfer(zombieShop[_zombieId].seller,msg.sender, _zombieId);\n        zombieShop[_zombieId].seller.transfer(msg.value - tax);\n        //\n        delete zombieShop[_zombieId];\n        //\n        shopZombieCount = shopZombieCount-1;\n        //\n        emit BuyShopZombie(_zombieId,msg.sender,zombieShop[_zombieId].seller);\n    }\n    //id\n    function getShopZombies() external view returns(uint[] memory) {\n        uint[] memory result = new uint[](shopZombieCount);\n        uint counter = 0;\n        for (uint i = 0; i < zombies.length; i++) {\n            if (zombieShop[i].price != 0) {\n                result[counter] = i;\n                counter++;\n            }\n        }\n        return result;\n    }\n    //\n    function setTax(uint _value)public onlyOwner{\n        tax = _value;\n    }\n    //\n    function setMinPrice(uint _value)public onlyOwner{\n        minPrice = _value;\n    }\n}\n",
  "sourcePath": "/Users/zhou/project/corpse/contracts/zombieMarket.sol",
  "compiler": {
    "name": "solc",
    "version": "0.8.21+commit.d9974bed.Emscripten.clang"
  },
  "schemaVersion": "3.4.16",
  "updatedAt": "2025-06-11T08:13:44.788Z",
  "devdoc": {
    "kind": "dev",
    "methods": {
      "transferOwnership(address)": {
        "details": "Allows the current owner to transfer control of the contract to a newOwner.",
        "params": {
          "newOwner": "The address to transfer ownership to."
        }
      }
    },
    "version": 1
  },
  "userdoc": {
    "kind": "user",
    "methods": {},
    "version": 1
  }
}