{
  "contractName": "ZombieHelper",
  "abi": [
    {
      "anonymous": false,
      "inputs": [
        {
          "indexed": false,
          "internalType": "uint256",
          "name": "zombieId",
          "type": "uint256"
        },
        {
          "indexed": false,
          "internalType": "string",
          "name": "name",
          "type": "string"
        },
        {
          "indexed": false,
          "internalType": "uint256",
          "name": "dna",
          "type": "uint256"
        }
      ],
      "name": "NewZombie",
      "type": "event"
    },
    {
      "anonymous": false,
      "inputs": [
        {
          "indexed": true,
          "internalType": "address",
          "name": "previousOwner",
          "type": "address"
        },
        {
          "indexed": true,
          "internalType": "address",
          "name": "newOwner",
          "type": "address"
        }
      ],
      "name": "OwnershipTransferred",
      "type": "event"
    },
    {
      "inputs": [
        {
          "internalType": "string",
          "name": "_name",
          "type": "string"
        }
      ],
      "name": "buyZombie",
      "outputs": [],
      "stateMutability": "payable",
      "type": "function"
    },
    {
      "inputs": [],
      "name": "cooldownTime",
      "outputs": [
        {
          "internalType": "uint256",
          "name": "",
          "type": "uint256"
        }
      ],
      "stateMutability": "view",
      "type": "function"
    },
    {
      "inputs": [
        {
          "internalType": "string",
          "name": "_name",
          "type": "string"
        }
      ],
      "name": "createZombie",
      "outputs": [],
      "stateMutability": "nonpayable",
      "type": "function"
    },
    {
      "inputs": [],
      "name": "levelUpFee",
      "outputs": [
        {
          "internalType": "uint256",
          "name": "",
          "type": "uint256"
        }
      ],
      "stateMutability": "view",
      "type": "function"
    },
    {
      "inputs": [],
      "name": "owner",
      "outputs": [
        {
          "internalType": "address payable",
          "name": "",
          "type": "address"
        }
      ],
      "stateMutability": "view",
      "type": "function"
    },
    {
      "inputs": [
        {
          "internalType": "uint256",
          "name": "_price",
          "type": "uint256"
        }
      ],
      "name": "setZombiePrice",
      "outputs": [],
      "stateMutability": "nonpayable",
      "type": "function"
    },
    {
      "inputs": [
        {
          "internalType": "address payable",
          "name": "newOwner",
          "type": "address"
        }
      ],
      "name": "transferOwnership",
      "outputs": [],
      "stateMutability": "nonpayable",
      "type": "function"
    },
    {
      "inputs": [],
      "name": "zombieCount",
      "outputs": [
        {
          "internalType": "uint256",
          "name": "",
          "type": "uint256"
        }
      ],
      "stateMutability": "view",
      "type": "function"
    },
    {
      "inputs": [
        {
          "internalType": "uint256",
          "name": "",
          "type": "uint256"
        }
      ],
      "name": "zombieFeedTimes",
      "outputs": [
        {
          "internalType": "uint256",
          "name": "",
          "type": "uint256"
        }
      ],
      "stateMutability": "view",
      "type": "function"
    },
    {
      "inputs": [],
      "name": "zombiePrice",
      "outputs": [
        {
          "internalType": "uint256",
          "name": "",
          "type": "uint256"
        }
      ],
      "stateMutability": "view",
      "type": "function"
    },
    {
      "inputs": [
        {
          "internalType": "uint256",
          "name": "",
          "type": "uint256"
        }
      ],
      "name": "zombieToOwner",
      "outputs": [
        {
          "internalType": "address",
          "name": "",
          "type": "address"
        }
      ],
      "stateMutability": "view",
      "type": "function"
    },
    {
      "inputs": [
        {
          "internalType": "uint256",
          "name": "",
          "type": "uint256"
        }
      ],
      "name": "zombies",
      "outputs": [
        {
          "internalType": "string",
          "name": "name",
          "type": "string"
        },
        {
          "internalType": "uint256",
          "name": "dna",
          "type": "uint256"
        },
        {
          "internalType": "uint16",
          "name": "winCount",
          "type": "uint16"
        },
        {
          "internalType": "uint16",
          "name": "lossCount",
          "type": "uint16"
        },
        {
          "internalType": "uint32",
          "name": "level",
          "type": "uint32"
        },
        {
          "internalType": "uint32",
          "name": "readyTime",
          "type": "uint32"
        }
      ],
      "stateMutability": "view",
      "type": "function"
    },
    {
      "inputs": [
        {
          "internalType": "uint256",
          "name": "_fee",
          "type": "uint256"
        }
      ],
      "name": "setLevelUpFee",
      "outputs": [],
      "stateMutability": "nonpayable",
      "type": "function"
    },
    {
      "inputs": [
        {
          "internalType": "uint256",
          "name": "_zombieId",
          "type": "uint256"
        }
      ],
      "name": "levelUp",
      "outputs": [],
      "stateMutability": "payable",
      "type": "function"
    },
    {
      "inputs": [
        {
          "internalType": "uint256",
          "name": "_zombieId",
          "type": "uint256"
        },
        {
          "internalType": "string",
          "name": "_newName",
          "type": "string"
        }
      ],
      "name": "changeName",
      "outputs": [],
      "stateMutability": "nonpayable",
      "type": "function"
    },
    {
      "inputs": [
        {
          "internalType": "address",
          "name": "_owner",
          "type": "address"
        }
      ],
      "name": "getZombiesByOwner",
      "outputs": [
        {
          "internalType": "uint256[]",
          "name": "",
          "type": "uint256[]"
        }
      ],
      "stateMutability": "view",
      "type": "function"
    }
  ],
  "bytecode": "0x60806040526010600155600154600a6200001a919062000216565b60025562015180600355662386f26fc100006004555f60055566038d7ea4c68000600a553480156200004a575f80fd5b50335f806101000a81548173ffffffffffffffffffffffffffffffffffffffff021916908373ffffffffffffffffffffffffffffffffffffffff16021790555062000266565b7f4e487b71000000000000000000000000000000000000000000000000000000005f52601160045260245ffd5b5f8160011c9050919050565b5f808291508390505b60018511156200011a57808604811115620000f257620000f162000090565b5b6001851615620001025780820291505b80810290506200011285620000bd565b9450620000d2565b94509492505050565b5f8262000134576001905062000206565b8162000143575f905062000206565b81600181146200015c576002811462000167576200019d565b600191505062000206565b60ff8411156200017c576200017b62000090565b5b8360020a91508482111562000196576200019562000090565b5b5062000206565b5060208310610133831016604e8410600b8410161715620001d75782820a905083811115620001d157620001d062000090565b5b62000206565b620001e68484846001620000c9565b925090508184048111156200020057620001ff62000090565b5b81810290505b9392505050565b5f819050919050565b5f62000222826200020d565b91506200022f836200020d565b92506200025e7fffffffffffffffffffffffffffffffffffffffffffffffffffffffffffffffff848462000123565b905092915050565b611f2f80620002745f395ff3fe6080604052600436106100f2575f3560e01c8063b319c6b711610089578063ccf670f811610058578063ccf670f814610309578063d521ef4314610331578063ef6ad18b14610359578063f2fde38b14610395576100f2565b8063b319c6b714610271578063b3f0ddb91461029b578063c39cbef1146102b7578063c4114b12146102df576100f2565b806363721d6b116100c557806363721d6b146101cb57806383d404d8146101f55780638da5cb5b1461021f578063ad82277814610249576100f2565b80630ce90ec2146100f65780632052465e146101125780634412e10414610153578063528b7b8f1461018f575b5f80fd5b610110600480360381019061010b9190611079565b6103bd565b005b34801561011d575f80fd5b5061013860048036038101906101339190611079565b610506565b60405161014a96959493929190611177565b60405180910390f35b34801561015e575f80fd5b5061017960048036038101906101749190611237565b61060e565b6040516101869190611319565b60405180910390f35b34801561019a575f80fd5b506101b560048036038101906101b09190611079565b610759565b6040516101c29190611348565b60405180910390f35b3480156101d6575f80fd5b506101df610789565b6040516101ec9190611361565b60405180910390f35b348015610200575f80fd5b5061020961078f565b6040516102169190611361565b60405180910390f35b34801561022a575f80fd5b50610233610795565b604051610240919061139a565b60405180910390f35b348015610254575f80fd5b5061026f600480360381019061026a91906114df565b6107b8565b005b34801561027c575f80fd5b5061028561086b565b6040516102929190611361565b60405180910390f35b6102b560048036038101906102b091906114df565b610871565b005b3480156102c2575f80fd5b506102dd60048036038101906102d89190611583565b610974565b005b3480156102ea575f80fd5b506102f3610acc565b6040516103009190611361565b60405180910390f35b348015610314575f80fd5b5061032f600480360381019061032a9190611079565b610ad2565b005b34801561033c575f80fd5b5061035760048036038101906103529190611079565b610b69565b005b348015610364575f80fd5b5061037f600480360381019061037a9190611079565b610c00565b60405161038c9190611361565b60405180910390f35b3480156103a0575f80fd5b506103bb60048036038101906103b6919061160a565b610c15565b005b8060075f8281526020019081526020015f205f9054906101000a900473ffffffffffffffffffffffffffffffffffffffff1673ffffffffffffffffffffffffffffffffffffffff163373ffffffffffffffffffffffffffffffffffffffff161461045c576040517f08c379a00000000000000000000000000000000000000000000000000000000081526004016104539061167f565b60405180910390fd5b600a5434146104a0576040517f08c379a0000000000000000000000000000000000000000000000000000000008152600401610497906116e7565b60405180910390fd5b600682815481106104b4576104b3611705565b5b905f5260205f209060030201600201600481819054906101000a900463ffffffff16809291906104e39061175f565b91906101000a81548163ffffffff021916908363ffffffff160217905550505050565b60068181548110610515575f80fd5b905f5260205f2090600302015f91509050805f018054610534906117b7565b80601f0160208091040260200160405190810160405280929190818152602001828054610560906117b7565b80156105ab5780601f10610582576101008083540402835291602001916105ab565b820191905f5260205f20905b81548152906001019060200180831161058e57829003601f168201915b505050505090806001015490806002015f9054906101000a900461ffff16908060020160029054906101000a900461ffff16908060020160049054906101000a900463ffffffff16908060020160089054906101000a900463ffffffff16905086565b60605f60085f8473ffffffffffffffffffffffffffffffffffffffff1673ffffffffffffffffffffffffffffffffffffffff1681526020019081526020015f205467ffffffffffffffff811115610668576106676113bb565b5b6040519080825280602002602001820160405280156106965781602001602082028036833780820191505090505b5090505f805b60068054905081101561074e578473ffffffffffffffffffffffffffffffffffffffff1660075f8381526020019081526020015f205f9054906101000a900473ffffffffffffffffffffffffffffffffffffffff1673ffffffffffffffffffffffffffffffffffffffff160361073b57808383815181106107205761071f611705565b5b6020026020010181815250508180610737906117e7565b9250505b8080610746906117e7565b91505061069c565b508192505050919050565b6007602052805f5260405f205f915054906101000a900473ffffffffffffffffffffffffffffffffffffffff1681565b60055481565b60045481565b5f8054906101000a900473ffffffffffffffffffffffffffffffffffffffff1681565b5f60085f3373ffffffffffffffffffffffffffffffffffffffff1673ffffffffffffffffffffffffffffffffffffffff1681526020019081526020015f205414610837576040517f08c379a000000000000000000000000000000000000000000000000000000000815260040161082e90611878565b60405180910390fd5b5f61084182610dcb565b9050600a8161085091906118c3565b8161085b91906118f3565b90506108678282610e0b565b5050565b60035481565b5f60085f3373ffffffffffffffffffffffffffffffffffffffff1673ffffffffffffffffffffffffffffffffffffffff1681526020019081526020015f2054116108f0576040517f08c379a00000000000000000000000000000000000000000000000000000000081526004016108e790611970565b60405180910390fd5b6004543411610934576040517f08c379a000000000000000000000000000000000000000000000000000000000815260040161092b906119d8565b60405180910390fd5b5f61093e82610dcb565b90506001600a8261094f91906118c3565b8261095a91906118f3565b61096491906119f6565b90506109708282610e0b565b5050565b600283816006828154811061098c5761098b611705565b5b905f5260205f20906003020160020160049054906101000a900463ffffffff1663ffffffff1610156109f3576040517f08c379a00000000000000000000000000000000000000000000000000000000081526004016109ea90611a73565b60405180910390fd5b8460075f8281526020019081526020015f205f9054906101000a900473ffffffffffffffffffffffffffffffffffffffff1673ffffffffffffffffffffffffffffffffffffffff163373ffffffffffffffffffffffffffffffffffffffff1614610a92576040517f08c379a0000000000000000000000000000000000000000000000000000000008152600401610a899061167f565b60405180910390fd5b848460068881548110610aa857610aa7611705565b5b905f5260205f2090600302015f019182610ac3929190611c38565b50505050505050565b600a5481565b5f8054906101000a900473ffffffffffffffffffffffffffffffffffffffff1673ffffffffffffffffffffffffffffffffffffffff163373ffffffffffffffffffffffffffffffffffffffff1614610b5f576040517f08c379a0000000000000000000000000000000000000000000000000000000008152600401610b5690611d4f565b60405180910390fd5b80600a8190555050565b5f8054906101000a900473ffffffffffffffffffffffffffffffffffffffff1673ffffffffffffffffffffffffffffffffffffffff163373ffffffffffffffffffffffffffffffffffffffff1614610bf6576040517f08c379a0000000000000000000000000000000000000000000000000000000008152600401610bed90611d4f565b60405180910390fd5b8060048190555050565b6009602052805f5260405f205f915090505481565b5f8054906101000a900473ffffffffffffffffffffffffffffffffffffffff1673ffffffffffffffffffffffffffffffffffffffff163373ffffffffffffffffffffffffffffffffffffffff1614610ca2576040517f08c379a0000000000000000000000000000000000000000000000000000000008152600401610c9990611d4f565b60405180910390fd5b5f73ffffffffffffffffffffffffffffffffffffffff168173ffffffffffffffffffffffffffffffffffffffff1603610d10576040517f08c379a0000000000000000000000000000000000000000000000000000000008152600401610d0790611d4f565b60405180910390fd5b8073ffffffffffffffffffffffffffffffffffffffff165f8054906101000a900473ffffffffffffffffffffffffffffffffffffffff1673ffffffffffffffffffffffffffffffffffffffff167f8be0079c531659141344cd1fd0a4f28419497f9722a3daafe3b4186f6b6457e060405160405180910390a3805f806101000a81548173ffffffffffffffffffffffffffffffffffffffff021916908373ffffffffffffffffffffffffffffffffffffffff16021790555050565b5f6002548242604051602001610de2929190611dc7565b604051602081830303815290604052805190602001205f1c610e0491906118c3565b9050919050565b60066040518060c001604052808481526020018381526020015f61ffff1681526020015f61ffff168152602001600163ffffffff1681526020015f63ffffffff16815250908060018154018082558091505060019003905f5260205f2090600302015f909190919091505f820151815f019081610e889190611dee565b50602082015181600101556040820151816002015f6101000a81548161ffff021916908361ffff16021790555060608201518160020160026101000a81548161ffff021916908361ffff16021790555060808201518160020160046101000a81548163ffffffff021916908363ffffffff16021790555060a08201518160020160086101000a81548163ffffffff021916908363ffffffff16021790555050505f6001600680549050610f3b91906118f3565b90503360075f8381526020019081526020015f205f6101000a81548173ffffffffffffffffffffffffffffffffffffffff021916908373ffffffffffffffffffffffffffffffffffffffff16021790555060085f3373ffffffffffffffffffffffffffffffffffffffff1673ffffffffffffffffffffffffffffffffffffffff1681526020019081526020015f205f815480929190610fd9906117e7565b919050555060055f815480929190610ff0906117e7565b91905055507f88f026aacbbecc90c18411df4b1185fd8d9be2470f1962f192bf84a27d0704b781848460405161102893929190611ebd565b60405180910390a1505050565b5f604051905090565b5f80fd5b5f80fd5b5f819050919050565b61105881611046565b8114611062575f80fd5b50565b5f813590506110738161104f565b92915050565b5f6020828403121561108e5761108d61103e565b5b5f61109b84828501611065565b91505092915050565b5f81519050919050565b5f82825260208201905092915050565b5f5b838110156110db5780820151818401526020810190506110c0565b5f8484015250505050565b5f601f19601f8301169050919050565b5f611100826110a4565b61110a81856110ae565b935061111a8185602086016110be565b611123816110e6565b840191505092915050565b61113781611046565b82525050565b5f61ffff82169050919050565b6111538161113d565b82525050565b5f63ffffffff82169050919050565b61117181611159565b82525050565b5f60c0820190508181035f83015261118f81896110f6565b905061119e602083018861112e565b6111ab604083018761114a565b6111b8606083018661114a565b6111c56080830185611168565b6111d260a0830184611168565b979650505050505050565b5f73ffffffffffffffffffffffffffffffffffffffff82169050919050565b5f611206826111dd565b9050919050565b611216816111fc565b8114611220575f80fd5b50565b5f813590506112318161120d565b92915050565b5f6020828403121561124c5761124b61103e565b5b5f61125984828501611223565b91505092915050565b5f81519050919050565b5f82825260208201905092915050565b5f819050602082019050919050565b61129481611046565b82525050565b5f6112a5838361128b565b60208301905092915050565b5f602082019050919050565b5f6112c782611262565b6112d1818561126c565b93506112dc8361127c565b805f5b8381101561130c5781516112f3888261129a565b97506112fe836112b1565b9250506001810190506112df565b5085935050505092915050565b5f6020820190508181035f83015261133181846112bd565b905092915050565b611342816111fc565b82525050565b5f60208201905061135b5f830184611339565b92915050565b5f6020820190506113745f83018461112e565b92915050565b5f611384826111dd565b9050919050565b6113948161137a565b82525050565b5f6020820190506113ad5f83018461138b565b92915050565b5f80fd5b5f80fd5b7f4e487b71000000000000000000000000000000000000000000000000000000005f52604160045260245ffd5b6113f1826110e6565b810181811067ffffffffffffffff821117156114105761140f6113bb565b5b80604052505050565b5f611422611035565b905061142e82826113e8565b919050565b5f67ffffffffffffffff82111561144d5761144c6113bb565b5b611456826110e6565b9050602081019050919050565b828183375f83830152505050565b5f61148361147e84611433565b611419565b90508281526020810184848401111561149f5761149e6113b7565b5b6114aa848285611463565b509392505050565b5f82601f8301126114c6576114c56113b3565b5b81356114d6848260208601611471565b91505092915050565b5f602082840312156114f4576114f361103e565b5b5f82013567ffffffffffffffff81111561151157611510611042565b5b61151d848285016114b2565b91505092915050565b5f80fd5b5f80fd5b5f8083601f840112611543576115426113b3565b5b8235905067ffffffffffffffff8111156115605761155f611526565b5b60208301915083600182028301111561157c5761157b61152a565b5b9250929050565b5f805f6040848603121561159a5761159961103e565b5b5f6115a786828701611065565b935050602084013567ffffffffffffffff8111156115c8576115c7611042565b5b6115d48682870161152e565b92509250509250925092565b6115e98161137a565b81146115f3575f80fd5b50565b5f81359050611604816115e0565b92915050565b5f6020828403121561161f5761161e61103e565b5b5f61162c848285016115f6565b91505092915050565b7f5a6f6d626965206973206e6f7420796f757273000000000000000000000000005f82015250565b5f6116696013836110ae565b915061167482611635565b602082019050919050565b5f6020820190508181035f8301526116968161165d565b9050919050565b7f4e6f20656e6f756768206d6f6e657900000000000000000000000000000000005f82015250565b5f6116d1600f836110ae565b91506116dc8261169d565b602082019050919050565b5f6020820190508181035f8301526116fe816116c5565b9050919050565b7f4e487b71000000000000000000000000000000000000000000000000000000005f52603260045260245ffd5b7f4e487b71000000000000000000000000000000000000000000000000000000005f52601160045260245ffd5b5f61176982611159565b915063ffffffff820361177f5761177e611732565b5b600182019050919050565b7f4e487b71000000000000000000000000000000000000000000000000000000005f52602260045260245ffd5b5f60028204905060018216806117ce57607f821691505b6020821081036117e1576117e061178a565b5b50919050565b5f6117f182611046565b91507fffffffffffffffffffffffffffffffffffffffffffffffffffffffffffffffff820361182357611822611732565b5b600182019050919050565b7f7a6f6d626965206973206d6f72650000000000000000000000000000000000005f82015250565b5f611862600e836110ae565b915061186d8261182e565b602082019050919050565b5f6020820190508181035f83015261188f81611856565b9050919050565b7f4e487b71000000000000000000000000000000000000000000000000000000005f52601260045260245ffd5b5f6118cd82611046565b91506118d883611046565b9250826118e8576118e7611896565b5b828206905092915050565b5f6118fd82611046565b915061190883611046565b92508282039050818111156119205761191f611732565b5b92915050565b7f7a6f6d626965206d757374207468616e207a65726f00000000000000000000005f82015250565b5f61195a6015836110ae565b915061196582611926565b602082019050919050565b5f6020820190508181035f8301526119878161194e565b9050919050565b7f7072696365206c657373000000000000000000000000000000000000000000005f82015250565b5f6119c2600a836110ae565b91506119cd8261198e565b602082019050919050565b5f6020820190508181035f8301526119ef816119b6565b9050919050565b5f611a0082611046565b9150611a0b83611046565b9250828201905080821115611a2357611a22611732565b5b92915050565b7f4c6576656c206973206e6f742073756666696369656e740000000000000000005f82015250565b5f611a5d6017836110ae565b9150611a6882611a29565b602082019050919050565b5f6020820190508181035f830152611a8a81611a51565b9050919050565b5f82905092915050565b5f819050815f5260205f209050919050565b5f6020601f8301049050919050565b5f82821b905092915050565b5f60088302611af77fffffffffffffffffffffffffffffffffffffffffffffffffffffffffffffffff82611abc565b611b018683611abc565b95508019841693508086168417925050509392505050565b5f819050919050565b5f611b3c611b37611b3284611046565b611b19565b611046565b9050919050565b5f819050919050565b611b5583611b22565b611b69611b6182611b43565b848454611ac8565b825550505050565b5f90565b611b7d611b71565b611b88818484611b4c565b505050565b5b81811015611bab57611ba05f82611b75565b600181019050611b8e565b5050565b601f821115611bf057611bc181611a9b565b611bca84611aad565b81016020851015611bd9578190505b611bed611be585611aad565b830182611b8d565b50505b505050565b5f82821c905092915050565b5f611c105f1984600802611bf5565b1980831691505092915050565b5f611c288383611c01565b9150826002028217905092915050565b611c428383611a91565b67ffffffffffffffff811115611c5b57611c5a6113bb565b5b611c6582546117b7565b611c70828285611baf565b5f601f831160018114611c9d575f8415611c8b578287013590505b611c958582611c1d565b865550611cfc565b601f198416611cab86611a9b565b5f5b82811015611cd257848901358255600182019150602085019450602081019050611cad565b86831015611cef5784890135611ceb601f891682611c01565b8355505b6001600288020188555050505b50505050505050565b7f4d75737420636f6e7472616374206f776e6572000000000000000000000000005f82015250565b5f611d396013836110ae565b9150611d4482611d05565b602082019050919050565b5f6020820190508181035f830152611d6681611d2d565b9050919050565b5f81905092915050565b5f611d81826110a4565b611d8b8185611d6d565b9350611d9b8185602086016110be565b80840191505092915050565b5f819050919050565b611dc1611dbc82611046565b611da7565b82525050565b5f611dd28285611d77565b9150611dde8284611db0565b6020820191508190509392505050565b611df7826110a4565b67ffffffffffffffff811115611e1057611e0f6113bb565b5b611e1a82546117b7565b611e25828285611baf565b5f60209050601f831160018114611e56575f8415611e44578287015190505b611e4e8582611c1d565b865550611eb5565b601f198416611e6486611a9b565b5f5b82811015611e8b57848901518255600182019150602085019450602081019050611e66565b86831015611ea85784890151611ea4601f891682611c01565b8355505b6001600288020188555050505b505050505050565b5f606082019050611ed05f83018661112e565b8181036020830152611ee281856110f6565b9050611ef1604083018461112e565b94935050505056fea2646970667358221220cf7f0939fedd0407c23fd63a32aa3736a9bdb62d5948ebc90673945feb8adda464736f6c63430008150033",
  "immutableReferences": {},
  "source": "// SPDX-License-Identifier: MIT\npragma solidity ^0.8.21;\n\nimport \"./zombieFactory.sol\";\n//\ncontract ZombieHelper is ZombieFactory {\n    //\n    uint public levelUpFee = 0.001 ether;\n    //\n    modifier aboveLevel(uint _level, uint _zombieId) {\n        require(zombies[_zombieId].level >= _level, \"Level is not sufficient\");\n        _;\n    }\n    //\n    modifier onlyOwnerOf(uint _zombieId) {\n        require(msg.sender == zombieToOwner[_zombieId], \"Zombie is not yours\");\n        _;\n    }\n    //\n    function setLevelUpFee(uint _fee) external onlyOwner {\n        levelUpFee = _fee;\n    }\n\n    //\n    function levelUp(uint _zombieId) external payable onlyOwnerOf(_zombieId) {\n        require(msg.value == levelUpFee, \"No enough money\");\n        zombies[_zombieId].level++;\n    }\n    //\n    function changeName(\n        uint _zombieId,\n        string calldata _newName\n    ) external aboveLevel(2, _zombieId) onlyOwnerOf(_zombieId) {\n        zombies[_zombieId].name = _newName;\n    }\n\n    //\n    function getZombiesByOwner(\n        address _owner\n    ) external view returns (uint[] memory) {\n        uint[] memory result = new uint[](ownerZombieCount[_owner]);\n        uint counter = 0;\n        for (uint i = 0; i < zombies.length; i++) {\n            if (zombieToOwner[i] == _owner) {\n                result[counter] = i;\n                counter++;\n            }\n        }\n        return result;\n    }\n    //\n    function _triggerCooldown(Zombie storage _zombie) internal {\n        _zombie.readyTime =\n            uint32(block.timestamp + cooldownTime) -\n            uint32((block.timestamp + cooldownTime) % 1 days);\n    }\n    //\n    function _isReady(Zombie storage _zombie) internal view returns (bool) {\n        return (_zombie.readyTime <= block.timestamp);\n    }\n\n    //\n    function multiply(\n        uint _zombieId,\n        uint _targetDna\n    ) internal onlyOwnerOf(_zombieId) {\n        Zombie storage myZombie = zombies[_zombieId];\n        require(_isReady(myZombie), \"Zombie is not ready\");\n        uint targetDnaMod = _targetDna % dnaModulus;\n        uint newDna = (myZombie.dna + targetDnaMod) / 2;\n        //9\n        newDna = newDna - (newDna % 10) + 9;\n        //\n        _createZombie(\"NoName\", newDna);\n        //\n        _triggerCooldown(myZombie);\n    }\n}\n",
  "sourcePath": "/Users/zhou/project/corpse/contracts/zombieHelper.sol",
  "compiler": {
    "name": "solc",
    "version": "0.8.21+commit.d9974bed.Emscripten.clang"
  },
  "schemaVersion": "3.4.16",
  "updatedAt": "2025-06-11T08:13:44.783Z",
  "devdoc": {
    "kind": "dev",
    "methods": {
      "transferOwnership(address)": {
        "details": "Allows the current owner to transfer control of the contract to a newOwner.",
        "params": {
          "newOwner": "The address to transfer ownership to."
        }
      }
    },
    "version": 1
  },
  "userdoc": {
    "kind": "user",
    "methods": {},
    "version": 1
  }
}