{
  "contractName": "ZombieFeeding",
  "abi": [
    {
      "anonymous": false,
      "inputs": [
        {
          "indexed": false,
          "internalType": "uint256",
          "name": "zombieId",
          "type": "uint256"
        },
        {
          "indexed": false,
          "internalType": "string",
          "name": "name",
          "type": "string"
        },
        {
          "indexed": false,
          "internalType": "uint256",
          "name": "dna",
          "type": "uint256"
        }
      ],
      "name": "NewZombie",
      "type": "event"
    },
    {
      "anonymous": false,
      "inputs": [
        {
          "indexed": true,
          "internalType": "address",
          "name": "previousOwner",
          "type": "address"
        },
        {
          "indexed": true,
          "internalType": "address",
          "name": "newOwner",
          "type": "address"
        }
      ],
      "name": "OwnershipTransferred",
      "type": "event"
    },
    {
      "inputs": [
        {
          "internalType": "string",
          "name": "_name",
          "type": "string"
        }
      ],
      "name": "buyZombie",
      "outputs": [],
      "stateMutability": "payable",
      "type": "function"
    },
    {
      "inputs": [
        {
          "internalType": "uint256",
          "name": "_zombieId",
          "type": "uint256"
        },
        {
          "internalType": "string",
          "name": "_newName",
          "type": "string"
        }
      ],
      "name": "changeName",
      "outputs": [],
      "stateMutability": "nonpayable",
      "type": "function"
    },
    {
      "inputs": [],
      "name": "cooldownTime",
      "outputs": [
        {
          "internalType": "uint256",
          "name": "",
          "type": "uint256"
        }
      ],
      "stateMutability": "view",
      "type": "function"
    },
    {
      "inputs": [
        {
          "internalType": "string",
          "name": "_name",
          "type": "string"
        }
      ],
      "name": "createZombie",
      "outputs": [],
      "stateMutability": "nonpayable",
      "type": "function"
    },
    {
      "inputs": [
        {
          "internalType": "address",
          "name": "_owner",
          "type": "address"
        }
      ],
      "name": "getZombiesByOwner",
      "outputs": [
        {
          "internalType": "uint256[]",
          "name": "",
          "type": "uint256[]"
        }
      ],
      "stateMutability": "view",
      "type": "function"
    },
    {
      "inputs": [
        {
          "internalType": "uint256",
          "name": "_zombieId",
          "type": "uint256"
        }
      ],
      "name": "levelUp",
      "outputs": [],
      "stateMutability": "payable",
      "type": "function"
    },
    {
      "inputs": [],
      "name": "levelUpFee",
      "outputs": [
        {
          "internalType": "uint256",
          "name": "",
          "type": "uint256"
        }
      ],
      "stateMutability": "view",
      "type": "function"
    },
    {
      "inputs": [],
      "name": "owner",
      "outputs": [
        {
          "internalType": "address payable",
          "name": "",
          "type": "address"
        }
      ],
      "stateMutability": "view",
      "type": "function"
    },
    {
      "inputs": [
        {
          "internalType": "uint256",
          "name": "_fee",
          "type": "uint256"
        }
      ],
      "name": "setLevelUpFee",
      "outputs": [],
      "stateMutability": "nonpayable",
      "type": "function"
    },
    {
      "inputs": [
        {
          "internalType": "uint256",
          "name": "_price",
          "type": "uint256"
        }
      ],
      "name": "setZombiePrice",
      "outputs": [],
      "stateMutability": "nonpayable",
      "type": "function"
    },
    {
      "inputs": [
        {
          "internalType": "address payable",
          "name": "newOwner",
          "type": "address"
        }
      ],
      "name": "transferOwnership",
      "outputs": [],
      "stateMutability": "nonpayable",
      "type": "function"
    },
    {
      "inputs": [],
      "name": "zombieCount",
      "outputs": [
        {
          "internalType": "uint256",
          "name": "",
          "type": "uint256"
        }
      ],
      "stateMutability": "view",
      "type": "function"
    },
    {
      "inputs": [
        {
          "internalType": "uint256",
          "name": "",
          "type": "uint256"
        }
      ],
      "name": "zombieFeedTimes",
      "outputs": [
        {
          "internalType": "uint256",
          "name": "",
          "type": "uint256"
        }
      ],
      "stateMutability": "view",
      "type": "function"
    },
    {
      "inputs": [],
      "name": "zombiePrice",
      "outputs": [
        {
          "internalType": "uint256",
          "name": "",
          "type": "uint256"
        }
      ],
      "stateMutability": "view",
      "type": "function"
    },
    {
      "inputs": [
        {
          "internalType": "uint256",
          "name": "",
          "type": "uint256"
        }
      ],
      "name": "zombieToOwner",
      "outputs": [
        {
          "internalType": "address",
          "name": "",
          "type": "address"
        }
      ],
      "stateMutability": "view",
      "type": "function"
    },
    {
      "inputs": [
        {
          "internalType": "uint256",
          "name": "",
          "type": "uint256"
        }
      ],
      "name": "zombies",
      "outputs": [
        {
          "internalType": "string",
          "name": "name",
          "type": "string"
        },
        {
          "internalType": "uint256",
          "name": "dna",
          "type": "uint256"
        },
        {
          "internalType": "uint16",
          "name": "winCount",
          "type": "uint16"
        },
        {
          "internalType": "uint16",
          "name": "lossCount",
          "type": "uint16"
        },
        {
          "internalType": "uint32",
          "name": "level",
          "type": "uint32"
        },
        {
          "internalType": "uint32",
          "name": "readyTime",
          "type": "uint32"
        }
      ],
      "stateMutability": "view",
      "type": "function"
    },
    {
      "inputs": [
        {
          "internalType": "uint256",
          "name": "_zombieId",
          "type": "uint256"
        }
      ],
      "name": "feed",
      "outputs": [],
      "stateMutability": "nonpayable",
      "type": "function"
    }
  ],
  "bytecode": "0x60806040526010600155600154600a6200001a919062000216565b60025562015180600355662386f26fc100006004555f60055566038d7ea4c68000600a553480156200004a575f80fd5b50335f806101000a81548173ffffffffffffffffffffffffffffffffffffffff021916908373ffffffffffffffffffffffffffffffffffffffff16021790555062000266565b7f4e487b71000000000000000000000000000000000000000000000000000000005f52601160045260245ffd5b5f8160011c9050919050565b5f808291508390505b60018511156200011a57808604811115620000f257620000f162000090565b5b6001851615620001025780820291505b80810290506200011285620000bd565b9450620000d2565b94509492505050565b5f8262000134576001905062000206565b8162000143575f905062000206565b81600181146200015c576002811462000167576200019d565b600191505062000206565b60ff8411156200017c576200017b62000090565b5b8360020a91508482111562000196576200019562000090565b5b5062000206565b5060208310610133831016604e8410600b8410161715620001d75782820a905083811115620001d157620001d062000090565b5b62000206565b620001e68484846001620000c9565b925090508184048111156200020057620001ff62000090565b5b81810290505b9392505050565b5f819050919050565b5f62000222826200020d565b91506200022f836200020d565b92506200025e7fffffffffffffffffffffffffffffffffffffffffffffffffffffffffffffffff848462000123565b905092915050565b61225f80620002745f395ff3fe6080604052600436106100fd575f3560e01c8063b319c6b711610094578063ccf670f811610063578063ccf670f814610314578063d521ef431461033c578063ef6ad18b14610364578063f2fde38b146103a0578063f59dfdfb146103c8576100fd565b8063b319c6b71461027c578063b3f0ddb9146102a6578063c39cbef1146102c2578063c4114b12146102ea576100fd565b806363721d6b116100d057806363721d6b146101d657806383d404d8146102005780638da5cb5b1461022a578063ad82277814610254576100fd565b80630ce90ec2146101015780632052465e1461011d5780634412e1041461015e578063528b7b8f1461019a575b5f80fd5b61011b6004803603810190610116919061130a565b6103f0565b005b348015610128575f80fd5b50610143600480360381019061013e919061130a565b610539565b60405161015596959493929190611408565b60405180910390f35b348015610169575f80fd5b50610184600480360381019061017f91906114c8565b610641565b60405161019191906115aa565b60405180910390f35b3480156101a5575f80fd5b506101c060048036038101906101bb919061130a565b61078c565b6040516101cd91906115d9565b60405180910390f35b3480156101e1575f80fd5b506101ea6107bc565b6040516101f791906115f2565b60405180910390f35b34801561020b575f80fd5b506102146107c2565b60405161022191906115f2565b60405180910390f35b348015610235575f80fd5b5061023e6107c8565b60405161024b919061162b565b60405180910390f35b34801561025f575f80fd5b5061027a60048036038101906102759190611770565b6107eb565b005b348015610287575f80fd5b5061029061089e565b60405161029d91906115f2565b60405180910390f35b6102c060048036038101906102bb9190611770565b6108a4565b005b3480156102cd575f80fd5b506102e860048036038101906102e39190611814565b6109a7565b005b3480156102f5575f80fd5b506102fe610aff565b60405161030b91906115f2565b60405180910390f35b34801561031f575f80fd5b5061033a6004803603810190610335919061130a565b610b05565b005b348015610347575f80fd5b50610362600480360381019061035d919061130a565b610b9c565b005b34801561036f575f80fd5b5061038a6004803603810190610385919061130a565b610c33565b60405161039791906115f2565b60405180910390f35b3480156103ab575f80fd5b506103c660048036038101906103c1919061189b565b610c48565b005b3480156103d3575f80fd5b506103ee60048036038101906103e9919061130a565b610dfe565b005b8060075f8281526020019081526020015f205f9054906101000a900473ffffffffffffffffffffffffffffffffffffffff1673ffffffffffffffffffffffffffffffffffffffff163373ffffffffffffffffffffffffffffffffffffffff161461048f576040517f08c379a000000000000000000000000000000000000000000000000000000000815260040161048690611910565b60405180910390fd5b600a5434146104d3576040517f08c379a00000000000000000000000000000000000000000000000000000000081526004016104ca90611978565b60405180910390fd5b600682815481106104e7576104e6611996565b5b905f5260205f209060030201600201600481819054906101000a900463ffffffff1680929190610516906119f0565b91906101000a81548163ffffffff021916908363ffffffff160217905550505050565b60068181548110610548575f80fd5b905f5260205f2090600302015f91509050805f01805461056790611a48565b80601f016020809104026020016040519081016040528092919081815260200182805461059390611a48565b80156105de5780601f106105b5576101008083540402835291602001916105de565b820191905f5260205f20905b8154815290600101906020018083116105c157829003601f168201915b505050505090806001015490806002015f9054906101000a900461ffff16908060020160029054906101000a900461ffff16908060020160049054906101000a900463ffffffff16908060020160089054906101000a900463ffffffff16905086565b60605f60085f8473ffffffffffffffffffffffffffffffffffffffff1673ffffffffffffffffffffffffffffffffffffffff1681526020019081526020015f205467ffffffffffffffff81111561069b5761069a61164c565b5b6040519080825280602002602001820160405280156106c95781602001602082028036833780820191505090505b5090505f805b600680549050811015610781578473ffffffffffffffffffffffffffffffffffffffff1660075f8381526020019081526020015f205f9054906101000a900473ffffffffffffffffffffffffffffffffffffffff1673ffffffffffffffffffffffffffffffffffffffff160361076e578083838151811061075357610752611996565b5b602002602001018181525050818061076a90611a78565b9250505b808061077990611a78565b9150506106cf565b508192505050919050565b6007602052805f5260405f205f915054906101000a900473ffffffffffffffffffffffffffffffffffffffff1681565b60055481565b60045481565b5f8054906101000a900473ffffffffffffffffffffffffffffffffffffffff1681565b5f60085f3373ffffffffffffffffffffffffffffffffffffffff1673ffffffffffffffffffffffffffffffffffffffff1681526020019081526020015f20541461086a576040517f08c379a000000000000000000000000000000000000000000000000000000000815260040161086190611b09565b60405180910390fd5b5f61087482610fdd565b9050600a816108839190611b54565b8161088e9190611b84565b905061089a828261101d565b5050565b60035481565b5f60085f3373ffffffffffffffffffffffffffffffffffffffff1673ffffffffffffffffffffffffffffffffffffffff1681526020019081526020015f205411610923576040517f08c379a000000000000000000000000000000000000000000000000000000000815260040161091a90611c01565b60405180910390fd5b6004543411610967576040517f08c379a000000000000000000000000000000000000000000000000000000000815260040161095e90611c69565b60405180910390fd5b5f61097182610fdd565b90506001600a826109829190611b54565b8261098d9190611b84565b6109979190611c87565b90506109a3828261101d565b5050565b60028381600682815481106109bf576109be611996565b5b905f5260205f20906003020160020160049054906101000a900463ffffffff1663ffffffff161015610a26576040517f08c379a0000000000000000000000000000000000000000000000000000000008152600401610a1d90611d04565b60405180910390fd5b8460075f8281526020019081526020015f205f9054906101000a900473ffffffffffffffffffffffffffffffffffffffff1673ffffffffffffffffffffffffffffffffffffffff163373ffffffffffffffffffffffffffffffffffffffff1614610ac5576040517f08c379a0000000000000000000000000000000000000000000000000000000008152600401610abc90611910565b60405180910390fd5b848460068881548110610adb57610ada611996565b5b905f5260205f2090600302015f019182610af6929190611ec9565b50505050505050565b600a5481565b5f8054906101000a900473ffffffffffffffffffffffffffffffffffffffff1673ffffffffffffffffffffffffffffffffffffffff163373ffffffffffffffffffffffffffffffffffffffff1614610b92576040517f08c379a0000000000000000000000000000000000000000000000000000000008152600401610b8990611fe0565b60405180910390fd5b80600a8190555050565b5f8054906101000a900473ffffffffffffffffffffffffffffffffffffffff1673ffffffffffffffffffffffffffffffffffffffff163373ffffffffffffffffffffffffffffffffffffffff1614610c29576040517f08c379a0000000000000000000000000000000000000000000000000000000008152600401610c2090611fe0565b60405180910390fd5b8060048190555050565b6009602052805f5260405f205f915090505481565b5f8054906101000a900473ffffffffffffffffffffffffffffffffffffffff1673ffffffffffffffffffffffffffffffffffffffff163373ffffffffffffffffffffffffffffffffffffffff1614610cd5576040517f08c379a0000000000000000000000000000000000000000000000000000000008152600401610ccc90611fe0565b60405180910390fd5b5f73ffffffffffffffffffffffffffffffffffffffff168173ffffffffffffffffffffffffffffffffffffffff1603610d43576040517f08c379a0000000000000000000000000000000000000000000000000000000008152600401610d3a90611fe0565b60405180910390fd5b8073ffffffffffffffffffffffffffffffffffffffff165f8054906101000a900473ffffffffffffffffffffffffffffffffffffffff1673ffffffffffffffffffffffffffffffffffffffff167f8be0079c531659141344cd1fd0a4f28419497f9722a3daafe3b4186f6b6457e060405160405180910390a3805f806101000a81548173ffffffffffffffffffffffffffffffffffffffff021916908373ffffffffffffffffffffffffffffffffffffffff16021790555050565b8060075f8281526020019081526020015f205f9054906101000a900473ffffffffffffffffffffffffffffffffffffffff1673ffffffffffffffffffffffffffffffffffffffff163373ffffffffffffffffffffffffffffffffffffffff1614610e9d576040517f08c379a0000000000000000000000000000000000000000000000000000000008152600401610e9490611910565b60405180910390fd5b5f60068381548110610eb257610eb1611996565b5b905f5260205f2090600302019050610ec981611247565b610f08576040517f08c379a0000000000000000000000000000000000000000000000000000000008152600401610eff90612048565b60405180910390fd5b600160095f8581526020019081526020015f2054610f269190611c87565b60095f8581526020019081526020015f2081905550610f448161126d565b5f600a60095f8681526020019081526020015f2054610f639190611b54565b03610fd8575f6008600a8360010154610f7c9190611b54565b8360010154610f8b9190611b84565b610f959190611c87565b9050610fd66040518060400160405280600c81526020017f7a6f6d626965277320736f6e00000000000000000000000000000000000000008152508261101d565b505b505050565b5f6002548242604051602001610ff49291906120c0565b604051602081830303815290604052805190602001205f1c6110169190611b54565b9050919050565b60066040518060c001604052808481526020018381526020015f61ffff1681526020015f61ffff168152602001600163ffffffff1681526020015f63ffffffff16815250908060018154018082558091505060019003905f5260205f2090600302015f909190919091505f820151815f01908161109a91906120e7565b50602082015181600101556040820151816002015f6101000a81548161ffff021916908361ffff16021790555060608201518160020160026101000a81548161ffff021916908361ffff16021790555060808201518160020160046101000a81548163ffffffff021916908363ffffffff16021790555060a08201518160020160086101000a81548163ffffffff021916908363ffffffff16021790555050505f600160068054905061114d9190611b84565b90503360075f8381526020019081526020015f205f6101000a81548173ffffffffffffffffffffffffffffffffffffffff021916908373ffffffffffffffffffffffffffffffffffffffff16021790555060085f3373ffffffffffffffffffffffffffffffffffffffff1673ffffffffffffffffffffffffffffffffffffffff1681526020019081526020015f205f8154809291906111eb90611a78565b919050555060055f81548092919061120290611a78565b91905055507f88f026aacbbecc90c18411df4b1185fd8d9be2470f1962f192bf84a27d0704b781848460405161123a939291906121b6565b60405180910390a1505050565b5f428260020160089054906101000a900463ffffffff1663ffffffff1611159050919050565b620151806003544261127f9190611c87565b6112899190611b54565b600354426112979190611c87565b6112a191906121f2565b8160020160086101000a81548163ffffffff021916908363ffffffff16021790555050565b5f604051905090565b5f80fd5b5f80fd5b5f819050919050565b6112e9816112d7565b81146112f3575f80fd5b50565b5f81359050611304816112e0565b92915050565b5f6020828403121561131f5761131e6112cf565b5b5f61132c848285016112f6565b91505092915050565b5f81519050919050565b5f82825260208201905092915050565b5f5b8381101561136c578082015181840152602081019050611351565b5f8484015250505050565b5f601f19601f8301169050919050565b5f61139182611335565b61139b818561133f565b93506113ab81856020860161134f565b6113b481611377565b840191505092915050565b6113c8816112d7565b82525050565b5f61ffff82169050919050565b6113e4816113ce565b82525050565b5f63ffffffff82169050919050565b611402816113ea565b82525050565b5f60c0820190508181035f8301526114208189611387565b905061142f60208301886113bf565b61143c60408301876113db565b61144960608301866113db565b61145660808301856113f9565b61146360a08301846113f9565b979650505050505050565b5f73ffffffffffffffffffffffffffffffffffffffff82169050919050565b5f6114978261146e565b9050919050565b6114a78161148d565b81146114b1575f80fd5b50565b5f813590506114c28161149e565b92915050565b5f602082840312156114dd576114dc6112cf565b5b5f6114ea848285016114b4565b91505092915050565b5f81519050919050565b5f82825260208201905092915050565b5f819050602082019050919050565b611525816112d7565b82525050565b5f611536838361151c565b60208301905092915050565b5f602082019050919050565b5f611558826114f3565b61156281856114fd565b935061156d8361150d565b805f5b8381101561159d578151611584888261152b565b975061158f83611542565b925050600181019050611570565b5085935050505092915050565b5f6020820190508181035f8301526115c2818461154e565b905092915050565b6115d38161148d565b82525050565b5f6020820190506115ec5f8301846115ca565b92915050565b5f6020820190506116055f8301846113bf565b92915050565b5f6116158261146e565b9050919050565b6116258161160b565b82525050565b5f60208201905061163e5f83018461161c565b92915050565b5f80fd5b5f80fd5b7f4e487b71000000000000000000000000000000000000000000000000000000005f52604160045260245ffd5b61168282611377565b810181811067ffffffffffffffff821117156116a1576116a061164c565b5b80604052505050565b5f6116b36112c6565b90506116bf8282611679565b919050565b5f67ffffffffffffffff8211156116de576116dd61164c565b5b6116e782611377565b9050602081019050919050565b828183375f83830152505050565b5f61171461170f846116c4565b6116aa565b9050828152602081018484840111156117305761172f611648565b5b61173b8482856116f4565b509392505050565b5f82601f83011261175757611756611644565b5b8135611767848260208601611702565b91505092915050565b5f60208284031215611785576117846112cf565b5b5f82013567ffffffffffffffff8111156117a2576117a16112d3565b5b6117ae84828501611743565b91505092915050565b5f80fd5b5f80fd5b5f8083601f8401126117d4576117d3611644565b5b8235905067ffffffffffffffff8111156117f1576117f06117b7565b5b60208301915083600182028301111561180d5761180c6117bb565b5b9250929050565b5f805f6040848603121561182b5761182a6112cf565b5b5f611838868287016112f6565b935050602084013567ffffffffffffffff811115611859576118586112d3565b5b611865868287016117bf565b92509250509250925092565b61187a8161160b565b8114611884575f80fd5b50565b5f8135905061189581611871565b92915050565b5f602082840312156118b0576118af6112cf565b5b5f6118bd84828501611887565b91505092915050565b7f5a6f6d626965206973206e6f7420796f757273000000000000000000000000005f82015250565b5f6118fa60138361133f565b9150611905826118c6565b602082019050919050565b5f6020820190508181035f830152611927816118ee565b9050919050565b7f4e6f20656e6f756768206d6f6e657900000000000000000000000000000000005f82015250565b5f611962600f8361133f565b915061196d8261192e565b602082019050919050565b5f6020820190508181035f83015261198f81611956565b9050919050565b7f4e487b71000000000000000000000000000000000000000000000000000000005f52603260045260245ffd5b7f4e487b71000000000000000000000000000000000000000000000000000000005f52601160045260245ffd5b5f6119fa826113ea565b915063ffffffff8203611a1057611a0f6119c3565b5b600182019050919050565b7f4e487b71000000000000000000000000000000000000000000000000000000005f52602260045260245ffd5b5f6002820490506001821680611a5f57607f821691505b602082108103611a7257611a71611a1b565b5b50919050565b5f611a82826112d7565b91507fffffffffffffffffffffffffffffffffffffffffffffffffffffffffffffffff8203611ab457611ab36119c3565b5b600182019050919050565b7f7a6f6d626965206973206d6f72650000000000000000000000000000000000005f82015250565b5f611af3600e8361133f565b9150611afe82611abf565b602082019050919050565b5f6020820190508181035f830152611b2081611ae7565b9050919050565b7f4e487b71000000000000000000000000000000000000000000000000000000005f52601260045260245ffd5b5f611b5e826112d7565b9150611b69836112d7565b925082611b7957611b78611b27565b5b828206905092915050565b5f611b8e826112d7565b9150611b99836112d7565b9250828203905081811115611bb157611bb06119c3565b5b92915050565b7f7a6f6d626965206d757374207468616e207a65726f00000000000000000000005f82015250565b5f611beb60158361133f565b9150611bf682611bb7565b602082019050919050565b5f6020820190508181035f830152611c1881611bdf565b9050919050565b7f7072696365206c657373000000000000000000000000000000000000000000005f82015250565b5f611c53600a8361133f565b9150611c5e82611c1f565b602082019050919050565b5f6020820190508181035f830152611c8081611c47565b9050919050565b5f611c91826112d7565b9150611c9c836112d7565b9250828201905080821115611cb457611cb36119c3565b5b92915050565b7f4c6576656c206973206e6f742073756666696369656e740000000000000000005f82015250565b5f611cee60178361133f565b9150611cf982611cba565b602082019050919050565b5f6020820190508181035f830152611d1b81611ce2565b9050919050565b5f82905092915050565b5f819050815f5260205f209050919050565b5f6020601f8301049050919050565b5f82821b905092915050565b5f60088302611d887fffffffffffffffffffffffffffffffffffffffffffffffffffffffffffffffff82611d4d565b611d928683611d4d565b95508019841693508086168417925050509392505050565b5f819050919050565b5f611dcd611dc8611dc3846112d7565b611daa565b6112d7565b9050919050565b5f819050919050565b611de683611db3565b611dfa611df282611dd4565b848454611d59565b825550505050565b5f90565b611e0e611e02565b611e19818484611ddd565b505050565b5b81811015611e3c57611e315f82611e06565b600181019050611e1f565b5050565b601f821115611e8157611e5281611d2c565b611e5b84611d3e565b81016020851015611e6a578190505b611e7e611e7685611d3e565b830182611e1e565b50505b505050565b5f82821c905092915050565b5f611ea15f1984600802611e86565b1980831691505092915050565b5f611eb98383611e92565b9150826002028217905092915050565b611ed38383611d22565b67ffffffffffffffff811115611eec57611eeb61164c565b5b611ef68254611a48565b611f01828285611e40565b5f601f831160018114611f2e575f8415611f1c578287013590505b611f268582611eae565b865550611f8d565b601f198416611f3c86611d2c565b5f5b82811015611f6357848901358255600182019150602085019450602081019050611f3e565b86831015611f805784890135611f7c601f891682611e92565b8355505b6001600288020188555050505b50505050505050565b7f4d75737420636f6e7472616374206f776e6572000000000000000000000000005f82015250565b5f611fca60138361133f565b9150611fd582611f96565b602082019050919050565b5f6020820190508181035f830152611ff781611fbe565b9050919050565b7f726561642074696d65206e6f74206172726976650000000000000000000000005f82015250565b5f61203260148361133f565b915061203d82611ffe565b602082019050919050565b5f6020820190508181035f83015261205f81612026565b9050919050565b5f81905092915050565b5f61207a82611335565b6120848185612066565b935061209481856020860161134f565b80840191505092915050565b5f819050919050565b6120ba6120b5826112d7565b6120a0565b82525050565b5f6120cb8285612070565b91506120d782846120a9565b6020820191508190509392505050565b6120f082611335565b67ffffffffffffffff8111156121095761210861164c565b5b6121138254611a48565b61211e828285611e40565b5f60209050601f83116001811461214f575f841561213d578287015190505b6121478582611eae565b8655506121ae565b601f19841661215d86611d2c565b5f5b828110156121845784890151825560018201915060208501945060208101905061215f565b868310156121a1578489015161219d601f891682611e92565b8355505b6001600288020188555050505b505050505050565b5f6060820190506121c95f8301866113bf565b81810360208301526121db8185611387565b90506121ea60408301846113bf565b949350505050565b5f6121fc826113ea565b9150612207836113ea565b9250828203905063ffffffff811115612223576122226119c3565b5b9291505056fea2646970667358221220e9eee10009ebd05217a27f4c378e6f1a7e606460833a1aa9e46009ea0d930b4b64736f6c63430008150033",
  "immutableReferences": {},
  "source": "// SPDX-License-Identifier: MIT\npragma solidity ^0.8.21;\n\nimport \"./zombieHelper.sol\";\n//\ncontract ZombieFeeding is ZombieHelper {\n    function feed(uint _zombieId) public onlyOwnerOf(_zombieId) {\n        Zombie storage myZombie = zombies[_zombieId];\n        //\n        require(_isReady(myZombie), \"read time not arrive\");\n        // +1\n        zombieFeedTimes[_zombieId] = zombieFeedTimes[_zombieId] + 1;\n        //\n        _triggerCooldown(myZombie);\n        //10,\n        if (zombieFeedTimes[_zombieId] % 10 == 0) {\n            uint newDna = myZombie.dna - (myZombie.dna % 10) + 8;\n            _createZombie(\"zombie's son\", newDna);\n        }\n    }\n}\n",
  "sourcePath": "/Users/zhou/project/corpse/contracts/zombieFeeding.sol",
  "compiler": {
    "name": "solc",
    "version": "0.8.21+commit.d9974bed.Emscripten.clang"
  },
  "schemaVersion": "3.4.16",
  "updatedAt": "2025-06-11T08:13:44.779Z",
  "devdoc": {
    "kind": "dev",
    "methods": {
      "transferOwnership(address)": {
        "details": "Allows the current owner to transfer control of the contract to a newOwner.",
        "params": {
          "newOwner": "The address to transfer ownership to."
        }
      }
    },
    "version": 1
  },
  "userdoc": {
    "kind": "user",
    "methods": {},
    "version": 1
  }
}