{
  "contractName": "ZombieCore",
  "abi": [
    {
      "anonymous": false,
      "inputs": [
        {
          "indexed": true,
          "internalType": "address",
          "name": "_owner",
          "type": "address"
        },
        {
          "indexed": true,
          "internalType": "address",
          "name": "_approved",
          "type": "address"
        },
        {
          "indexed": false,
          "internalType": "uint256",
          "name": "_tokenId",
          "type": "uint256"
        }
      ],
      "name": "Approval",
      "type": "event"
    },
    {
      "anonymous": false,
      "inputs": [
        {
          "indexed": true,
          "internalType": "uint256",
          "name": "zombieId",
          "type": "uint256"
        },
        {
          "indexed": true,
          "internalType": "address",
          "name": "buyer",
          "type": "address"
        },
        {
          "indexed": true,
          "internalType": "address",
          "name": "seller",
          "type": "address"
        }
      ],
      "name": "BuyShopZombie",
      "type": "event"
    },
    {
      "anonymous": false,
      "inputs": [
        {
          "indexed": false,
          "internalType": "uint256",
          "name": "zombieId",
          "type": "uint256"
        },
        {
          "indexed": false,
          "internalType": "string",
          "name": "name",
          "type": "string"
        },
        {
          "indexed": false,
          "internalType": "uint256",
          "name": "dna",
          "type": "uint256"
        }
      ],
      "name": "NewZombie",
      "type": "event"
    },
    {
      "anonymous": false,
      "inputs": [
        {
          "indexed": true,
          "internalType": "address",
          "name": "previousOwner",
          "type": "address"
        },
        {
          "indexed": true,
          "internalType": "address",
          "name": "newOwner",
          "type": "address"
        }
      ],
      "name": "OwnershipTransferred",
      "type": "event"
    },
    {
      "anonymous": false,
      "inputs": [
        {
          "indexed": true,
          "internalType": "uint256",
          "name": "zombieId",
          "type": "uint256"
        },
        {
          "indexed": true,
          "internalType": "address",
          "name": "seller",
          "type": "address"
        }
      ],
      "name": "SaleZombie",
      "type": "event"
    },
    {
      "anonymous": false,
      "inputs": [
        {
          "indexed": true,
          "internalType": "address",
          "name": "_from",
          "type": "address"
        },
        {
          "indexed": true,
          "internalType": "address",
          "name": "_to",
          "type": "address"
        },
        {
          "indexed": false,
          "internalType": "uint256",
          "name": "_tokenId",
          "type": "uint256"
        }
      ],
      "name": "Transfer",
      "type": "event"
    },
    {
      "stateMutability": "payable",
      "type": "fallback",
      "payable": true
    },
    {
      "inputs": [
        {
          "internalType": "address",
          "name": "_to",
          "type": "address"
        },
        {
          "internalType": "uint256",
          "name": "_tokenId",
          "type": "uint256"
        }
      ],
      "name": "approve",
      "outputs": [],
      "stateMutability": "nonpayable",
      "type": "function"
    },
    {
      "inputs": [
        {
          "internalType": "uint256",
          "name": "_zombieId",
          "type": "uint256"
        },
        {
          "internalType": "uint256",
          "name": "_targetId",
          "type": "uint256"
        }
      ],
      "name": "attack",
      "outputs": [
        {
          "internalType": "uint256",
          "name": "",
          "type": "uint256"
        }
      ],
      "stateMutability": "nonpayable",
      "type": "function"
    },
    {
      "inputs": [],
      "name": "attackVictoryProbability",
      "outputs": [
        {
          "internalType": "uint256",
          "name": "",
          "type": "uint256"
        }
      ],
      "stateMutability": "view",
      "type": "function",
      "constant": true
    },
    {
      "inputs": [
        {
          "internalType": "address",
          "name": "_owner",
          "type": "address"
        }
      ],
      "name": "balanceOf",
      "outputs": [
        {
          "internalType": "uint256",
          "name": "_balance",
          "type": "uint256"
        }
      ],
      "stateMutability": "view",
      "type": "function",
      "constant": true
    },
    {
      "inputs": [
        {
          "internalType": "uint256",
          "name": "_zombieId",
          "type": "uint256"
        }
      ],
      "name": "buyShopZombie",
      "outputs": [],
      "stateMutability": "payable",
      "type": "function",
      "payable": true
    },
    {
      "inputs": [
        {
          "internalType": "string",
          "name": "_name",
          "type": "string"
        }
      ],
      "name": "buyZombie",
      "outputs": [],
      "stateMutability": "payable",
      "type": "function",
      "payable": true
    },
    {
      "inputs": [
        {
          "internalType": "uint256",
          "name": "_zombieId",
          "type": "uint256"
        },
        {
          "internalType": "string",
          "name": "_newName",
          "type": "string"
        }
      ],
      "name": "changeName",
      "outputs": [],
      "stateMutability": "nonpayable",
      "type": "function"
    },
    {
      "inputs": [],
      "name": "cooldownTime",
      "outputs": [
        {
          "internalType": "uint256",
          "name": "",
          "type": "uint256"
        }
      ],
      "stateMutability": "view",
      "type": "function",
      "constant": true
    },
    {
      "inputs": [
        {
          "internalType": "string",
          "name": "_name",
          "type": "string"
        }
      ],
      "name": "createZombie",
      "outputs": [],
      "stateMutability": "nonpayable",
      "type": "function"
    },
    {
      "inputs": [
        {
          "internalType": "uint256",
          "name": "_zombieId",
          "type": "uint256"
        }
      ],
      "name": "feed",
      "outputs": [],
      "stateMutability": "nonpayable",
      "type": "function"
    },
    {
      "inputs": [],
      "name": "getShopZombies",
      "outputs": [
        {
          "internalType": "uint256[]",
          "name": "",
          "type": "uint256[]"
        }
      ],
      "stateMutability": "view",
      "type": "function",
      "constant": true
    },
    {
      "inputs": [
        {
          "internalType": "address",
          "name": "_owner",
          "type": "address"
        }
      ],
      "name": "getZombiesByOwner",
      "outputs": [
        {
          "internalType": "uint256[]",
          "name": "",
          "type": "uint256[]"
        }
      ],
      "stateMutability": "view",
      "type": "function",
      "constant": true
    },
    {
      "inputs": [
        {
          "internalType": "uint256",
          "name": "_zombieId",
          "type": "uint256"
        }
      ],
      "name": "levelUp",
      "outputs": [],
      "stateMutability": "payable",
      "type": "function",
      "payable": true
    },
    {
      "inputs": [],
      "name": "levelUpFee",
      "outputs": [
        {
          "internalType": "uint256",
          "name": "",
          "type": "uint256"
        }
      ],
      "stateMutability": "view",
      "type": "function",
      "constant": true
    },
    {
      "inputs": [],
      "name": "minPrice",
      "outputs": [
        {
          "internalType": "uint256",
          "name": "",
          "type": "uint256"
        }
      ],
      "stateMutability": "view",
      "type": "function",
      "constant": true
    },
    {
      "inputs": [],
      "name": "name",
      "outputs": [
        {
          "internalType": "string",
          "name": "",
          "type": "string"
        }
      ],
      "stateMutability": "view",
      "type": "function",
      "constant": true
    },
    {
      "inputs": [],
      "name": "owner",
      "outputs": [
        {
          "internalType": "address payable",
          "name": "",
          "type": "address"
        }
      ],
      "stateMutability": "view",
      "type": "function",
      "constant": true
    },
    {
      "inputs": [
        {
          "internalType": "uint256",
          "name": "_tokenId",
          "type": "uint256"
        }
      ],
      "name": "ownerOf",
      "outputs": [
        {
          "internalType": "address",
          "name": "_owner",
          "type": "address"
        }
      ],
      "stateMutability": "view",
      "type": "function",
      "constant": true
    },
    {
      "inputs": [
        {
          "internalType": "uint256",
          "name": "_zombieId",
          "type": "uint256"
        },
        {
          "internalType": "uint256",
          "name": "_price",
          "type": "uint256"
        }
      ],
      "name": "saleMyZombie",
      "outputs": [],
      "stateMutability": "nonpayable",
      "type": "function"
    },
    {
      "inputs": [
        {
          "internalType": "uint256",
          "name": "_attackVictoryProbability",
          "type": "uint256"
        }
      ],
      "name": "setAttackVictoryProbability",
      "outputs": [],
      "stateMutability": "nonpayable",
      "type": "function"
    },
    {
      "inputs": [
        {
          "internalType": "uint256",
          "name": "_fee",
          "type": "uint256"
        }
      ],
      "name": "setLevelUpFee",
      "outputs": [],
      "stateMutability": "nonpayable",
      "type": "function"
    },
    {
      "inputs": [
        {
          "internalType": "uint256",
          "name": "_value",
          "type": "uint256"
        }
      ],
      "name": "setMinPrice",
      "outputs": [],
      "stateMutability": "nonpayable",
      "type": "function"
    },
    {
      "inputs": [
        {
          "internalType": "uint256",
          "name": "_value",
          "type": "uint256"
        }
      ],
      "name": "setTax",
      "outputs": [],
      "stateMutability": "nonpayable",
      "type": "function"
    },
    {
      "inputs": [
        {
          "internalType": "uint256",
          "name": "_price",
          "type": "uint256"
        }
      ],
      "name": "setZombiePrice",
      "outputs": [],
      "stateMutability": "nonpayable",
      "type": "function"
    },
    {
      "inputs": [],
      "name": "symbol",
      "outputs": [
        {
          "internalType": "string",
          "name": "",
          "type": "string"
        }
      ],
      "stateMutability": "view",
      "type": "function",
      "constant": true
    },
    {
      "inputs": [
        {
          "internalType": "uint256",
          "name": "_tokenId",
          "type": "uint256"
        }
      ],
      "name": "takeOwnership",
      "outputs": [],
      "stateMutability": "nonpayable",
      "type": "function"
    },
    {
      "inputs": [],
      "name": "tax",
      "outputs": [
        {
          "internalType": "uint256",
          "name": "",
          "type": "uint256"
        }
      ],
      "stateMutability": "view",
      "type": "function",
      "constant": true
    },
    {
      "inputs": [
        {
          "internalType": "address",
          "name": "_to",
          "type": "address"
        },
        {
          "internalType": "uint256",
          "name": "_tokenId",
          "type": "uint256"
        }
      ],
      "name": "transfer",
      "outputs": [],
      "stateMutability": "nonpayable",
      "type": "function"
    },
    {
      "inputs": [
        {
          "internalType": "address payable",
          "name": "newOwner",
          "type": "address"
        }
      ],
      "name": "transferOwnership",
      "outputs": [],
      "stateMutability": "nonpayable",
      "type": "function"
    },
    {
      "inputs": [],
      "name": "zombieCount",
      "outputs": [
        {
          "internalType": "uint256",
          "name": "",
          "type": "uint256"
        }
      ],
      "stateMutability": "view",
      "type": "function",
      "constant": true
    },
    {
      "inputs": [
        {
          "internalType": "uint256",
          "name": "",
          "type": "uint256"
        }
      ],
      "name": "zombieFeedTimes",
      "outputs": [
        {
          "internalType": "uint256",
          "name": "",
          "type": "uint256"
        }
      ],
      "stateMutability": "view",
      "type": "function",
      "constant": true
    },
    {
      "inputs": [],
      "name": "zombiePrice",
      "outputs": [
        {
          "internalType": "uint256",
          "name": "",
          "type": "uint256"
        }
      ],
      "stateMutability": "view",
      "type": "function",
      "constant": true
    },
    {
      "inputs": [
        {
          "internalType": "uint256",
          "name": "",
          "type": "uint256"
        }
      ],
      "name": "zombieShop",
      "outputs": [
        {
          "internalType": "address payable",
          "name": "seller",
          "type": "address"
        },
        {
          "internalType": "uint256",
          "name": "price",
          "type": "uint256"
        }
      ],
      "stateMutability": "view",
      "type": "function",
      "constant": true
    },
    {
      "inputs": [
        {
          "internalType": "uint256",
          "name": "",
          "type": "uint256"
        }
      ],
      "name": "zombieToOwner",
      "outputs": [
        {
          "internalType": "address",
          "name": "",
          "type": "address"
        }
      ],
      "stateMutability": "view",
      "type": "function",
      "constant": true
    },
    {
      "inputs": [
        {
          "internalType": "uint256",
          "name": "",
          "type": "uint256"
        }
      ],
      "name": "zombies",
      "outputs": [
        {
          "internalType": "string",
          "name": "name",
          "type": "string"
        },
        {
          "internalType": "uint256",
          "name": "dna",
          "type": "uint256"
        },
        {
          "internalType": "uint16",
          "name": "winCount",
          "type": "uint16"
        },
        {
          "internalType": "uint16",
          "name": "lossCount",
          "type": "uint16"
        },
        {
          "internalType": "uint32",
          "name": "level",
          "type": "uint32"
        },
        {
          "internalType": "uint32",
          "name": "readyTime",
          "type": "uint32"
        }
      ],
      "stateMutability": "view",
      "type": "function",
      "constant": true
    },
    {
      "stateMutability": "payable",
      "type": "receive",
      "payable": true
    },
    {
      "inputs": [],
      "name": "withdraw",
      "outputs": [],
      "stateMutability": "nonpayable",
      "type": "function"
    },
    {
      "inputs": [],
      "name": "checkBalance",
      "outputs": [
        {
          "internalType": "uint256",
          "name": "",
          "type": "uint256"
        }
      ],
      "stateMutability": "view",
      "type": "function",
      "constant": true
    }
  ],
  "bytecode": "0x60806040526010600155600154600a6200001a919062000235565b60025562015180600355662386f26fc100006004555f60055566038d7ea4c68000600a55662386f26fc10000600e55662386f26fc10000600f555f601055604660115534801562000069575f80fd5b50335f806101000a81548173ffffffffffffffffffffffffffffffffffffffff021916908373ffffffffffffffffffffffffffffffffffffffff16021790555062000285565b7f4e487b71000000000000000000000000000000000000000000000000000000005f52601160045260245ffd5b5f8160011c9050919050565b5f808291508390505b60018511156200013957808604811115620001115762000110620000af565b5b6001851615620001215780820291505b80810290506200013185620000dc565b9450620000f1565b94509492505050565b5f8262000153576001905062000225565b8162000162575f905062000225565b81600181146200017b57600281146200018657620001bc565b600191505062000225565b60ff8411156200019b576200019a620000af565b5b8360020a915084821115620001b557620001b4620000af565b5b5062000225565b5060208310610133831016604e8410600b8410161715620001f65782820a905083811115620001f057620001ef620000af565b5b62000225565b620002058484846001620000e8565b925090508184048111156200021f576200021e620000af565b5b81810290505b9392505050565b5f819050919050565b5f62000241826200022c565b91506200024e836200022c565b92506200027d7fffffffffffffffffffffffffffffffffffffffffffffffffffffffffffffffff848462000142565b905092915050565b613d9580620002935f395ff3fe60806040526004361061021d575f3560e01c806395d89b4111610122578063c39cbef1116100aa578063e1fa76381161006e578063e1fa763814610784578063e45be8eb146107c0578063ef6ad18b146107ea578063f2fde38b14610826578063f59dfdfb1461084e57610224565b8063c39cbef1146106b8578063c4114b12146106e0578063c71daccb1461070a578063ccf670f814610734578063d521ef431461075c57610224565b8063ad822778116100f1578063ad822778146105fa578063b2e6ceeb14610622578063b319c6b71461064a578063b32c012d14610674578063b3f0ddb91461069c57610224565b806395d89b411461055457806399c8d5561461057e578063a9059cbb146105a8578063a94d153b146105d057610224565b8063528b7b8f116101a557806363721d6b1161017457806363721d6b146104705780636cc29f2e1461049a57806370a08231146104c457806383d404d8146105005780638da5cb5b1461052a57610224565b8063528b7b8f146103a8578063594455f9146103e45780635ea8cd121461040c5780636352211e1461043457610224565b8063208c750e116101ec578063208c750e146102d55780632e5bb6ff146102f15780633ccfd60b146103195780634412e1041461032f57806345c6ba391461036b57610224565b806306fdde0314610226578063095ea7b3146102505780630ce90ec2146102785780632052465e1461029457610224565b3661022457005b005b348015610231575f80fd5b5061023a610876565b6040516102479190612ae1565b60405180910390f35b34801561025b575f80fd5b5061027660048036038101906102719190612b9f565b6108af565b005b610292600480360381019061028d9190612bdd565b610a07565b005b34801561029f575f80fd5b506102ba60048036038101906102b59190612bdd565b610b50565b6040516102cc96959493929190612c51565b60405180910390f35b6102ef60048036038101906102ea9190612bdd565b610c58565b005b3480156102fc575f80fd5b5061031760048036038101906103129190612bdd565b610e54565b005b348015610324575f80fd5b5061032d610eeb565b005b34801561033a575f80fd5b5061035560048036038101906103509190612cb7565b610fdd565b6040516103629190612d99565b60405180910390f35b348015610376575f80fd5b50610391600480360381019061038c9190612bdd565b611128565b60405161039f929190612dd9565b60405180910390f35b3480156103b3575f80fd5b506103ce60048036038101906103c99190612bdd565b611167565b6040516103db9190612e0f565b60405180910390f35b3480156103ef575f80fd5b5061040a60048036038101906104059190612bdd565b611197565b005b348015610417575f80fd5b50610432600480360381019061042d9190612bdd565b61122e565b005b34801561043f575f80fd5b5061045a60048036038101906104559190612bdd565b6112c5565b6040516104679190612e0f565b60405180910390f35b34801561047b575f80fd5b506104846112fe565b6040516104919190612e28565b60405180910390f35b3480156104a5575f80fd5b506104ae611304565b6040516104bb9190612d99565b60405180910390f35b3480156104cf575f80fd5b506104ea60048036038101906104e59190612cb7565b6113ca565b6040516104f79190612e28565b60405180910390f35b34801561050b575f80fd5b50610514611410565b6040516105219190612e28565b60405180910390f35b348015610535575f80fd5b5061053e611416565b60405161054b9190612e41565b60405180910390f35b34801561055f575f80fd5b50610568611439565b6040516105759190612ae1565b60405180910390f35b348015610589575f80fd5b50610592611472565b60405161059f9190612e28565b60405180910390f35b3480156105b3575f80fd5b506105ce60048036038101906105c99190612b9f565b611478565b005b3480156105db575f80fd5b506105e4611527565b6040516105f19190612e28565b60405180910390f35b348015610605575f80fd5b50610620600480360381019061061b9190612f86565b61152d565b005b34801561062d575f80fd5b5061064860048036038101906106439190612bdd565b6115e0565b005b348015610655575f80fd5b5061065e611699565b60405161066b9190612e28565b60405180910390f35b34801561067f575f80fd5b5061069a60048036038101906106959190612fcd565b61169f565b005b6106b660048036038101906106b19190612f86565b61187b565b005b3480156106c3575f80fd5b506106de60048036038101906106d99190613068565b61197e565b005b3480156106eb575f80fd5b506106f4611ad6565b6040516107019190612e28565b60405180910390f35b348015610715575f80fd5b5061071e611adc565b60405161072b9190612e28565b60405180910390f35b34801561073f575f80fd5b5061075a60048036038101906107559190612bdd565b611b71565b005b348015610767575f80fd5b50610782600480360381019061077d9190612bdd565b611c08565b005b34801561078f575f80fd5b506107aa60048036038101906107a59190612fcd565b611c9f565b6040516107b79190612e28565b60405180910390f35b3480156107cb575f80fd5b506107d4611fe6565b6040516107e19190612e28565b60405180910390f35b3480156107f5575f80fd5b50610810600480360381019061080b9190612bdd565b611fec565b60405161081d9190612e28565b60405180910390f35b348015610831575f80fd5b5061084c600480360381019061084791906130ef565b612001565b005b348015610859575f80fd5b50610874600480360381019061086f9190612bdd565b6121b7565b005b6040518060400160405280600e81526020017f4d7943727970746f5a6f6d62696500000000000000000000000000000000000081525081565b8060075f8281526020019081526020015f205f9054906101000a900473ffffffffffffffffffffffffffffffffffffffff1673ffffffffffffffffffffffffffffffffffffffff163373ffffffffffffffffffffffffffffffffffffffff161461094e576040517f08c379a000000000000000000000000000000000000000000000000000000000815260040161094590613164565b60405180910390fd5b82600b5f8481526020019081526020015f205f6101000a81548173ffffffffffffffffffffffffffffffffffffffff021916908373ffffffffffffffffffffffffffffffffffffffff1602179055508273ffffffffffffffffffffffffffffffffffffffff163373ffffffffffffffffffffffffffffffffffffffff167f8c5be1e5ebec7d5bd14f71427d1e84f3dd0314c0f7b2291e5b200ac8c7c3b925846040516109fa9190612e28565b60405180910390a3505050565b8060075f8281526020019081526020015f205f9054906101000a900473ffffffffffffffffffffffffffffffffffffffff1673ffffffffffffffffffffffffffffffffffffffff163373ffffffffffffffffffffffffffffffffffffffff1614610aa6576040517f08c379a0000000000000000000000000000000000000000000000000000000008152600401610a9d90613164565b60405180910390fd5b600a543414610aea576040517f08c379a0000000000000000000000000000000000000000000000000000000008152600401610ae1906131cc565b60405180910390fd5b60068281548110610afe57610afd6131ea565b5b905f5260205f209060030201600201600481819054906101000a900463ffffffff1680929190610b2d90613244565b91906101000a81548163ffffffff021916908363ffffffff160217905550505050565b60068181548110610b5f575f80fd5b905f5260205f2090600302015f91509050805f018054610b7e9061329c565b80601f0160208091040260200160405190810160405280929190818152602001828054610baa9061329c565b8015610bf55780601f10610bcc57610100808354040283529160200191610bf5565b820191905f5260205f20905b815481529060010190602001808311610bd857829003601f168201915b505050505090806001015490806002015f9054906101000a900461ffff16908060020160029054906101000a900461ffff16908060020160049054906101000a900463ffffffff16908060020160089054906101000a900463ffffffff16905086565b600c5f8281526020019081526020015f2060010154341015610caf576040517f08c379a0000000000000000000000000000000000000000000000000000000008152600401610ca6906131cc565b60405180910390fd5b610cec600c5f8381526020019081526020015f205f015f9054906101000a900473ffffffffffffffffffffffffffffffffffffffff163383612396565b600c5f8281526020019081526020015f205f015f9054906101000a900473ffffffffffffffffffffffffffffffffffffffff1673ffffffffffffffffffffffffffffffffffffffff166108fc600e5434610d4691906132cc565b90811502906040515f60405180830381858888f19350505050158015610d6e573d5f803e3d5ffd5b50600c5f8281526020019081526020015f205f8082015f6101000a81549073ffffffffffffffffffffffffffffffffffffffff0219169055600182015f905550506001600d54610dbe91906132cc565b600d81905550600c5f8281526020019081526020015f205f015f9054906101000a900473ffffffffffffffffffffffffffffffffffffffff1673ffffffffffffffffffffffffffffffffffffffff163373ffffffffffffffffffffffffffffffffffffffff16827f2705da8f1145dc87c9e6b9aa3ecd69d3d64da132acba45c803563ad52f5c2b5f60405160405180910390a450565b5f8054906101000a900473ffffffffffffffffffffffffffffffffffffffff1673ffffffffffffffffffffffffffffffffffffffff163373ffffffffffffffffffffffffffffffffffffffff1614610ee1576040517f08c379a0000000000000000000000000000000000000000000000000000000008152600401610ed890613349565b60405180910390fd5b80600e8190555050565b5f8054906101000a900473ffffffffffffffffffffffffffffffffffffffff1673ffffffffffffffffffffffffffffffffffffffff163373ffffffffffffffffffffffffffffffffffffffff1614610f78576040517f08c379a0000000000000000000000000000000000000000000000000000000008152600401610f6f90613349565b60405180910390fd5b5f8054906101000a900473ffffffffffffffffffffffffffffffffffffffff1673ffffffffffffffffffffffffffffffffffffffff166108fc4790811502906040515f60405180830381858888f19350505050158015610fda573d5f803e3d5ffd5b50565b60605f60085f8473ffffffffffffffffffffffffffffffffffffffff1673ffffffffffffffffffffffffffffffffffffffff1681526020019081526020015f205467ffffffffffffffff81111561103757611036612e62565b5b6040519080825280602002602001820160405280156110655781602001602082028036833780820191505090505b5090505f805b60068054905081101561111d578473ffffffffffffffffffffffffffffffffffffffff1660075f8381526020019081526020015f205f9054906101000a900473ffffffffffffffffffffffffffffffffffffffff1673ffffffffffffffffffffffffffffffffffffffff160361110a57808383815181106110ef576110ee6131ea565b5b602002602001018181525050818061110690613367565b9250505b808061111590613367565b91505061106b565b508192505050919050565b600c602052805f5260405f205f91509050805f015f9054906101000a900473ffffffffffffffffffffffffffffffffffffffff16908060010154905082565b6007602052805f5260405f205f915054906101000a900473ffffffffffffffffffffffffffffffffffffffff1681565b5f8054906101000a900473ffffffffffffffffffffffffffffffffffffffff1673ffffffffffffffffffffffffffffffffffffffff163373ffffffffffffffffffffffffffffffffffffffff1614611224576040517f08c379a000000000000000000000000000000000000000000000000000000000815260040161121b90613349565b60405180910390fd5b8060118190555050565b5f8054906101000a900473ffffffffffffffffffffffffffffffffffffffff1673ffffffffffffffffffffffffffffffffffffffff163373ffffffffffffffffffffffffffffffffffffffff16146112bb576040517f08c379a00000000000000000000000000000000000000000000000000000000081526004016112b290613349565b60405180910390fd5b80600f8190555050565b5f60075f8381526020019081526020015f205f9054906101000a900473ffffffffffffffffffffffffffffffffffffffff169050919050565b60055481565b60605f600d5467ffffffffffffffff81111561132357611322612e62565b5b6040519080825280602002602001820160405280156113515781602001602082028036833780820191505090505b5090505f805b6006805490508110156113c1575f600c5f8381526020019081526020015f2060010154146113ae5780838381518110611393576113926131ea565b5b60200260200101818152505081806113aa90613367565b9250505b80806113b990613367565b915050611357565b50819250505090565b5f60085f8373ffffffffffffffffffffffffffffffffffffffff1673ffffffffffffffffffffffffffffffffffffffff1681526020019081526020015f20549050919050565b60045481565b5f8054906101000a900473ffffffffffffffffffffffffffffffffffffffff1681565b6040518060400160405280600381526020017f4d435a000000000000000000000000000000000000000000000000000000000081525081565b600e5481565b8060075f8281526020019081526020015f205f9054906101000a900473ffffffffffffffffffffffffffffffffffffffff1673ffffffffffffffffffffffffffffffffffffffff163373ffffffffffffffffffffffffffffffffffffffff1614611517576040517f08c379a000000000000000000000000000000000000000000000000000000000815260040161150e90613164565b60405180910390fd5b611522338484612396565b505050565b60115481565b5f60085f3373ffffffffffffffffffffffffffffffffffffffff1673ffffffffffffffffffffffffffffffffffffffff1681526020019081526020015f2054146115ac576040517f08c379a00000000000000000000000000000000000000000000000000000000081526004016115a3906133f8565b60405180910390fd5b5f6115b682612565565b9050600a816115c59190613443565b816115d091906132cc565b90506115dc82826125a5565b5050565b3373ffffffffffffffffffffffffffffffffffffffff16600b5f8381526020019081526020015f205f9054906101000a900473ffffffffffffffffffffffffffffffffffffffff1673ffffffffffffffffffffffffffffffffffffffff161461167e576040517f08c379a0000000000000000000000000000000000000000000000000000000008152600401611675906134bd565b60405180910390fd5b5f611688826112c5565b9050611695813384612396565b5050565b60035481565b8160075f8281526020019081526020015f205f9054906101000a900473ffffffffffffffffffffffffffffffffffffffff1673ffffffffffffffffffffffffffffffffffffffff163373ffffffffffffffffffffffffffffffffffffffff161461173e576040517f08c379a000000000000000000000000000000000000000000000000000000000815260040161173590613164565b60405180910390fd5b600e54600f5461174e91906134db565b821015611790576040517f08c379a000000000000000000000000000000000000000000000000000000000815260040161178790613558565b60405180910390fd5b60405180604001604052803373ffffffffffffffffffffffffffffffffffffffff16815260200183815250600c5f8581526020019081526020015f205f820151815f015f6101000a81548173ffffffffffffffffffffffffffffffffffffffff021916908373ffffffffffffffffffffffffffffffffffffffff160217905550602082015181600101559050506001600d5461182c91906134db565b600d819055503373ffffffffffffffffffffffffffffffffffffffff16837f8255874bbfafedc95b8c7b0748890e52f2b7ce1f677df50d51a25a9843b8ff4960405160405180910390a3505050565b5f60085f3373ffffffffffffffffffffffffffffffffffffffff1673ffffffffffffffffffffffffffffffffffffffff1681526020019081526020015f2054116118fa576040517f08c379a00000000000000000000000000000000000000000000000000000000081526004016118f1906135c0565b60405180910390fd5b600454341161193e576040517f08c379a000000000000000000000000000000000000000000000000000000000815260040161193590613628565b60405180910390fd5b5f61194882612565565b90506001600a826119599190613443565b8261196491906132cc565b61196e91906134db565b905061197a82826125a5565b5050565b6002838160068281548110611996576119956131ea565b5b905f5260205f20906003020160020160049054906101000a900463ffffffff1663ffffffff1610156119fd576040517f08c379a00000000000000000000000000000000000000000000000000000000081526004016119f490613690565b60405180910390fd5b8460075f8281526020019081526020015f205f9054906101000a900473ffffffffffffffffffffffffffffffffffffffff1673ffffffffffffffffffffffffffffffffffffffff163373ffffffffffffffffffffffffffffffffffffffff1614611a9c576040517f08c379a0000000000000000000000000000000000000000000000000000000008152600401611a9390613164565b60405180910390fd5b848460068881548110611ab257611ab16131ea565b5b905f5260205f2090600302015f019182611acd929190613855565b50505050505050565b600a5481565b5f805f9054906101000a900473ffffffffffffffffffffffffffffffffffffffff1673ffffffffffffffffffffffffffffffffffffffff163373ffffffffffffffffffffffffffffffffffffffff1614611b6b576040517f08c379a0000000000000000000000000000000000000000000000000000000008152600401611b6290613349565b60405180910390fd5b47905090565b5f8054906101000a900473ffffffffffffffffffffffffffffffffffffffff1673ffffffffffffffffffffffffffffffffffffffff163373ffffffffffffffffffffffffffffffffffffffff1614611bfe576040517f08c379a0000000000000000000000000000000000000000000000000000000008152600401611bf590613349565b60405180910390fd5b80600a8190555050565b5f8054906101000a900473ffffffffffffffffffffffffffffffffffffffff1673ffffffffffffffffffffffffffffffffffffffff163373ffffffffffffffffffffffffffffffffffffffff1614611c95576040517f08c379a0000000000000000000000000000000000000000000000000000000008152600401611c8c90613349565b60405180910390fd5b8060048190555050565b5f8260075f8281526020019081526020015f205f9054906101000a900473ffffffffffffffffffffffffffffffffffffffff1673ffffffffffffffffffffffffffffffffffffffff163373ffffffffffffffffffffffffffffffffffffffff1614611d3f576040517f08c379a0000000000000000000000000000000000000000000000000000000008152600401611d3690613164565b60405180910390fd5b60075f8481526020019081526020015f205f9054906101000a900473ffffffffffffffffffffffffffffffffffffffff1673ffffffffffffffffffffffffffffffffffffffff163373ffffffffffffffffffffffffffffffffffffffff1603611ddd576040517f08c379a0000000000000000000000000000000000000000000000000000000008152600401611dd49061396c565b60405180910390fd5b5f60068581548110611df257611df16131ea565b5b905f5260205f2090600302019050611e09816127cf565b611e48576040517f08c379a0000000000000000000000000000000000000000000000000000000008152600401611e3f906139d4565b60405180910390fd5b5f60068581548110611e5d57611e5c6131ea565b5b905f5260205f20906003020190505f611e7660646127f5565b90506011548111611f5657826002015f81819054906101000a900461ffff1680929190611ea2906139f2565b91906101000a81548161ffff021916908361ffff1602179055505082600201600481819054906101000a900463ffffffff1680929190611ee190613244565b91906101000a81548163ffffffff021916908363ffffffff1602179055505081600201600281819054906101000a900461ffff1680929190611f22906139f2565b91906101000a81548161ffff021916908361ffff16021790555050611f4b87836001015461284e565b869450505050611fdf565b82600201600281819054906101000a900461ffff1680929190611f78906139f2565b91906101000a81548161ffff021916908361ffff16021790555050816002015f81819054906101000a900461ffff1680929190611fb4906139f2565b91906101000a81548161ffff021916908361ffff16021790555050611fd8836129fe565b8594505050505b5092915050565b600f5481565b6009602052805f5260405f205f915090505481565b5f8054906101000a900473ffffffffffffffffffffffffffffffffffffffff1673ffffffffffffffffffffffffffffffffffffffff163373ffffffffffffffffffffffffffffffffffffffff161461208e576040517f08c379a000000000000000000000000000000000000000000000000000000000815260040161208590613349565b60405180910390fd5b5f73ffffffffffffffffffffffffffffffffffffffff168173ffffffffffffffffffffffffffffffffffffffff16036120fc576040517f08c379a00000000000000000000000000000000000000000000000000000000081526004016120f390613349565b60405180910390fd5b8073ffffffffffffffffffffffffffffffffffffffff165f8054906101000a900473ffffffffffffffffffffffffffffffffffffffff1673ffffffffffffffffffffffffffffffffffffffff167f8be0079c531659141344cd1fd0a4f28419497f9722a3daafe3b4186f6b6457e060405160405180910390a3805f806101000a81548173ffffffffffffffffffffffffffffffffffffffff021916908373ffffffffffffffffffffffffffffffffffffffff16021790555050565b8060075f8281526020019081526020015f205f9054906101000a900473ffffffffffffffffffffffffffffffffffffffff1673ffffffffffffffffffffffffffffffffffffffff163373ffffffffffffffffffffffffffffffffffffffff1614612256576040517f08c379a000000000000000000000000000000000000000000000000000000000815260040161224d90613164565b60405180910390fd5b5f6006838154811061226b5761226a6131ea565b5b905f5260205f2090600302019050612282816127cf565b6122c1576040517f08c379a00000000000000000000000000000000000000000000000000000000081526004016122b890613a65565b60405180910390fd5b600160095f8581526020019081526020015f20546122df91906134db565b60095f8581526020019081526020015f20819055506122fd816129fe565b5f600a60095f8681526020019081526020015f205461231c9190613443565b03612391575f6008600a83600101546123359190613443565b836001015461234491906132cc565b61234e91906134db565b905061238f6040518060400160405280600c81526020017f7a6f6d626965277320736f6e0000000000000000000000000000000000000000815250826125a5565b505b505050565b600160085f8473ffffffffffffffffffffffffffffffffffffffff1673ffffffffffffffffffffffffffffffffffffffff1681526020019081526020015f20546123e091906134db565b60085f8473ffffffffffffffffffffffffffffffffffffffff1673ffffffffffffffffffffffffffffffffffffffff1681526020019081526020015f2081905550600160085f8573ffffffffffffffffffffffffffffffffffffffff1673ffffffffffffffffffffffffffffffffffffffff1681526020019081526020015f205461246b91906132cc565b60085f8573ffffffffffffffffffffffffffffffffffffffff1673ffffffffffffffffffffffffffffffffffffffff1681526020019081526020015f20819055508160075f8381526020019081526020015f205f6101000a81548173ffffffffffffffffffffffffffffffffffffffff021916908373ffffffffffffffffffffffffffffffffffffffff1602179055508173ffffffffffffffffffffffffffffffffffffffff168373ffffffffffffffffffffffffffffffffffffffff167fddf252ad1be2c89b69c2b068fc378daa952ba7f163c4a11628f55a4df523b3ef836040516125589190612e28565b60405180910390a3505050565b5f600254824260405160200161257c929190613add565b604051602081830303815290604052805190602001205f1c61259e9190613443565b9050919050565b60066040518060c001604052808481526020018381526020015f61ffff1681526020015f61ffff168152602001600163ffffffff1681526020015f63ffffffff16815250908060018154018082558091505060019003905f5260205f2090600302015f909190919091505f820151815f0190816126229190613b04565b50602082015181600101556040820151816002015f6101000a81548161ffff021916908361ffff16021790555060608201518160020160026101000a81548161ffff021916908361ffff16021790555060808201518160020160046101000a81548163ffffffff021916908363ffffffff16021790555060a08201518160020160086101000a81548163ffffffff021916908363ffffffff16021790555050505f60016006805490506126d591906132cc565b90503360075f8381526020019081526020015f205f6101000a81548173ffffffffffffffffffffffffffffffffffffffff021916908373ffffffffffffffffffffffffffffffffffffffff16021790555060085f3373ffffffffffffffffffffffffffffffffffffffff1673ffffffffffffffffffffffffffffffffffffffff1681526020019081526020015f205f81548092919061277390613367565b919050555060055f81548092919061278a90613367565b91905055507f88f026aacbbecc90c18411df4b1185fd8d9be2470f1962f192bf84a27d0704b78184846040516127c293929190613bd3565b60405180910390a1505050565b5f428260020160089054906101000a900463ffffffff1663ffffffff1611159050919050565b5f60105f81548092919061280890613367565b919050555081423360105460405160200161282593929190613c54565b604051602081830303815290604052805190602001205f1c6128479190613443565b9050919050565b8160075f8281526020019081526020015f205f9054906101000a900473ffffffffffffffffffffffffffffffffffffffff1673ffffffffffffffffffffffffffffffffffffffff163373ffffffffffffffffffffffffffffffffffffffff16146128ed576040517f08c379a00000000000000000000000000000000000000000000000000000000081526004016128e490613164565b60405180910390fd5b5f60068481548110612902576129016131ea565b5b905f5260205f2090600302019050612919816127cf565b612958576040517f08c379a000000000000000000000000000000000000000000000000000000000815260040161294f90613cda565b60405180910390fd5b5f600254846129679190613443565b90505f600282846001015461297c91906134db565b6129869190613cf8565b90506009600a826129979190613443565b826129a291906132cc565b6129ac91906134db565b90506129ed6040518060400160405280600681526020017f4e6f4e616d650000000000000000000000000000000000000000000000000000815250826125a5565b6129f6836129fe565b505050505050565b6201518060035442612a1091906134db565b612a1a9190613443565b60035442612a2891906134db565b612a329190613d28565b8160020160086101000a81548163ffffffff021916908363ffffffff16021790555050565b5f81519050919050565b5f82825260208201905092915050565b5f5b83811015612a8e578082015181840152602081019050612a73565b5f8484015250505050565b5f601f19601f8301169050919050565b5f612ab382612a57565b612abd8185612a61565b9350612acd818560208601612a71565b612ad681612a99565b840191505092915050565b5f6020820190508181035f830152612af98184612aa9565b905092915050565b5f604051905090565b5f80fd5b5f80fd5b5f73ffffffffffffffffffffffffffffffffffffffff82169050919050565b5f612b3b82612b12565b9050919050565b612b4b81612b31565b8114612b55575f80fd5b50565b5f81359050612b6681612b42565b92915050565b5f819050919050565b612b7e81612b6c565b8114612b88575f80fd5b50565b5f81359050612b9981612b75565b92915050565b5f8060408385031215612bb557612bb4612b0a565b5b5f612bc285828601612b58565b9250506020612bd385828601612b8b565b9150509250929050565b5f60208284031215612bf257612bf1612b0a565b5b5f612bff84828501612b8b565b91505092915050565b612c1181612b6c565b82525050565b5f61ffff82169050919050565b612c2d81612c17565b82525050565b5f63ffffffff82169050919050565b612c4b81612c33565b82525050565b5f60c0820190508181035f830152612c698189612aa9565b9050612c786020830188612c08565b612c856040830187612c24565b612c926060830186612c24565b612c9f6080830185612c42565b612cac60a0830184612c42565b979650505050505050565b5f60208284031215612ccc57612ccb612b0a565b5b5f612cd984828501612b58565b91505092915050565b5f81519050919050565b5f82825260208201905092915050565b5f819050602082019050919050565b612d1481612b6c565b82525050565b5f612d258383612d0b565b60208301905092915050565b5f602082019050919050565b5f612d4782612ce2565b612d518185612cec565b9350612d5c83612cfc565b805f5b83811015612d8c578151612d738882612d1a565b9750612d7e83612d31565b925050600181019050612d5f565b5085935050505092915050565b5f6020820190508181035f830152612db18184612d3d565b905092915050565b5f612dc382612b12565b9050919050565b612dd381612db9565b82525050565b5f604082019050612dec5f830185612dca565b612df96020830184612c08565b9392505050565b612e0981612b31565b82525050565b5f602082019050612e225f830184612e00565b92915050565b5f602082019050612e3b5f830184612c08565b92915050565b5f602082019050612e545f830184612dca565b92915050565b5f80fd5b5f80fd5b7f4e487b71000000000000000000000000000000000000000000000000000000005f52604160045260245ffd5b612e9882612a99565b810181811067ffffffffffffffff82111715612eb757612eb6612e62565b5b80604052505050565b5f612ec9612b01565b9050612ed58282612e8f565b919050565b5f67ffffffffffffffff821115612ef457612ef3612e62565b5b612efd82612a99565b9050602081019050919050565b828183375f83830152505050565b5f612f2a612f2584612eda565b612ec0565b905082815260208101848484011115612f4657612f45612e5e565b5b612f51848285612f0a565b509392505050565b5f82601f830112612f6d57612f6c612e5a565b5b8135612f7d848260208601612f18565b91505092915050565b5f60208284031215612f9b57612f9a612b0a565b5b5f82013567ffffffffffffffff811115612fb857612fb7612b0e565b5b612fc484828501612f59565b91505092915050565b5f8060408385031215612fe357612fe2612b0a565b5b5f612ff085828601612b8b565b925050602061300185828601612b8b565b9150509250929050565b5f80fd5b5f80fd5b5f8083601f84011261302857613027612e5a565b5b8235905067ffffffffffffffff8111156130455761304461300b565b5b6020830191508360018202830111156130615761306061300f565b5b9250929050565b5f805f6040848603121561307f5761307e612b0a565b5b5f61308c86828701612b8b565b935050602084013567ffffffffffffffff8111156130ad576130ac612b0e565b5b6130b986828701613013565b92509250509250925092565b6130ce81612db9565b81146130d8575f80fd5b50565b5f813590506130e9816130c5565b92915050565b5f6020828403121561310457613103612b0a565b5b5f613111848285016130db565b91505092915050565b7f5a6f6d626965206973206e6f7420796f757273000000000000000000000000005f82015250565b5f61314e601383612a61565b91506131598261311a565b602082019050919050565b5f6020820190508181035f83015261317b81613142565b9050919050565b7f4e6f20656e6f756768206d6f6e657900000000000000000000000000000000005f82015250565b5f6131b6600f83612a61565b91506131c182613182565b602082019050919050565b5f6020820190508181035f8301526131e3816131aa565b9050919050565b7f4e487b71000000000000000000000000000000000000000000000000000000005f52603260045260245ffd5b7f4e487b71000000000000000000000000000000000000000000000000000000005f52601160045260245ffd5b5f61324e82612c33565b915063ffffffff820361326457613263613217565b5b600182019050919050565b7f4e487b71000000000000000000000000000000000000000000000000000000005f52602260045260245ffd5b5f60028204905060018216806132b357607f821691505b6020821081036132c6576132c561326f565b5b50919050565b5f6132d682612b6c565b91506132e183612b6c565b92508282039050818111156132f9576132f8613217565b5b92915050565b7f4d75737420636f6e7472616374206f776e6572000000000000000000000000005f82015250565b5f613333601383612a61565b915061333e826132ff565b602082019050919050565b5f6020820190508181035f83015261336081613327565b9050919050565b5f61337182612b6c565b91507fffffffffffffffffffffffffffffffffffffffffffffffffffffffffffffffff82036133a3576133a2613217565b5b600182019050919050565b7f7a6f6d626965206973206d6f72650000000000000000000000000000000000005f82015250565b5f6133e2600e83612a61565b91506133ed826133ae565b602082019050919050565b5f6020820190508181035f83015261340f816133d6565b9050919050565b7f4e487b71000000000000000000000000000000000000000000000000000000005f52601260045260245ffd5b5f61344d82612b6c565b915061345883612b6c565b92508261346857613467613416565b5b828206905092915050565b7f617070726f206973206e6f74206d6174636800000000000000000000000000005f82015250565b5f6134a7601283612a61565b91506134b282613473565b602082019050919050565b5f6020820190508181035f8301526134d48161349b565b9050919050565b5f6134e582612b6c565b91506134f083612b6c565b925082820190508082111561350857613507613217565b5b92915050565b7f596f7572207072696365206d757374203e206d696e50726963652b74617800005f82015250565b5f613542601e83612a61565b915061354d8261350e565b602082019050919050565b5f6020820190508181035f83015261356f81613536565b9050919050565b7f7a6f6d626965206d757374207468616e207a65726f00000000000000000000005f82015250565b5f6135aa601583612a61565b91506135b582613576565b602082019050919050565b5f6020820190508181035f8301526135d78161359e565b9050919050565b7f7072696365206c657373000000000000000000000000000000000000000000005f82015250565b5f613612600a83612a61565b915061361d826135de565b602082019050919050565b5f6020820190508181035f83015261363f81613606565b9050919050565b7f4c6576656c206973206e6f742073756666696369656e740000000000000000005f82015250565b5f61367a601783612a61565b915061368582613646565b602082019050919050565b5f6020820190508181035f8301526136a78161366e565b9050919050565b5f82905092915050565b5f819050815f5260205f209050919050565b5f6020601f8301049050919050565b5f82821b905092915050565b5f600883026137147fffffffffffffffffffffffffffffffffffffffffffffffffffffffffffffffff826136d9565b61371e86836136d9565b95508019841693508086168417925050509392505050565b5f819050919050565b5f61375961375461374f84612b6c565b613736565b612b6c565b9050919050565b5f819050919050565b6137728361373f565b61378661377e82613760565b8484546136e5565b825550505050565b5f90565b61379a61378e565b6137a5818484613769565b505050565b5b818110156137c8576137bd5f82613792565b6001810190506137ab565b5050565b601f82111561380d576137de816136b8565b6137e7846136ca565b810160208510156137f6578190505b61380a613802856136ca565b8301826137aa565b50505b505050565b5f82821c905092915050565b5f61382d5f1984600802613812565b1980831691505092915050565b5f613845838361381e565b9150826002028217905092915050565b61385f83836136ae565b67ffffffffffffffff81111561387857613877612e62565b5b613882825461329c565b61388d8282856137cc565b5f601f8311600181146138ba575f84156138a8578287013590505b6138b2858261383a565b865550613919565b601f1984166138c8866136b8565b5f5b828110156138ef578489013582556001820191506020850194506020810190506138ca565b8683101561390c5784890135613908601f89168261381e565b8355505b6001600288020188555050505b50505050505050565b7f54686520746172676574207a6f6d62696520697320796f7572732100000000005f82015250565b5f613956601b83612a61565b915061396182613922565b602082019050919050565b5f6020820190508181035f8301526139838161394a565b9050919050565b7f596f7572207a6f6d626965206973206e6f7420726561647921000000000000005f82015250565b5f6139be601983612a61565b91506139c98261398a565b602082019050919050565b5f6020820190508181035f8301526139eb816139b2565b9050919050565b5f6139fc82612c17565b915061ffff8203613a1057613a0f613217565b5b600182019050919050565b7f726561642074696d65206e6f74206172726976650000000000000000000000005f82015250565b5f613a4f601483612a61565b9150613a5a82613a1b565b602082019050919050565b5f6020820190508181035f830152613a7c81613a43565b9050919050565b5f81905092915050565b5f613a9782612a57565b613aa18185613a83565b9350613ab1818560208601612a71565b80840191505092915050565b5f819050919050565b613ad7613ad282612b6c565b613abd565b82525050565b5f613ae88285613a8d565b9150613af48284613ac6565b6020820191508190509392505050565b613b0d82612a57565b67ffffffffffffffff811115613b2657613b25612e62565b5b613b30825461329c565b613b3b8282856137cc565b5f60209050601f831160018114613b6c575f8415613b5a578287015190505b613b64858261383a565b865550613bcb565b601f198416613b7a866136b8565b5f5b82811015613ba157848901518255600182019150602085019450602081019050613b7c565b86831015613bbe5784890151613bba601f89168261381e565b8355505b6001600288020188555050505b505050505050565b5f606082019050613be65f830186612c08565b8181036020830152613bf88185612aa9565b9050613c076040830184612c08565b949350505050565b5f8160601b9050919050565b5f613c2582613c0f565b9050919050565b5f613c3682613c1b565b9050919050565b613c4e613c4982612b31565b613c2c565b82525050565b5f613c5f8286613ac6565b602082019150613c6f8285613c3d565b601482019150613c7f8284613ac6565b602082019150819050949350505050565b7f5a6f6d626965206973206e6f74207265616479000000000000000000000000005f82015250565b5f613cc4601383612a61565b9150613ccf82613c90565b602082019050919050565b5f6020820190508181035f830152613cf181613cb8565b9050919050565b5f613d0282612b6c565b9150613d0d83612b6c565b925082613d1d57613d1c613416565b5b828204905092915050565b5f613d3282612c33565b9150613d3d83612c33565b9250828203905063ffffffff811115613d5957613d58613217565b5b9291505056fea2646970667358221220f564e5a6ed8922855aeffdd611c590ec9aab24845acdbf087b23ee5ee7914a9364736f6c63430008150033",
  "immutableReferences": {},
  "source": "// SPDX-License-Identifier: MIT\npragma solidity ^0.8.21;\n\nimport \"./zombieMarket.sol\";\nimport \"./zombieFeeding.sol\";\nimport \"./zombieAttack.sol\";\n//\ncontract ZombieCore is ZombieMarket,ZombieFeeding,ZombieAttack {\n    //\n    string public constant name = \"MyCryptoZombie\";\n    //\n    string public constant symbol = \"MCZ\";\n    //  ETH calldata\n    receive() external payable {\n        //  ETH \n    }\n\n    //  calldata msg.data \n    fallback() external payable {\n        // \n    }\n\n    //\n    function withdraw() external onlyOwner {\n        owner.transfer(address(this).balance);\n    }\n    //\n    function checkBalance() external view onlyOwner returns(uint) {\n        return address(this).balance;\n    }\n\n}\n",
  "sourcePath": "/Users/zhou/project/corpse/contracts/zombieCore.sol",
  "compiler": {
    "name": "solc",
    "version": "0.8.21+commit.d9974bed.Emscripten.clang"
  },
  "schemaVersion": "3.4.16",
  "updatedAt": "2025-06-12T05:02:03.029Z",
  "networkType": "ethereum",
  "devdoc": {
    "kind": "dev",
    "methods": {
      "transferOwnership(address)": {
        "details": "Allows the current owner to transfer control of the contract to a newOwner.",
        "params": {
          "newOwner": "The address to transfer ownership to."
        }
      }
    },
    "version": 1
  },
  "userdoc": {
    "kind": "user",
    "methods": {},
    "version": 1
  }
}